:100003005468697320697320736C6176653A005490
:1000130068652074656D70657261747572652069B9
:100023007320252E326600526563762074656D70E9
:100033006572617475726520697320252E326600BE
:10335F004100B2004100BA004100B3004100B70084
:0E33D30075CEC375CDC0D2AF75AF02D29422B5
:1029A8001232CE12320C1233D374FFFFFE12316D85
:1029B8007BFF7A007903E4900020F0A3F074FFA372
:1029C800F0A3F07D467C007F1E7E00122DF4122FAE
:1029D800BC9000B8EEF0A3EFF090001C74FFF0A3D9
:1029E8007400F0A37412F09000B8E0FCA3E0FDE4DA
:1029F800121159E4FBFA7980783D12104E90001FAD
:102A08001216FD7B017A007900121C857B017A0081
:102A18007900E4900020F0A3F074FFA3F0A3F07D08
:102A2800647C007F3C7E00122DF49000B3E0C394D8
:102A380002406AE4F09000B2E0FE9000BAE07C0048
:102A48002400FFEC3E9000B5F0A3EFF090001C745A
:102A5800FFF0A37400F0A3742AF09000B5E0FCA383
:102A6800E0FDE4121159E4FBFA7980783D12104E2A
:102A780090001F1216FD7B017A007900121C857BDD
:102A8800017A007900E4900020F0A3F074FFA3F02D
:102A9800A3F07D787C007F3C7E00122DF49000B876
:102AA800E0FEA3E09000BBF0EE9000B4F00229B87D
:03004B000231205F
:10312000C0E0C083C082C0D075D000C0079000B39B
:10313000E004F09000B1E5CFF09000B3E0FFB401FF
:103140000C9000B1E0A3F09000BBE0F5CFEFB4022B
:103150000E9000B1E09000BAF09000B4E0F5CF75A9
:0D316000CDC0D007D0D0D082D083D0E032D7
:06334700C292D2937F0147
:10334D00E4FEE4FDEDC39F50030D80F80EEEB428AE
:01335D00F17E
:01335E00224C
:0E33E1004392085391F7123349D29202334DB2
:10338900D2927F0112334DD29312334DC29212332E
:043399004DC293226C
:10339D00E490001BF01233492092FDC2937F01028D
:0233AD00334D9E
:08004300123347C29302334D52
:0B33EF00123347D29212334DC29322DA
:10323800AC07E4FBEC30E70BD292123349C293C2DD
:10324800928005123347C29312334DEC25E0FC0BF4
:07325800EBB408E002339D16
:10328600D292E4FBEC25E0FC123349EC209207F4E1
:103296004401F4FC80034401FCC2930BEBB408E444
:0532A600120043AF041B
:0132AB002200
:10004E0000000000000000000000000000000000A2
:10005E0000007E81A58181BD9981817E0000000016
:10006E0000007EFFDBFFFFC3E7FFFF7E0000000006
:10007E00000000006CFEFEFEFE7C3810000000004A
:10008E000000000010387CFE7C38100000000000DC
:10009E00000000183C3CE7E7E718183C00000000A1
:1000AE00000000183C7EFFFF7E18183C0000000088
:1000BE00000000000000183C3C180000000000008A
:1000CE00FFFFFFFFFFFFE7C3C3E7FFFFFFFFFFFFDA
:1000DE0000000000003C664242663C00000000004A
:1000EE00FFFFFFFFFFC399BDBD99C3FFFFFFFFFFDA
:1000FE0000001E0E1A3278CCCCCCCC78000000005A
:10010E0000003C666666663C187E1818000000000B
:10011E0000003F333F3030303070F0E00000000020
:10012E0000007F637F6363636367E7E6C0000000E0
:10013E000000001818DB3CE73CDB1818000000003C
:10014E000080C0E0F0F8FEF8F0E0C0800000000093
:10015E000002060E1E3EFE3E1E0E060200000000AF
:10016E000000183C7E1818187E3C18000000000095
:10017E0000006666666666666600666600000000DB
:10018E0000007FDBDBDB7B1B1B1B1B1B000000004F
:10019E00007CC660386CC6C66C380CC67C0000008D
:1001AE000000000000000000FEFEFEFE0000000049
:1001BE000000183C7E1818187E3C187E00000000C7
:1001CE000000183C7E1818181818181800000000A7
:1001DE000000181818181818187E3C180000000097
:1001EE000000000000180CFE0C18000000000000BB
:1001FE0000000000003060FE6030000000000000D3
:10020E00000000000000C0C0C0FE000000000000A2
:10021E000000000000286CFE6C28000000000000AA
:10022E00000000001038387C7CFEFE00000000004C
:10023E0000000000FEFE7C7C38381000000000003C
:10024E0000000000000000000000000000000000A0
:10025E000000183C3C3C181818001818000000004C
:10026E00006666662400000000000000000000002A
:10027E000000006C6CFE6C6C6CFE6C6C0000000080
:10028E0018187CC6C2C07C060686C67C18180000EC
:10029E0000000000C2C60C183060C68600000000C8
:1002AE000000386C6C3876DCCCCCCC7600000000CC
:1002BE000030303060000000000000000000000040
:1002CE0000000C18303030303030180C00000000B8
:1002DE00000030180C0C0C0C0C0C18300000000038
:1002EE000000000000663CFF3C66000000000000BD
:1002FE00000000000018187E181800000000000012
:10030E000000000000000000001818183000000067
:10031E0000000000000000FE0000000000000000D1
:10032E00000000000000000000001818000000008F
:10033E000000000002060C183060C08000000000B3
:10034E000000386CC6C6D6D6C6C66C380000000093
:10035E0000001838781818181818187E00000000B9
:10036E0000007CC6060C183060C0C6FE00000000FF
:10037E0000007CC606063C060606C67C0000000091
:10038E0000000C1C3C6CCCFE0C0C0C1E0000000083
:10039E000000FEC0C0C0FC060606C67C00000000C1
:1003AE0000003860C0C0FCC6C6C6C67C0000000097
:1003BE000000FEC606060C1830303030000000007B
:1003CE0000007CC6C6C67CC6C6C6C67C0000000041
:1003DE0000007CC6C6C67E0606060C78000000002D
:1003EE00000000001818000000181800000000009F
:1003FE00000000001818000000181830000000005F
:10040E00000000060C18306030180C0600000000CA
:10041E0000000000007E00007E00000000000000D2
:10042E000000006030180C060C1830600000000050
:10043E0000007CC6C60C1818180018180000000022
:10044E000000007CC6C6DEDEDEDCC07C00000000E4
:10045E00000010386CC6C6FEC6C6C6C60000000038
:10046E000000FC6666667C66666666FC0000000040
:10047E0000003C66C2C0C0C0C0C2663C00000000A6
:10048E000000F86C6666666666666CF80000000032
:10049E000000FE6662687868606266FE000000001A
:1004AE000000FE6662687868606060F00000000020
:1004BE0000003C66C2C0C0DEC6C6663A0000000040
:1004CE000000C6C6C6C6FEC6C6C6C6C6000000002A
:1004DE0000003C18181818181818183C00000000D6
:1004EE0000001E0C0C0C0C0CCCCCCC7800000000C8
:1004FE000000E666666C78786C6666E600000000C2
:10050E000000F06060606060606266FE00000000E7
:10051E000000C6EEFEFED6C6C6C6C6C60000000069
:10052E000000C6E6F6FEDECEC6C6C6C60000000059
:10053E0000007CC6C6C6C6C6C6C6C67C0000000085
:10054E000000FC6666667C60606060F00000000083
:10055E0000007CC6C6C6C6C6C6D6DE7C0C0E000023
:10056E000000FC6666667C6C666666E6000000004F
:10057E0000007CC6C660380C06C6C67C00000000B3
:10058E0000007E7E5A1818181818183C000000003B
:10059E000000C6C6C6C6C6C6C6C6C67C00000000DB
:1005AE000000C6C6C6C6C6C6C66C3810000000001F
:1005BE000000C6C6C6C6D6D6D6FEEE6C000000003B
:1005CE000000C6C66C7C38387C6CC6C600000000C5
:1005DE000000666666663C181818183C000000009D
:1005EE000000FEC6860C183060C2C6FE0000000079
:1005FE0000003C30303030303030303C00000000F5
:10060E0000000080C0E070381C0E060200000000E2
:10061E0000003C0C0C0C0C0C0C0C0C3C00000000F4
:10062E0010386CC600000000000000000000000042
:10063E0000000000000000000000000000FF0000AD
:10064E003030180000000000000000000000000024
:10065E000000000000780C7CCCCCCC7600000000B2
:10066E000000E06060786C666666667C00000000E4
:10067E0000000000007CC6C0C0C0C67C00000000A8
:10068E0000001C0C0C3C6CCCCCCCCC7600000000DA
:10069E0000000000007CC6FEC0C0C67C000000004A
:1006AE000000386C6460F060606060F00000000074
:1006BE00000000000076CCCCCCCCCC7C0CCC7800EE
:1006CE000000E060606C7666666666E6000000001C
:1006DE0000001818003818181818183C00000000F0
:1006EE0000000606000E06060606060666663C00B6
:1006FE000000E06060666C78786C66E600000000D2
:10070E0000003818181818181818183C00000000A7
:10071E000000000000ECFED6D6D6D6C600000000C3
:10072E000000000000DC666666666666000000007B
:10073E0000000000007CC6C6C6C6C67C00000000D5
:10074E000000000000DC66666666667C6060F00095
:10075E00000000000076CCCCCCCCCC7C0C0C1E0067
:10076E000000000000DC7666606060F000000000B3
:10077E0000000000007CC660380CC67C0000000043
:10078E000000103030FC30303030361C00000000DD
:10079E000000000000CCCCCCCCCCCC76000000000D
:1007AE00000000000066666666663C1800000000E9
:1007BE000000000000C6C6D6D6D6FE6C00000000B3
:1007CE000000000000C66C3838386CC6000000000F
:1007DE000000000000C6C6C6C6C6C67E060CF800DF
:1007EE000000000000FECC183060C6FE00000000C5
:1007FE0000000E18181870181818180E00000000B7
:10080E000000181818180018181818180000000002
:10081E000000701818180E18181818700000000034
:10082E00000076DC00000000000000000000000068
:10083E000000000010386CC6C6C6FE0000000000A6
:10084E0000003C66C2C0C0C0C2663C0C067C000004
:10085E000000CC0000CCCCCCCCCCCC760000000080
:10086E00000C1830007CC6FEC0C0C67C0000000024
:10087E000010386C00780C7CCCCCCC7600000000DC
:10088E000000CC0000780C7CCCCCCC7600000000B4
:10089E000060301800780C7CCCCCCC7600000000C8
:1008AE0000386C3800780C7CCCCCCC760000000084
:1008BE00000000003C666060663C0C063C000000D8
:1008CE000010386C007CC6FEC0C0C67C0000000064
:1008DE000000C600007CC6FEC0C0C67C0000000042
:1008EE0000603018007CC6FEC0C0C67C0000000050
:1008FE0000006600003818181818183C0000000098
:10090E0000183C66003818181818183C0000000033
:10091E0000603018003818181818183C0000000035
:10092E0000C60010386CC6C6FEC6C6C60000000063
:10093E00386C3800386CC6C6FEC6C6C6000000004D
:10094E0018306000FE66607C606066FE000000008D
:10095E000000000000CC76367ED8D86E0000000075
:10096E0000003E6CCCCCFECCCCCCCCCE000000003B
:10097E000010386C007CC6C6C6C6C67C00000000DF
:10098E000000C600007CC6C6C6C6C67C00000000BD
:10099E0000603018007CC6C6C6C6C67C00000000CB
:1009AE00003078CC00CCCCCCCCCCCC760000000087
:1009BE000060301800CCCCCCCCCCCC760000000043
:1009CE000000C60000C6C6C6C6C6C67E060C7800A7
:1009DE0000C6007CC6C6C6C6C6C6C67C00000000E1
:1009EE0000C600C6C6C6C6C6C6C6C67C0000000087
:1009FE000018183C66606060663C18180000000025
:100A0E0000386C6460F060606060E6FC000000001E
:100A1E00000066663C187E187E181818000000004C
:100A2E0000F8CCCCF8C4CCDECCCCCCC60000000098
:100A3E00000E1B1818187E1818181818D8700000F9
:100A4E000018306000780C7CCCCCCC760000000016
:100A5E00000C1830003818181818183C0000000048
:100A6E0000183060007CC6C6C6C6C67C00000000FA
:100A7E000018306000CCCCCCCCCCCC760000000082
:100A8E00000076DC00DC66666666666600000000C6
:100A9E0076DC00C6E6F6FEDECEC6C6C60000000058
:100AAE00003C6C6C3E007E00000000000000000068
:100ABE0000386C6C38007C00000000000000000064
:100ACE000000303000303060C0C6C67C0000000030
:100ADE00000000000000FEC0C0C0C000000000000A
:100AEE00000000000000FE060606060000000000E2
:100AFE0000C0C0C2C6CC183060DC860C183E0000A8
:100B0E0000C0C0C2C6CC183066CE9E3E060600009F
:100B1E0000001818001818183C3C3C180000000083
:100B2E000000000000366CD86C360000000000009B
:100B3E000000000000D86C366CD8000000000000E9
:100B4E0011441144114411441144114411441144EF
:100B5E0055AA55AA55AA55AA55AA55AA55AA55AA8F
:100B6E00DD77DD77DD77DD77DD77DD77DD77DD77D7
:100B7E0018181818181818181818181818181818E7
:100B8E0018181818181818F81818181818181818F7
:100B9E001818181818F818F8181818181818181807
:100BAE0036363636363636F6363636363636363617
:100BBE0000000000000000FE363636363636363679
:100BCE000000000000F818F818181818181818184F
:100BDE003636363636F606F6363636363636363657
:100BEE003636363636363636363636363636363697
:100BFE000000000000FE06F636363636363636363D
:100C0E003636363636F606FE0000000000000000CE
:100C1E0036363636363636FE00000000000000004E
:100C2E001818181818F818F8000000000000000036
:100C3E0000000000000000F81818181818181818EE
:100C4E00181818181818181F0000000000000000CF
:100C5E0018181818181818FF0000000000000000DF
:100C6E0000000000000000FF1818181818181818B7
:100C7E00181818181818181F1818181818181818DF
:100C8E0000000000000000FF000000000000000057
:100C9E0018181818181818FF1818181818181818DF
:100CAE0018181818181F181F1818181818181818A8
:100CBE0036363636363636373636363636363636C5
:100CCE00363636363637303F000000000000000062
:100CDE0000000000003F30373636363636363636B0
:100CEE003636363636F700FF0000000000000000F2
:100CFE000000000000FF00F7363636363636363640
:100D0E003636363636373037363636363636363679
:100D1E000000000000FF00FF0000000000000000C7
:100D2E003636363636F700F7363636363636363609
:100D3E001818181818FF00FF00000000000000002F
:100D4E0036363636363636FF00000000000000001C
:100D5E000000000000FF00FF1818181818181818C7
:100D6E0000000000000000FF3636363636363636C6
:100D7E00363636363636363F0000000000000000AC
:100D8E0018181818181F181F000000000000000087
:100D9E0000000000001F181F18181818181818182F
:100DAE00000000000000003F363636363636363646
:100DBE0036363636363636FF3636363636363636FC
:100DCE001818181818FF18FF1818181818181818C7
:100DDE0018181818181818F8000000000000000065
:100DEE00000000000000001F181818181818181816
:100DFE00FFFFFFFFFFFFFFFFFFFFFFFFFFFFFFFFF5
:100E0E0000000000000000FFFFFFFFFFFFFFFFFFDD
:100E1E00F0F0F0F0F0F0F0F0F0F0F0F0F0F0F0F0C4
:100E2E000F0F0F0F0F0F0F0F0F0F0F0F0F0F0F0FC4
:100E3E00FFFFFFFFFFFFFF000000000000000000AB
:100E4E00000000000076DCD8D8D8DC760000000068
:100E5E00000078CCCCCCD8CCC6C6C6CC00000000E6
:100E6E000000FEC6C6C0C0C0C0C0C0C000000000AA
:100E7E0000000000FE6C6C6C6C6C6C6C0000000072
:100E8E00000000FEC66030183060C6FE0000000094
:100E9E0000000000007ED8D8D8D8D870000000001E
:100EAE000000000066666666667C6060C00000003A
:100EBE000000000076DC1818181818180000000042
:100ECE000000007E183C6666663C187E000000003E
:100EDE00000000386CC6C6FEC6C66C3800000000A6
:100EEE000000386CC6C6C66C6C6C6CEE0000000060
:100EFE0000001E30180C3E666666663C0000000060
:100F0E0000000000007EDBDBDB7E00000000000046
:100F1E0000000003067EDBDBF37E60C000000000F5
:100F2E0000001C3060607C606060301C00000000BF
:100F3E000000007CC6C6C6C6C6C6C6C600000000F7
:100F4E0000000000FE0000FE0000FE000000000099
:100F5E000000000018187E18180000FF00000000A6
:100F6E0000000030180C060C1830007E0000000047
:100F7E000000000C18306030180C007E00000000DD
:100F8E0000000E1B1B181818181818181818181807
:100F9E001818181818181818D8D8D870000000008B
:100FAE00000000001818007E001818000000000055
:100FBE00000000000076DC0076DC0000000000007F
:100FCE0000386C6C380000000000000000000000CB
:100FDE0000000000000000181800000000000000D3
:100FEE0000000000000000001800000000000000DB
:100FFE00000F0C0C0C0C0CEC6C6C3C1C000000007C
:10100E0000D86C6C6C6C6C000000000000000000DE
:10101E000070D83060C8F80000000000000000002A
:10102E00000000007C7C7C7C7C7C7C00000000004E
:10103E0000000000000000000000000000000000A2
:1032AC007F201232BEC374F09DFFE49CFE12337972
:0232BC007F2170
:1032BE00C2B4C2B58F8075A000C2B6D2B6D2B42247
:05337400E0FEA3E0FFF4
:10337900C2B4D2B58F80EEF5A0C2B6D2B6D2B4220D
:10332C007580FF75A0FFC2B4D2B5C2B77F00AD8067
:0A333C00EF2DFFE433FED2B7D2B448
:013346002264
:0833AF0090001BE0FCA3E0FD0F
:0A33B7001232BEAE04AF05023379F6
:1032EF00E4FDFCC3ED9FEC9E5015E4FBFA0BBB0015
:0F32FF00010AEB64C84A70F50DBD00010C80E4B4
:01330E00229C
:102830007FF47E011232EF7D007C017F011233B7FD
:102840007C077F021233B77D287C107F031233B7D9
:10285000E4FDFC7F041233B77D077C027F0812334E
:10286000B7E4FDFC7F091233B77F0A1233B77F0C40
:102870001233B77F0D1233B77F0F1233B77F1012A9
:1028800033B77D077F111233B7E4FD7F121233B7E0
:102890007F131233B77D907C127F101233B77D27E0
:1028A0007C027F111233B77D1D7C007F121233B77B
:1028B0007D007C157F131233B77D187C007F2912B1
:1028C00033B77D0D7F2B1233B77D047F301233B7C2
:1028D0007D077C037F311233B77D027C007F32128B
:1028E00033B77D067C027F351233B77D087C047FC9
:1028F000361233B71D0C7F371233B77D047C027F4D
:10290000381233B77407FDFC7F391233B77D057C6D
:10291000047F3C1233B77D027C0F7F3D1233B7E456
:10292000FDFC7F501233B77DEF7F511233B7E4FDCA
:102930007F521233B77D3F0C7F531233B77D007C3B
:10294000A77F601233B70D7C007F611233B71D7F04
:102950006A1233B77F801233B77F811233B77F8219
:102960001233B77F831233B77F841233B77F851258
:1029700033B77D107F901233B77D007C067F9212B3
:1029800033B77D037C007F931233B77D100C7F95A6
:102990001233B7E4FD1C7F971233B77F981233B719
:0829A0007D330C7F070233B701
:10307B0090001BEEF0A3EFF0A3ECF0A3EDF09000AB
:10308B0021E0FEA3E0FFC374F09FFDE49EFC7F50A4
:10309B001233B7C374F09BFDE49AFC7F511233B724
:1030AB007F521233AFA3E0FCA3E0FD7F531233B783
:1030BB00C374F09BFDE49AFC7F201233B77F21127F
:0730CB0033AF7F220232BE89
:08316D00900019EEF0A3EFF051
:10317500900021E4F0A374F0F0E4FBFA7D407C01BB
:10318500FFFE12307BE4FDFCE4FBFA9000191233DC
:10319500740BBB00010AEB64F14A70EF0DBD000131
:0731A5000CBC01E4BD42E196
:0131AC002200
:10320C007594FFE4F5937596FFF595D2B4C2907F53
:10321C00C8FE1232EFD2907FFA1232EF1228307FB2
:0C322C002C7E011232EFE4FF1E02316D17
:0430D200AD07AC0694
:1030D600ED541FFF9000CFE4F0A3EFF0ED7805CE9E
:1030E600C313CE13D8F9543FFB7A00EC13131354D1
:1030F6001FFD7C007E00EB7805C333CE33CED8F9B6
:10310600FBAA069000D0E033333354F8FEE42BFFDD
:09311600EE3AFEEF2DFFEE3CFE47
:01311F00228D
:04330F00AB07AA0658
:103313001232ACAE02AF031233797F221232BE12E5
:08332300332C12332C1230D2BE
:01332B00227F
:102E95009000C5EEF0A3EFF0A3ECF0A3EDF0A3EAEC
:042EA500F0A3EBF0BB
:102EA9009000C5E0FCA3E0FFAE04C006C007240102
:102EB900FDE43CFCA3E0FAA3E0FB9000C7E0FEA31D
:102EC900E02401FFE43E900021F0A3EFF0D007D009
:102ED9000612307B9000C7E0FEA3E0FDAC0690002F
:102EE900C8E02401FF9000C7E03400FED3ED9FEC59
:102EF9009E50339000C5E0FEA3E0FBAA069000C6F1
:102F0900E02401FF9000C5E03400FED3EB9FEA9E68
:102F1900500D9000C91233740BBB00010A80DE0DFD
:062F2900BD00010C80B8A0
:012F2F00227F
:1031AD0090006DE0FEA3E0FFA3E0FCA3E0FD900026
:0631BD006BE0FAA3E0FB49
:1031C3008F828E831232ACAE83AF821233797F2229
:0A31D3001232BEAE02AF03023379E0
:102AB800900025EEF0A3EFF0A3ECF0A3EDF0A9034E
:102AC800E490002EF0A3F090002EE0FCA3E0FDC3FC
:0A2AD8009410EC94004003022BAFB1
:102AE200E9FF3395E0FEEFC4F8540FC868FFEEC467
:102AF20054F048FEED2FFFEC3EFE744E2FF582742B
:102B0200003EF583E493900032F0E4900030F0A3AD
:102B1200F0900030E0FEA3E0FFC39408EE94005072
:102B22007BA3E030E725900025E0FCA3E0FDEF2D3C
:102B3200FFEE3CFEA3E0FCA3E0FD90002FE02DFDA4
:102B420090002EE03CFC90002A803690002CE07031
:102B520003A3E0F4602E900025E0FEA3E0FF9000C6
:102B620031E02FFF900030E03EFE900027E0FCA312
:102B7200E0FD90002FE02DFD90002EE03CFC900047
:102B82002C1231BE900032E025E0F0900031E004DA
:0C2B9200F07006900030E004F0022B13FD
:102B9E0090002FE004F0700690002EE004F0022A60
:012BAE00CF57
:012BAF002203
:102DF400900019EEF0A3EFF0A3ECF0A3EDF0A3EB39
:072E0400F0A3EAF0A3E9F0DE
:102E0B00E4900024F090001DE0FBA3E0FAA3E0F9AE
:102E1B0012155DFF60733395E0FEC3EF9480EE6493
:102E2B0080948050E0900024E0FF3395E0FEEF7833
:102E3B0003C333CE33CED8F9FF90001AE02FFF90A7
:102E4B000019E03EFEC00790001BE0FCA3E0FD1262
:102E5B00155DFB900020E0FFA3E090002ACFF0A3CC
:102E6B00EFF0900022E0FFA3E090002CCFF0A3EF57
:102E7B00F0D007122AB8900024E004F090001EE472
:092E8B0075F0011215C7022E10AA
:012E9400221B
:102C930090008AEEF0A3EFF0A3ECF0A3EDF0A3EA2B
:062CA300F0FCA3EBF0FDC4
:102CA90090008AE0FAA3E0FFAE02C006C0072DFF3C
:102CB900EA3CCF24FFFDEF34FFFCA3E0FAA3E0FBDD
:102CC900900090E0FEA3E0FF90008CE0F8A3E02FD5
:102CD900FFE83ECF24FFCF34FF900021F0A3EFF0AF
:102CE900D007D00612307BE4900095F0A3F0900055
:102CF90090E0FCA3E0FD90008EE0FEA3E0FF12153A
:102D0900B5900095E0FCA3E0FDC39FEC9E502FED2C
:102D190025E0FFEC33FE900092E0FBA3E0FAA3E08C
:102D2900F98F828E831215DDFFAEF0123379900090
:0E2D390096E004F070B8900095E004F080B0D1
:012D47002269
:102BB000900097EEF0A3EFF0A3ECF0A3EDF0A3EA02
:062BC000F0FCA3EBF0FDA8
:102BC600900097E0FAA3E0FFAE02C006C0072DFF13
:102BD600EA3CCF24FFFDEF34FFFCA3E0FAA3E0FBC1
:102BE60090009DE0FEA3E0FF900099E0F8A3E02F9F
:102BF600FFE83ECF24FFCF34FF900021F0A3EFF093
:102C0600D007D00612307BE49000A2F0A3F090002B
:102C16009DE0FCA3E0FD90009BE0FEA3E0FF121503
:102C2600B5C39000A3E09F9000A2E09E505E900086
:102C36009FE0FBA3E0FAA3E0F9A3E0FEA3E0F582A0
:102C46008E83121576FD543875F040A4FBED54E0E2
:102C560045F0FCEBFD90009FE0FBA3A3A3E0FEA3E1
:102C6600E0F5828E83121576540375F008A4FFEC06
:102C760045F0FEED4FFDAC06FF1233799000A3E060
:0C2C860004F0708A9000A2E004F080824C
:012C9200221F
:10174F00900063EEF0A3EFF0900067EAF0A3EBF0E8
:08175F00900065ECF0A3EDF031
:10176700900069E06C7003A3E06D7057900067E02C
:10177700FEA3E0FF900063E0FCA3E0FDD39FEC9E97
:1017870090006D50028008EEF0A3EFF0900067EC38
:10179700F0A3EDF0900067E0FCA3E0FD90006DE0A2
:1017A700FEA3E0FFD39DEE9C4003021C1F90006543
:1017B7001231B690006EE004F070D990006DE0042D
:1017C700F080D1900069E0FEA3E0FF900065E0FCA7
:1017D700A3E0FDD39FEC9E4006ED9FFFEC801390A6
:1017E7000065E0FEA3E0FFC390006AE09FFF900062
:1017F70069E09E900073F0A3EFF0900067E0FEA30E
:10180700E0FF900063E06E7003A3E06F705C9000F0
:1018170069E0FEA3E0FF900065E0FCA3E0FDD39F35
:10182700EC9E90006F50028008EEF0A3EFF090005E
:1018370069ECF0A3EDF0900069E0FEA3E0FF9000F3
:101847006FE0FCA3E0FDD39FEC9E4003021C1F90BA
:101857000063E0FEA3E0FF1231BB900070E004F0EC
:1018670070D490006FE004F080CC900067E0FEA396
:10187700E0FF900063E0FCA3E0FDD39FEC9E403DBA
:10188700900067E0FAA3E0FBED9BFEEC9A900071F5
:10189700F0A3CEF090006DEAF0A3EBF0900067ECB8
:1018A700F0A3EDF0A3E0FFA3E090006FCFF0A3EF6C
:1018B700F0900065E0FFA3E0900069802D90006341
:1018C700E0FAA3E0FBC3900068E09BFE900067E0AE
:1018D7009A900071F0A3CEF090006DEAF0A3EBF0C0
:1018E700900065E0FFA3E090006FCFF0A3EFF090CA
:1018F7000073E0FEA3E0FF900071E06E7003A3E0C9
:101907006F705A900067E0FEA3E0FFD390006EE08F
:101917009F90006DE09E4003021C1FA3E004F0703F
:101927000690006DE004F0900069E0FEA3E0FFD3AD
:10193700900070E09F90006FE09E400EA3E024FFB0
:10194700F090006FE034FFF0800E900070E004F03C
:10195700700690006FE004F01231AD80A61231AD31
:10196700900069E0FEA3E0FFC3900070E09F900045
:101977006FE09E4003021ACF900073E0FEA3E0FFE2
:10198700900071E0FCA3E0FD9FEC9E5003021A2E2D
:10199700EF25E0FBEE33FAC3EB9DFEEA9C90007562
:1019A700F0A3CEF0A3EAF0A3EBF0900071E0FEA362
:1019B700E0FFC3900074E09FFF900073E09EFEEF8E
:1019C70025E0FFEE33900079F0A3EFF0900067E099
:1019D700FEA3E0FFC390006EE09F90006DE09E4085
:1019E70003021C1FA3E004F0700690006DE004F0F2
:1019F700C3900075E0648094805005900077801153
:101A0700900070E004F0700690006FE004F0900022
:101A170079E0FEA3E0FF900076E02FF0900075E0FC
:071A27003EF01231AD80A575
:101A2E00900072E025E0FB900071E033FA900073B5
:101A3E00E0FEA3E0FFC3EB9FFFEA9EA3F0A3EFF04F
:101A4E00A3EAF0A3EBF0900073A3E0FFC390007243
:101A5E00E09FFF900071E09EFEEF25E0FFEE3390D9
:101A6E000079F0A3EFF0900069E0FEA3E0FFC390D1
:101A7E000070E09F90006FE09E4003021C1FA3E0E9
:101A8E0004F0700690006FE004F0C3900075E064FF
:101A9E008094805005900077801190006EE004F0E5
:101AAE00700690006DE004F0900079E0FEA3E0FF78
:101ABE00900076E02FF0900075E03EF01231AD8090
:011ACE00A572
:101ACF00900073E0FEA3E0FF900071E0FCA3E0FD47
:091ADF00D39FEC9E5003021B7F13
:101AE800EF25E0FBEE33FAC3EB9DFEEA9C90007510
:101AF800F0A3CEF0A3EAF0A3EBF0900071E0FEA310
:101B0800E0FFC3900074E09FFF900073E09EFEEF3B
:101B180025E0FFEE33900079F0A3EFF0900067E046
:101B2800FEA3E0FFC390006EE09F90006DE09E4032
:101B380003021C1FA3E004F0700690006DE004F09F
:101B4800C3900075E0648094805005900077801100
:101B5800900070E024FFF090006FE034FFF09000F8
:101B680079E0FEA3E0FF900076E02FF0900075E0AA
:071B78003EF01231AD80A523
:101B7F00900072E025E0FB900071E033FA90007363
:101B8F00E0FEA3E0FFC3EB9FFFEA9EA3F0A3EFF0FD
:101B9F00A3EAF0A3EBF0900073A3E0FFC3900072F1
:101BAF00E09FFF900071E09EFEEF25E0FFEE339087
:101BBF000079F0A3EFF090006FE0FEA3E0FFC39079
:101BCF00006AE09F900069E09E5045900070E0240D
:101BDF00FFF090006FE034FFF0C3900075E0648079
:101BEF0094805005900077801190006EE004F070A3
:101BFF000690006DE004F0900079E0FEA3E0FF9006
:101C0F000076E02FF0900075E03EF01231AD80A627
:011C1F0022A2
:1020A3009000A4EEF0A3EFF0A3ECF0A3EDF0A3EA0D
:0420B300F0A3EBF0BB
:1020B700E49000ADF0A3F09000A8E0FEA3E0FFD30A
:1020C7009000AEE09F9000ADE09E40030224BDE08B
:1020D700FCA3E0FDFFAE041215B5AA06AB079000FE
:1020E700A8E0FCA3E0FDFFAE041215B5C3EF9BFD0E
:1020F700EE9AFCE4121159122D4C1211929000AF76
:10210700EEF0A3EFF09000A8E0FEA3E0FF9000A59B
:10211700E02FFF9000A4E03EFE9000AEE02FFF907E
:1021270000ADE03EFE9000A8E0FCA3E0FD9000A714
:10213700E02DFD9000A6E03CFC9000B0E02DFD9066
:1021470000AFE03CFC9000AA1231BE9000A8E0FE70
:10215700A3E0FF9000A5E02FFF9000A4E03EFE90D3
:1021670000ADE0FCA3E0FDC3EF9DFFEE9CFE9000F9
:10217700A8E0FCA3E0FD9000A7E02DFD9000A6E0FD
:102187003CFC9000AFE0FAA3E0FBC3ED9BFDEC9AAB
:10219700FC9000AA1231BE9000A8E0FEA3E0FF90D9
:1021A70000A5E02FFF9000A4E03EFE9000AEE02FD8
:1021B700FF9000ADE03EFE9000A8E0FCA3E0FD909C
:1021C70000A7E02DFD9000A6E03CFC9000AFE0FAF0
:1021D700A3E0FBC3ED9BFDEC9AFC9000AA1231BE75
:1021E7009000A8E0FEA3E0FF9000A5E02FFF90007D
:1021F700A4E03EFE9000ADE0FCA3E0FDC3EF9DFF31
:10220700EE9CFE9000A8E0FCA3E0FD9000A7E02D67
:10221700FD9000A6E03CFC9000B0E02DFD9000AFE3
:10222700E03CFC9000AA1231BE9000A8E0FEA3E0BB
:10223700FF9000A5E02FFF9000A4E03EFE9000B0C5
:10224700E02FFF9000AFE03EFE9000A8E0FCA3E087
:10225700FD9000A7E02DFD9000A6E03CFC9000AEAD
:10226700E02DFD9000ADE03CFC9000AA1231BE903D
:1022770000A8E0FEA3E0FF9000A5E02FFF9000A4D8
:10228700E03EFE9000AFE0FCA3E0FDC3EF9DFFEE54
:102297009CFE9000A8E0FCA3E0FD9000A7E02DFDC8
:1022A7009000A6E03CFC9000ADE0FAA3E0FBC3ED94
:1022B7009BFDEC9AFC9000AA1231BE9000A8E0FEAC
:1022C700A3E0FF9000A5E02FFF9000A4E03EFE9062
:1022D70000B0E02FFF9000AFE03EFE9000A8E0FCCA
:1022E700A3E0FD9000A7E02DFD9000A6E03CFC9048
:1022F70000ADE0FAA3E0FBC3ED9BFDEC9AFC900078
:10230700AA1231BE9000A8E0FEA3E0FF9000A5E06E
:102317002FFF9000A4E03EFE9000AFE0FCA3E0FD9D
:10232700C3EF9DFFEE9CFE9000A8E0FCA3E0FD90AC
:1023370000A7E02DFD9000A6E03CFC9000AEE02D4C
:10234700FD9000ADE03CFC9000AA1231BE9000ACBD
:10235700E070030224A99000A8E0FEA3E0FF90002C
:10236700A5E02FFF9000A4E03EFE9000ADE0FCA3A7
:10237700E0FDC3EF9DFFEE9CFEC006C0079000A8DE
:10238700E0FEA3E0FF9000A7E02FFF9000A6E03E4D
:10239700FE9000AFE0FCA3E0FDC3EF9DFDEE9CFCCB
:1023A7009000A8E0FEA3E0FF9000A4E0FAA3E02FCE
:1023B700FFEA3EFE9000ADE0FAA3E0FBC3EF9BFB14
:1023C700EE9AFA9000A8E0FEA3E0FF9000A6E0F8DE
:1023D700A3E02FFFE83EFE9000AFE0F8A3E02FFF59
:1023E700E83E900069F0A3EFF09000AAE0FFA3E0B9
:1023F70090006BCFF0A3EFF0D007D00612174F90E5
:1024070000A8E0FEA3E0FF9000A5E02FFF9000A446
:10241700E03EFE9000AEE02FFF9000ADE03EFEC034
:1024270006C0079000A8E0FEA3E0FF9000A7E02FFA
:10243700FF9000A6E03EFE9000AFE0FCA3E0FDC3E6
:10244700EF9DFDEE9CFC9000A8E0FEA3E0FF90004E
:10245700A4E0FAA3E02FFFEA3EFE9000ADE0FAA366
:10246700E02FFBEA3EFA9000A8E0FEA3E0FF900011
:10247700A6E0F8A3E02FFFE83EFE9000AFE0F8A348
:10248700E02FFFE83E900069F0A3EFF09000AAE08C
:10249700FFA3E090006BCFF0A3EFF0D007D00612B8
:1024A700174F9000AEE004F060030220BE9000AD2D
:0624B700E004F00220BE6B
:0124BD0022FC
:10269D0090007BEEF0A3EFF0A3ECF0A3EDF0A3EA36
:0D26AD00F0A3EBF0900085E07003022755CC
:1026BA0090007FE0FCA3E0FD90007DE0FAA3E0FB40
:1026CA00900081E0FFA3E0900021CFF0A3EFF0900B
:1026DA00007BE0FEA3E0FF12307B90007DE0FFA3C9
:1026EA00E0900086CFF0A3EFF0900081E0FEA3E037
:1026FA00FFD3900087E09F900086E09E4003022867
:10270A002F90007BE0FFA3E0900088CFF0A3EFF0CA
:10271A0090007FE0FEA3E0FFD3900089E09F900045
:10272A0088E09E5016900083123374900089E0046A
:10273A00F070DD900088E004F080D5900087E00416
:0B274A00F070A6900086E004F0809E76
:1027550090007BE0FAA3E0FBFFAE02C007A3E0FC1C
:10276500A3E0FD900081E0FFA3E0900069CFF0A316
:10277500EFF0900083E0FFA3E090006BCFF0A3EFB4
:10278500F0D00712174F900081E0FCA3E0FD900008
:102795007FE0FAA3E0FBA3E0FFA3E0900069CFF0A0
:1027A500A3EFF0900083E0FFA3E090006BCFF0A3D0
:1027B500EFF090007BE0FEA3E0FF12174F90007F43
:1027C500E0FAA3E0FBFFAE02C007A3E0FCA3E0FD37
:1027D50090007DE0FFA3E0900069CFF0A3EFF090BB
:1027E5000083E0FFA3E090006BCFF0A3EFF0D007EC
:1027F50012174F90007DE0FCA3E0FD90007BE0FA0E
:10280500A3E0FBA3E0FFA3E0900069CFF0A3EFF006
:10281500900083E0FFA3E090006BCFF0A3EFF09072
:0B282500007FE0FEA3E0FF12174F222F
:10301F009000C0EAF0A3EBF09000BCEEF0A3EFF04D
:10302F00A3ECF0A3EDF0C006C007A3E0FEA3E0FF02
:10303F009000BCE0FAA3E02FFBEA3EFA9000BEE05E
:10304F00F8A3E02FFFE83E900081F0A3EFF090008F
:10305F00C2E0FFA3E0900083CFF0A3EFF09000C495
:0C306F00E0900085F0D007D00602269DFE
:1024BE00900049EEF0A3EFF0A3ECF0A3EDF0A3EA49
:0624CE00F0FCA3EBF0FDA1
:1024D400900049E0FAA3E0FFAE02C006C0072DFF5A
:1024E400EA3CCF24FFFDEF34FFFCA3E0FAA3E0FBBA
:1024F40090004FE0FEA3E0FF90004BE0F8A3E02F34
:10250400FFE83ECF24FFCF34FF900021F0A3EFF08B
:10251400D007D00612307BE4900055F0A3F0900071
:102524004FE0FCA3E0FD90004DE0FEA3E0FF121598
:10253400B5C3900056E09F900055E09E40030226EC
:102544009CA3E025E0FF900055E033FE900051E0AD
:10255400FBA3E0FAA3E0F98F828E831215DDFBAAB8
:10256400F0EA54F8FE7F00900054E0F9FD7C00127C
:1025740015B5E4FD9000571216FDEA5407FEEB541E
:10258400E0FFE9FD7C001215B5E4FD90005B121636
:10259400FD900056E025E0FF900055E033FE9000EA
:1025A40051E0FBA3E0FAA3E0F98F828E831215DDDC
:1025B4007E00541FFF900054E0FD7C001215B5E42A
:1025C400FD90005F1216FDE47B20FAF9F8900057A5
:1025D400E0FCA3E0FDA3E0FEA3E0FF121651E4FF3C
:1025E400EE54F8FEE4FDFC9000571216FDE47B2047
:1025F400FAF9F890005BE0FCA3E0FDA3E0FEA3E0A1
:10260400FF121651EF54E0FFEE5407FEE4FDFC9078
:10261400005B1216FDE47B20FAF9F890005FE0FC01
:10262400A3E0FDA3E0FEA3E0FF121651EF541FFF49
:10263400E4FEFDFC90005F1216FD90005FE0FCA339
:10264400E0FDA3E0FEA3E0FF900057E0F8A3E0F96B
:10265400A3E0FAA3E04FFFEA4EFEE94DFDE84CFC8F
:10266400A3E0F8A3E0F9A3E0FAA3E04FFFEA4EFEEB
:10267400E94DFDE84CFC9000571216FD900057A35D
:10268400A3123374900056E004F0600302252290F4
:082694000055E004F0022522CC
:01269C00221B
:04336F004100D390B6
:1033C100E4FEE4FDEDC39F50030D80F80EEEB4144E
:0133D100F10A
:0133D20022D8
:1031DD009000D1EFF0A3EDF01233899000D3E0FF12
:1031ED001232389000D1E0FF1232389000D2E07FD9
:0F31FD00001232389000D2E0FF1232380233EF66
:1032CE001233E11233899000D3E0FF1232387F01BE
:1032DE001232387F6A1232381233EFE4FFFEFDFCF1
:0132EE0022BD
:102FBC001233899000D3E0FF123238E4FF1232381A
:102FCC001233899000D3E004FF123238123286900B
:102FDC000019E4F0A3EFF0E0F8E4F0E8900019F049
:102FEC007F641233C112328690001AE02FF09000E9
:102FFC0019E03400F01233EF900019E0C4F854F0EB
:10300C00C868FEA3E0C4540F48FF900019EEF0A36B
:02301C00EFF0D3
:01301E00228F
:10104E00EC4D6011E8497017ED33EC3304600DE49C
:10105E00FCFFFEFD22E933E8330470F80211FE12A4
:10106E0011C958046009E4CC2481500628500902A5
:10107E001208284003021205C0E0EB4A7044B98002
:10108E0006D0E0FB0211F4EF4E701CBD8008EBFFA2
:10109E00EAFEE9FD80EBE98DF0A4FEE5F0021137E2
:1010AE00E9CDF9EAFEEBFFEF89F0A4FCE5F0CE897D
:1010BE00F0A42EFFE435F0CD89F0A42DFEE435F03A
:1010CE008067EF4E7005BD80D780C3EF8BF0A4AC68
:1010DE00F0EE8BF0A42CFCE435F0F8EF8AF0A42CA3
:1010EE00E5F038FCE433CB8DF0A42CFCE5F03BF8B6
:1010FE00EE8AF0A42CFCE5F038F8E433CF89F0A4A6
:10110E002CFCE5F038CF3400CE89F0A42FFFE5F0AB
:10111E003EFEE433C98DF0A42EFEE5F039CD8AF003
:10112E00A42FFFE5F03EFEE43DFD33D0E0FB50077B
:10113E000BBB000F021208EC2CFCEF33FFEE33FE5C
:06114E00ED33FD0211E08B
:1011540075F020800E75F010800575F0087D007E16
:10116400007F003392D530D5031216E3EC334010E0
:10117400EF33FFEE33FEED33FDEC33FCD5F0ED221F
:0E118400E5F0247EA2D513CC92E7CDCEFF225B
:10119200EDD2E7CD33EC3392D524814006E4FFFE55
:1011A200FDFC22FCE4CFCECDCC24E0501174FF80B4
:1011B200EDC3CC13CCCD13CDCE13CECF13CF047051
:0711C200F030D5DE0216E358
:101C2000E508241CF582E43400F583E005082290E1
:101C3000001930070390001CE475F0011217090227
:101C4000155D2000E97F2ED2008018EF540F2490FC
:101C5000D43440D4FF30040BEF24BFB41A00500337
:101C60002461FFE50960021509050CE50C70020509
:101C70000B30070E900019E475F001121709EF02FE
:101C800015A302325F7403D2078003E4C207F5088C
:101C9000900019121720E4F509F50BF50CE5096021
:101CA000077F20121C6380F5750AFFC201C200C2C3
:101CB00002C203C205C206C208121C2FFF700D30FB
:101CC00007057F00121C74AF0CAE0B22B4255FC257
:101CD000D5C204121C2FFF24D0B40A00501A75F08C
:101CE0000A780930D50508B6FF0106C6A426F620F5
:101CF000D5047002D20380D924CFB41A00EF500467
:101D0000C2E5D204021F66D20180C6D20080C0D2D2
:101D10000280BCD2D580BAD20580B47F20121C6369
:101D20002002077401B5090040F1121C20FF121CAB
:101D300063021C9DD208D2068095121C20FB121C47
:101D400020FA121C20F94A4B700679647A207BFF36
:101D500020022EE509602A7E008E8275830012150E
:101D60007660060EEE650A70F0C2D5EBC0E0EAC000
:101D7000E0E9C0E0EE121FC7D0E0F9D0E0FAD0E011
:101D8000FB12155DFF60AAEBC0E0EAC0E0E9C0E02D
:101D9000121C63D0E02401F9D0E03400FAD0E0FB5B
:101DA000E50A0460DCD50AD98087D20280A2121F1E
:101DB000A960F7E50A7001041213ABA90A600DE5EA
:101DC0000A600914F50A122051EF60F3EA30E702C5
:101DD000F404C3995079EAF4250A0430E701E404D5
:101DE000F50A800D121FA960C1EA050A250A12131F
:101DF000ABEA900048F030E701E4250A04D50A0474
:101E000020050114121FC7E4C0E0122051900048C1
:101E1000E0601320E70714F0121C4B802204F0D07E
:101E2000E014C0E07F00121C4BE50A6007121C4260
:101E3000150A800B300503121C42D0E0021C9DD015
:101E4000E00480C4121FA9609EE50A041213AB903F
:101E50000048EAF0E50A2005026001042404121F8C
:011E6000C7BA
:101E610074FF04C0E0122051121C4BE50A20050248
:101E71006003121C42D0E0B50AE87F45121C559060
:101E81000048E07F2B30E7047F2DF404C0E0121CF2
:101E910063D0E075F00A84C0F0121C4CD0E0121C33
:101EA1004C021C9D791080027908C206C208800884
:101EB100D2D5790A8004790AC2D5E50A047002F5FF
:101EC1000AE4FAFDFEFF121C20FC7B08200113121C
:101ED1001C20FD7B1030000A121C20FE121C20FF6A
:101EE1007B20EC3382D592D55013C3E43000069F9A
:101EF100FFE49EFEE42001039DFDE49CFCE4CBF89D
:101F0100C201EC700CCFCECDCCE824F8F870F38090
:101F110017C3EF33FFEE33FEED33FDEC33FCEB3350
:101F2100FB994002FB0FD8E9EB300105F8D0E0C482
:101F310048B201C0E00AEC4D4E4F78207B0070C2E0
:101F4100EAB50A0040BCC0E0121FC9D0F0D0E020C1
:101F51000104C4C0E0C4B201C0F0121C4CD0F0D5E1
:101F6100F0EB021C9D1217291D3A531EA5581D0B9B
:101F71004C1D07421EA94F1EB1441EB1491D2043ED
:101F81001EB7551DE4461E44451DAE472084501D15
:101F91000F2D1D132E1D362B1D17231D3420206DD3
:101FA1002A1CCF4800001D2EE50AB4FF03750A065E
:101FB100121C20FC121C20FD121C20FE121C20FFF2
:101FC1009000410213E8790AA2D5200314300509D3
:101FD100B910020404B9080104A2D5200602500177
:101FE100042002689202B509005034C0E07F20301D
:101FF10003197F30A20272067205500F122020C20F
:1020010002C206C205C2087F30800F300503E9C055
:10201100E0121C63300503D0E0F9D0E0B509CC3003
:1020210005177F30B9100C121C637F583004077FED
:10203100788003B90803121C633002057F2D021C4E
:10204100637F202008F87F2B2006F322920280CFA5
:102051007F00B40700500B2441F582E43400F5837E
:10206100E0FF22286E756C6C2900D201121C203011
:1020710001F8C201780930D50108F6021CCF2D50B4
:10208100434958121C202403B405004001E4902068
:102091007F93121C54743A121C54D2037509040222
:0220A1001EA57A
:102D48000211FE22EDA2E7D2E7F9EC3340F260F37C
:102D5800B4FF08ED547F70E8021208F82481C2E03D
:102D6800C0E0F40428FAC313FCED92E7FD9000CB11
:102D78001216FDEEA2E7E9BA7F02C31334009400ED
:102D8800FA75F091A4E5F013F494FE8AF0A433E503
:102D9800F033248CD313FDE492E7FE7F007C3F756B
:102DA8008302ECC0E0F8EDC0E0F9EEC0E0FAEFC055
:102DB800E0FB8583F09000CB1216F185F0831213A7
:102DC8000ED0E0FBD0E0FAD0E0F9D0E0F812121A09
:102DD800ED6480FD30E7011CD583C7ED33CC33F8B3
:0C2DE800D0E0A2E71328C313CC13FD2297
:1011C900E9D2E7C933E833F892D5EDD2E7CD33EC6C
:0711D90033FC5002B2D522E5
:1011E000EC30E7100FBF000C0EBE00080DBD000470
:1011F0000BEB6014A2D5EB13FCED92E7FD2274FF1C
:10120000FCFDFEFF22E480F8A2D574FF13FC7D8074
:03121000E480EF88
:101213000211FEE86480F8E933E83360110460F0FA
:10122300ED33EC337009E8FCE9FDEAFEEBFF220441
:1012330060DED3EB9FEA9EE99DE8C2E78CF0C2F73C
:1012430095F0400CE8CCF8E9CDF9EACEFAEBCFFB08
:101253001211C985D0F05804700320D5B3E8047087
:10126300075002B2D502120892D5EC0460F7E4CC21
:10127300C0E0C398F8603B94186008400DD0E0FBD1
:101283000211E0E4FBFAC9FC8028E830E406E4C973
:10129300FBE4CAFCE830E305E4C9CACBFCE8540725
:1012A3006010F8C3E913F9EA13FAEB13FBEC13FC30
:1012B300D8F130F52FC3E49CFCEF9BFFEE9AFEEDD3
:1012C30099FDD0E0FBEF4E4D4C701222DB0302126E
:1012D30005EC2CFCEF33FFEE33FEED33FDED30E791
:1012E300EB0211E0EF2BFFEE3AFEED39FDD0E0FB10
:1012F30050130BBB0003021208ED13FDEE13FEEFB8
:0813030013FFEC13FC0211E0E2
:10130B00021208EC5D046005E8590470030211FE3B
:10131B001211C9580460F6EC4860F2EC7004FDFE43
:10132B00FF22C860DB2481C85009C39860025006B5
:10133B000212059850CAF582E9294B4A7005AB8217
:10134B000211F475F0007C1A7880C3EF9BEE9AEDD6
:10135B0099400DC3EF9BFFEE9AFEED99FDE842F02D
:10136B00DC23ACF0D0E0FFD0E0FED0E0FDAB822080
:10137B00E7101BEB60BAEC2CFCEF33FFEE33FEED0A
:10138B0033FD0211E0E803F830E705C0F075F0001B
:10139B00EF2FFFEE33FEED33FD40B830E7C280AAEE
:1013AB00F920E73624F950037907E4F42402FBE52E
:1013BB0082158270021583DBF6E024FB501BE9607B
:1013CB0014E4F0E582158270021583E004F0B40A90
:0D13DB0008E4F0D9EE7401F00A22C2D52218
:1013E800ED33EC3392D5FA602AB4FF33EDC2E77BD4
:1013F800FF60067A14790DE4227A14791620D50450
:101408007A147911224E614E002B494E46002D491F
:101418004E4600E47A08F0A3DAFC7B00740722C089
:1014280083C082ECC0E0EDC0E0EEC0E0EFC0E0EACF
:1014380075F010A4CAABF075F04DA42BFBE435F0A1
:10144800FCEA2410FAEB34C5FBEC34D9FCEDC2E716
:10145800FF75F056A4F42411C5F0F434C58FF0A438
:101468002AE5F03BE43CF020E71412151DD0E0FF1C
:10147800D0E0FED0E0FDD0E0FC12130E8014F4049E
:1014880012151DD0E0FFD0E0FED0E0FDD0E0FC1248
:10149800104ED082D083E0FAEDD2E7CD33EC33247E
:1014A80082FBE4C3CF33CFCE33CECD33CD33DBF3A2
:1014B8007B0775F00A846004F0A31B0AE5F0F0A32B
:1014C8008FF0740AA4FFACF08EF0740AA42CFEAC62
:1014D800F050010C8DF0740AA42CFDE435F0F0A353
:0514E800DBDE740722A9
:1014ED003F8000004120000042C80000447A000007
:1014FD00461C400047C35000497424004B18968089
:10150D004CBEBC205A0E1BCA6753C21C749DC5AE7F
:10151D00FB60065407601C232312154BEB543860F7
:10152D000912153712154612104EECF8EDF9EEFAB8
:10153D00EFCB22EB12154680F1543803241C901486
:10154D00EDFE93FC0EEE93FD0EEE930ECE93FF2269
:03000000022F309C
:0C2F3000787FE4F6D8FD758121022F7730
:10155D00BB010689828A83E0225002E722BBFE028C
:09156D00E32289828A83E49322BF
:10157600BB010CE58229F582E5833AF583E022502A
:1015860006E92582F8E622BBFE06E92582F8E22274
:0D159600E58229F582E5833AF583E493228E
:1015A300BB010689828A83F0225002F722BBFE0127
:0215B300F32221
:1015B500EF8DF0A4A8F0CF8CF0A428CE8DF0A42E4A
:0215C500FE2204
:1015C700C5F0F8A3E028F0C5F0F8E58215827002AF
:0615D7001583E038F0224C
:1015DD00BB0110E58229F582E5833AF583E0F5F04C
:1015ED00A3E0225009E92582F886F008E622BBFE29
:1015FD000AE92582F8E2F5F008E222E5832AF5836F
:08160D00E993F5F0A3E9932233
:1016150075F008758200EF2FFFEE33FECD33CDCC8C
:1016250033CCC58233C5829BED9AEC99E58298400F
:101635000CF582EE9BFEED9AFDEC99FC0FD5F0D6EC
:10164500E4CEFBE4CDFAE4CCF9A88222B800C1B916
:101655000059BA002DEC8BF084CFCECDFCE5F0CB54
:10166500F97818EF2FFFEE33FEED33FDEC33FCEB8D
:1016750033FB10D703994004EB99FB0FD8E5E4F948
:10168500FA227818EF2FFFEE33FEED33FDEC33FC35
:10169500C933C910D7059BE99A4007EC9BFCE99A29
:1016A500F90FD8E0E4C9FAE4CCFB2275F010EF2F6E
:1016B500FFEE33FEED33FDCC33CCC833C810D7076E
:1016C5009BEC9AE899400AED9BFDEC9AFCE899F8A9
:0E16D5000FD5F0DAE4CDFBE4CCFAE4C8F9223C
:0E16E300C3E49FFFE49EFEE49DFDE49CFC2218
:0C16F100E0FCA3E0FDA3E0FEA3E0FF226C
:0C16FD00ECF0A3EDF0A3EEF0A3EFF02260
:10170900F8E0FBA3A3E0F925F0F0E5821582700269
:071719001583E0FA38F0220D
:09172000EBF0A3EAF0A3E9F022CA
:10172900D083D082F8E4937012740193700DA3A34F
:1017390093F8740193F5828883E473740293686063
:06174900EFA3A3A380DF63
:10325F00EFB40A07740D12326A740A309811A899E4
:10326F00B8130CC2983098FDA899C298B811F630CF
:07327F0099FDC299F59922A7
:102F3C000229A8E493A3F8E493A34003F68001F2DA
:102F4C0008DFF48029E493A3F85407240CC8C33396
:102F5C00C4540F4420C8834004F456800146F6DF65
:102F6C00E4800B010204081020408090335FE47E63
:102F7C00019360BCA3FF543F30E509541FFEE4935A
:102F8C00A360010ECF54C025E060A840B8E493A321
:102F9C00FAE493A3F8E493A3C8C582C8CAC583CA4C
:102FAC00F0A3C8C582C8CAC583CADFE9DEE780BE04
:013373000059
:00000001FF
