:1032AD005468652074656D707261747572652069FE
:0832BD0073203A252E32660051
:102E610012310C74FFFFFE123038123218122ED4B8
:102E7100AC06AD07E412110EE4FBFA7980783D123D
:102E8100100390004A1216B290000374FFF0A3746D
:102E910032F0A374ADF090004AE0FCA3E0FDA3E0A2
:102EA100FEA3E0FF9000061216B27B017A00794E74
:102EB100121C3A7B017A00794EE4900007F0A3F0EE
:102EC10074FFA3F0A3F07D6E7C007F467E00122C80
:032ED10099809A4B
:1000030000000000000000000000000000000000ED
:1000130000007E81A58181BD9981817E0000000061
:1000230000007EFFDBFFFFC3E7FFFF7E0000000051
:10003300000000006CFEFEFEFE7C38100000000095
:100043000000000010387CFE7C3810000000000027
:10005300000000183C3CE7E7E718183C00000000EC
:10006300000000183C7EFFFF7E18183C00000000D3
:10007300000000000000183C3C18000000000000D5
:10008300FFFFFFFFFFFFE7C3C3E7FFFFFFFFFFFF25
:1000930000000000003C664242663C000000000095
:1000A300FFFFFFFFFFC399BDBD99C3FFFFFFFFFF25
:1000B30000001E0E1A3278CCCCCCCC7800000000A5
:1000C30000003C666666663C187E18180000000057
:1000D30000003F333F3030303070F0E0000000006C
:1000E30000007F637F6363636367E7E6C00000002C
:1000F3000000001818DB3CE73CDB18180000000088
:100103000080C0E0F0F8FEF8F0E0C08000000000DE
:100113000002060E1E3EFE3E1E0E060200000000FA
:100123000000183C7E1818187E3C180000000000E0
:100133000000666666666666660066660000000026
:1001430000007FDBDBDB7B1B1B1B1B1B000000009A
:10015300007CC660386CC6C66C380CC67C000000D8
:100163000000000000000000FEFEFEFE0000000094
:100173000000183C7E1818187E3C187E0000000012
:100183000000183C7E1818181818181800000000F2
:100193000000181818181818187E3C1800000000E2
:1001A3000000000000180CFE0C1800000000000006
:1001B30000000000003060FE60300000000000001E
:1001C300000000000000C0C0C0FE000000000000EE
:1001D3000000000000286CFE6C28000000000000F6
:1001E300000000001038387C7CFEFE000000000098
:1001F30000000000FEFE7C7C383810000000000088
:1002030000000000000000000000000000000000EB
:100213000000183C3C3C1818180018180000000097
:100223000066666624000000000000000000000075
:100233000000006C6CFE6C6C6CFE6C6C00000000CB
:1002430018187CC6C2C07C060686C67C1818000037
:1002530000000000C2C60C183060C6860000000013
:100263000000386C6C3876DCCCCCCC760000000017
:10027300003030306000000000000000000000008B
:1002830000000C18303030303030180C0000000003
:10029300000030180C0C0C0C0C0C18300000000083
:1002A3000000000000663CFF3C6600000000000008
:1002B300000000000018187E18180000000000005D
:1002C30000000000000000000018181830000000B3
:1002D30000000000000000FE00000000000000001D
:1002E30000000000000000000000181800000000DB
:1002F3000000000002060C183060C08000000000FF
:100303000000386CC6C6D6D6C6C66C3800000000DE
:1003130000001838781818181818187E0000000004
:1003230000007CC6060C183060C0C6FE000000004A
:1003330000007CC606063C060606C67C00000000DC
:1003430000000C1C3C6CCCFE0C0C0C1E00000000CE
:100353000000FEC0C0C0FC060606C67C000000000C
:1003630000003860C0C0FCC6C6C6C67C00000000E2
:100373000000FEC606060C183030303000000000C6
:1003830000007CC6C6C67CC6C6C6C67C000000008C
:1003930000007CC6C6C67E0606060C780000000078
:1003A30000000000181800000018180000000000EA
:1003B30000000000181800000018183000000000AA
:1003C300000000060C18306030180C060000000016
:1003D30000000000007E00007E000000000000001E
:1003E3000000006030180C060C183060000000009C
:1003F30000007CC6C60C181818001818000000006E
:100403000000007CC6C6DEDEDEDCC07C000000002F
:10041300000010386CC6C6FEC6C6C6C60000000083
:100423000000FC6666667C66666666FC000000008B
:1004330000003C66C2C0C0C0C0C2663C00000000F1
:100443000000F86C6666666666666CF8000000007D
:100453000000FE6662687868606266FE0000000065
:100463000000FE6662687868606060F0000000006B
:1004730000003C66C2C0C0DEC6C6663A000000008B
:100483000000C6C6C6C6FEC6C6C6C6C60000000075
:1004930000003C18181818181818183C0000000021
:1004A30000001E0C0C0C0C0CCCCCCC780000000013
:1004B3000000E666666C78786C6666E6000000000D
:1004C3000000F06060606060606266FE0000000033
:1004D3000000C6EEFEFED6C6C6C6C6C600000000B5
:1004E3000000C6E6F6FEDECEC6C6C6C600000000A5
:1004F30000007CC6C6C6C6C6C6C6C67C00000000D1
:100503000000FC6666667C60606060F000000000CE
:1005130000007CC6C6C6C6C6C6D6DE7C0C0E00006E
:100523000000FC6666667C6C666666E6000000009A
:1005330000007CC6C660380C06C6C67C00000000FE
:1005430000007E7E5A1818181818183C0000000086
:100553000000C6C6C6C6C6C6C6C6C67C0000000026
:100563000000C6C6C6C6C6C6C66C3810000000006A
:100573000000C6C6C6C6D6D6D6FEEE6C0000000086
:100583000000C6C66C7C38387C6CC6C60000000010
:100593000000666666663C181818183C00000000E8
:1005A3000000FEC6860C183060C2C6FE00000000C4
:1005B30000003C30303030303030303C0000000040
:1005C30000000080C0E070381C0E0602000000002E
:1005D30000003C0C0C0C0C0C0C0C0C3C0000000040
:1005E30010386CC60000000000000000000000008E
:1005F30000000000000000000000000000FF0000F9
:10060300303018000000000000000000000000006F
:100613000000000000780C7CCCCCCC7600000000FD
:100623000000E06060786C666666667C000000002F
:1006330000000000007CC6C0C0C0C67C00000000F3
:1006430000001C0C0C3C6CCCCCCCCC760000000025
:1006530000000000007CC6FEC0C0C67C0000000095
:100663000000386C6460F060606060F000000000BF
:10067300000000000076CCCCCCCCCC7C0CCC780039
:100683000000E060606C7666666666E60000000067
:1006930000001818003818181818183C000000003B
:1006A30000000606000E06060606060666663C0001
:1006B3000000E06060666C78786C66E6000000001D
:1006C30000003818181818181818183C00000000F3
:1006D3000000000000ECFED6D6D6D6C6000000000F
:1006E3000000000000DC66666666666600000000C7
:1006F30000000000007CC6C6C6C6C67C0000000021
:100703000000000000DC66666666667C6060F000E0
:10071300000000000076CCCCCCCCCC7C0C0C1E00B2
:100723000000000000DC7666606060F000000000FE
:1007330000000000007CC660380CC67C000000008E
:100743000000103030FC30303030361C0000000028
:100753000000000000CCCCCCCCCCCC760000000058
:10076300000000000066666666663C180000000034
:100773000000000000C6C6D6D6D6FE6C00000000FE
:100783000000000000C66C3838386CC6000000005A
:100793000000000000C6C6C6C6C6C67E060CF8002A
:1007A3000000000000FECC183060C6FE0000000010
:1007B30000000E18181870181818180E0000000002
:1007C300000018181818001818181818000000004E
:1007D3000000701818180E18181818700000000080
:1007E300000076DC000000000000000000000000B4
:1007F3000000000010386CC6C6C6FE0000000000F2
:1008030000003C66C2C0C0C0C2663C0C067C00004F
:100813000000CC0000CCCCCCCCCCCC7600000000CB
:10082300000C1830007CC6FEC0C0C67C000000006F
:100833000010386C00780C7CCCCCCC760000000027
:100843000000CC0000780C7CCCCCCC7600000000FF
:100853000060301800780C7CCCCCCC760000000013
:1008630000386C3800780C7CCCCCCC7600000000CF
:10087300000000003C666060663C0C063C00000023
:100883000010386C007CC6FEC0C0C67C00000000AF
:100893000000C600007CC6FEC0C0C67C000000008D
:1008A30000603018007CC6FEC0C0C67C000000009B
:1008B30000006600003818181818183C00000000E3
:1008C30000183C66003818181818183C000000007F
:1008D30000603018003818181818183C0000000081
:1008E30000C60010386CC6C6FEC6C6C600000000AF
:1008F300386C3800386CC6C6FEC6C6C60000000099
:1009030018306000FE66607C606066FE00000000D8
:100913000000000000CC76367ED8D86E00000000C0
:1009230000003E6CCCCCFECCCCCCCCCE0000000086
:100933000010386C007CC6C6C6C6C67C000000002A
:100943000000C600007CC6C6C6C6C67C0000000008
:1009530000603018007CC6C6C6C6C67C0000000016
:10096300003078CC00CCCCCCCCCCCC7600000000D2
:100973000060301800CCCCCCCCCCCC76000000008E
:100983000000C60000C6C6C6C6C6C67E060C7800F2
:1009930000C6007CC6C6C6C6C6C6C67C000000002C
:1009A30000C600C6C6C6C6C6C6C6C67C00000000D2
:1009B3000018183C66606060663C18180000000070
:1009C30000386C6460F060606060E6FC000000006A
:1009D300000066663C187E187E1818180000000098
:1009E30000F8CCCCF8C4CCDECCCCCCC600000000E4
:1009F300000E1B1818187E1818181818D870000045
:100A03000018306000780C7CCCCCCC760000000061
:100A1300000C1830003818181818183C0000000093
:100A230000183060007CC6C6C6C6C67C0000000045
:100A33000018306000CCCCCCCCCCCC7600000000CD
:100A4300000076DC00DC6666666666660000000011
:100A530076DC00C6E6F6FEDECEC6C6C600000000A3
:100A6300003C6C6C3E007E000000000000000000B3
:100A730000386C6C38007C000000000000000000AF
:100A83000000303000303060C0C6C67C000000007B
:100A9300000000000000FEC0C0C0C0000000000055
:100AA300000000000000FE0606060600000000002D
:100AB30000C0C0C2C6CC183060DC860C183E0000F3
:100AC30000C0C0C2C6CC183066CE9E3E06060000EB
:100AD30000001818001818183C3C3C1800000000CF
:100AE3000000000000366CD86C36000000000000E7
:100AF3000000000000D86C366CD800000000000035
:100B0300114411441144114411441144114411443A
:100B130055AA55AA55AA55AA55AA55AA55AA55AADA
:100B2300DD77DD77DD77DD77DD77DD77DD77DD7722
:100B33001818181818181818181818181818181832
:100B430018181818181818F8181818181818181842
:100B53001818181818F818F8181818181818181852
:100B630036363636363636F6363636363636363662
:100B730000000000000000FE3636363636363636C4
:100B83000000000000F818F818181818181818189A
:100B93003636363636F606F63636363636363636A2
:100BA30036363636363636363636363636363636E2
:100BB3000000000000FE06F6363636363636363688
:100BC3003636363636F606FE00000000000000001A
:100BD30036363636363636FE00000000000000009A
:100BE3001818181818F818F8000000000000000082
:100BF30000000000000000F818181818181818183A
:100C0300181818181818181F00000000000000001A
:100C130018181818181818FF00000000000000002A
:100C230000000000000000FF181818181818181802
:100C3300181818181818181F18181818181818182A
:100C430000000000000000FF0000000000000000A2
:100C530018181818181818FF18181818181818182A
:100C630018181818181F181F1818181818181818F3
:100C73003636363636363637363636363636363610
:100C8300363636363637303F0000000000000000AD
:100C930000000000003F30373636363636363636FB
:100CA3003636363636F700FF00000000000000003D
:100CB3000000000000FF00F736363636363636368B
:100CC30036363636363730373636363636363636C5
:100CD3000000000000FF00FF000000000000000013
:100CE3003636363636F700F7363636363636363655
:100CF3001818181818FF00FF00000000000000007B
:100D030036363636363636FF000000000000000067
:100D13000000000000FF00FF181818181818181812
:100D230000000000000000FF363636363636363611
:100D3300363636363636363F0000000000000000F7
:100D430018181818181F181F0000000000000000D2
:100D530000000000001F181F18181818181818187A
:100D6300000000000000003F363636363636363691
:100D730036363636363636FF363636363636363647
:100D83001818181818FF18FF181818181818181812
:100D930018181818181818F80000000000000000B0
:100DA300000000000000001F181818181818181861
:100DB300FFFFFFFFFFFFFFFFFFFFFFFFFFFFFFFF40
:100DC30000000000000000FFFFFFFFFFFFFFFFFF29
:100DD300F0F0F0F0F0F0F0F0F0F0F0F0F0F0F0F010
:100DE3000F0F0F0F0F0F0F0F0F0F0F0F0F0F0F0F10
:100DF300FFFFFFFFFFFFFF000000000000000000F7
:100E0300000000000076DCD8D8D8DC7600000000B3
:100E1300000078CCCCCCD8CCC6C6C6CC0000000031
:100E23000000FEC6C6C0C0C0C0C0C0C000000000F5
:100E330000000000FE6C6C6C6C6C6C6C00000000BD
:100E4300000000FEC66030183060C6FE00000000DF
:100E530000000000007ED8D8D8D8D8700000000069
:100E63000000000066666666667C6060C000000085
:100E73000000000076DC181818181818000000008D
:100E83000000007E183C6666663C187E0000000089
:100E9300000000386CC6C6FEC6C66C3800000000F1
:100EA3000000386CC6C6C66C6C6C6CEE00000000AB
:100EB30000001E30180C3E666666663C00000000AB
:100EC30000000000007EDBDBDB7E00000000000092
:100ED30000000003067EDBDBF37E60C00000000041
:100EE30000001C3060607C606060301C000000000B
:100EF3000000007CC6C6C6C6C6C6C6C60000000043
:100F030000000000FE0000FE0000FE0000000000E4
:100F13000000000018187E18180000FF00000000F1
:100F230000000030180C060C1830007E0000000092
:100F33000000000C18306030180C007E0000000028
:100F430000000E1B1B181818181818181818181852
:100F53001818181818181818D8D8D87000000000D6
:100F6300000000001818007E0018180000000000A0
:100F7300000000000076DC0076DC000000000000CA
:100F830000386C6C38000000000000000000000016
:100F9300000000000000001818000000000000001E
:100FA3000000000000000000180000000000000026
:100FB300000F0C0C0C0C0CEC6C6C3C1C00000000C7
:100FC30000D86C6C6C6C6C0000000000000000002A
:100FD3000070D83060C8F800000000000000000076
:100FE300000000007C7C7C7C7C7C7C00000000009A
:100FF30000000000000000000000000000000000EE
:1031F6007F20123208C374F09DFFE49CFE1232E277
:023206007F2126
:10320800C2B4C2B58F8075A000C2B6D2B6D2B422FD
:0532DD00E0FEA3E0FF8C
:1032E200C2B4D2B58F80EEF5A0C2B6D2B6D2B422A5
:103292007580FF75A0FFC2B4D2B5C2B77F00AD8002
:0A32A200EF2DFFE433FED2B7D2B4E3
:0132AC0022FF
:08330600900002E0FCA3E0FDD1
:0A330E00123208AE04AF050232E2ED
:10323900E4FDFCC3ED9FEC9E5015E4FBFA0BBB00CB
:0F324900010AEB64C84A70F50DBD00010C80E46A
:013258002253
:1027E5007FF47E011232397D007C017F0112330EA8
:1027F5007C077F0212330E7D287C107F0312330E77
:10280500E4FDFC7F0412330E7D077C027F08123342
:102815000EE4FDFC7F0912330E7F0A12330E7F0C86
:1028250012330E7F0D12330E7F0F12330E7F1012EF
:10283500330E7D077F1112330EE4FD7F1212330E26
:102845007F1312330E7D907C127F1012330E7D277D
:102855007C027F1112330E7D1D7C007F1212330E18
:102865007D007C157F1312330E7D187C007F2912A5
:10287500330E7D0D7F2B12330E7D047F3012330E08
:102885007D077C037F3112330E7D027C007F32127F
:10289500330E7D067C027F3512330E7D087C047F66
:1028A5003612330E1D0C7F3712330E7D047C027FEA
:1028B5003812330E7407FDFC7F3912330E7D057C0B
:1028C500047F3C12330E7D027C0F7F3D12330EE4F4
:1028D500FDFC7F5012330E7DEF7F5112330EE4FD68
:1028E5007F5212330E7D3F0C7F5312330E7D007CD9
:1028F500A77F6012330E0D7C007F6112330E1D7FA2
:102905006A12330E7F8012330E7F8112330E7F825F
:1029150012330E7F8312330E7F8412330E7F85129E
:10292500330E7D107F9012330E7D007C067F921250
:10293500330E7D037C007F9312330E7D100C7F9543
:1029450012330EE4FD1C7F9712330E7F9812330E5F
:082955007D330C7F0702330EF5
:102F9300900002EEF0A3EFF0A3ECF0A3EDF09000AD
:102FA30008E0FEA3E0FFC374F09FFDE49EFC7F50A6
:102FB30012330EC374F09BFDE49AFC7F5112330E5F
:102FC3007F52123306A3E0FCA3E0FD7F5312330EBE
:102FD300C374F09BFDE49AFC7F2012330E7F211211
:072FE30033067F22023208D1
:08303800900000EEF0A3EFF0A0
:10304000900008E4F0A374F0F0E4FBFA7D407C010A
:10305000FFFE122F93E4FDFCE4FBFA900000123215
:10306000DD0BBB00010AEB64F14A70EF0DBD0001FE
:073070000CBC01E4BD42E1CC
:013077002236
:10310C007594FFE4F5937596FFF595D2B4C2907F54
:10311C00C8FE123239D2907FFA1232391227E57F6B
:0C312C002C7E01123239E4FF1E02303804
:042FEA00AD07AC067D
:102FEE00ED541FFF9000C3E4F0A3EFF0ED7805CE93
:102FFE00C313CE13D8F9543FFB7A00EC13131354BA
:10300E001FFD7C007E00EB7805C333CE33CED8F99E
:10301E00FBAA069000C4E033333354F8FEE42BFFD2
:09302E00EE3AFEEF2DFFEE3CFE30
:013037002276
:04325900AB07AA060F
:10325D001231F6AE02AF031232E27F2212320812A1
:08326D003292123292122FEA94
:013275002236
:102D3A009000B9EEF0A3EFF0A3ECF0A3EDF0A3EA54
:042D4A00F0A3EBF017
:102D4E009000B9E0FCA3E0FFAE04C006C00724016A
:102D5E00FDE43CFCA3E0FAA3E0FB9000BBE0FEA385
:102D6E00E02401FFE43E900008F0A3EFF0D007D07E
:102D7E0006122F939000BBE0FEA3E0FDAC06900080
:102D8E00BCE02401FF9000BBE03400FED3ED9FECCD
:102D9E009E50339000B9E0FEA3E0FBAA069000BA65
:102DAE00E02401FF9000B9E03400FED3EB9FEA9ED1
:102DBE00500D9000BD1232DD0BBB00010A80DE0DFE
:062DCE00BD00010C80B8FD
:012DD40022DC
:1030AD0090006CE0FEA3E0FFA3E0FCA3E0FD900028
:0630BD006AE0FAA3E0FB4B
:1030C3008F828E831231F6AE83AF821232E27F2279
:0A30D300123208AE02AF030232E22F
:10295D0090000CEEF0A3EFF0A3ECF0A3EDF0A903C3
:10296D00E4900015F0A3F0900015E0FCA3E0FDC38A
:0A297D009410EC94004003022A5469
:10298700E9FF3395E0FEEFC4F8540FC868FFEEC4C3
:1029970054F048FEED2FFFEC3EFE74032FF58274D2
:1029A700003EF583E493900019F0E4900017F0A33C
:1029B700F0900017E0FEA3E0FFC39408EE940050E8
:1029C7007BA3E030E72590000CE0FCA3E0FDEF2DB2
:1029D700FFEE3CFEA3E0FCA3E0FD900016E02DFD1A
:1029E700900015E03CFC9000118036900013E070D9
:1029F70003A3E0F4602E90000CE0FEA3E0FF90003C
:102A070018E02FFF900017E03EFE90000EE0FCA3B9
:102A1700E0FD900016E02DFD900015E03CFC9000D5
:102A2700131230BE900019E025E0F0900018E00482
:0C2A3700F07006900017E004F00229B8CF
:102A4300900016E004F07006900015E004F00229EF
:012A5300740E
:012A5400225F
:102C9900900000EEF0A3EFF0A3ECF0A3EDF0A3EBAE
:072CA900F0A3EAF0A3E9F03B
:102CB000E490000BF0900004E0FBA3E0FAA3E0F93D
:102CC000121512FF60733395E0FEC3EF9480EE643B
:102CD00080948050E090000BE0FF3395E0FEEF78A9
:102CE00003C333CE33CED8F9FF900001E02FFF901D
:102CF0000000E03EFEC007900002E0FCA3E0FD12F1
:102D00001512FB900007E0FFA3E0900011CFF0A3A5
:102D1000EFF0900009E0FFA3E0900013CFF0A3EFE5
:102D2000F0D00712295D90000BE004F0900005E45C
:092D300075F00112157C022CB5AE
:012D39002277
:102B3800900089EEF0A3EFF0A3ECF0A3EDF0A3EA88
:062B4800F0FCA3EBF0FD20
:102B4E00900089E0FAA3E0FFAE02C006C0072DFF99
:102B5E00EA3CCF24FFFDEF34FFFCA3E0FAA3E0FB39
:102B6E0090008FE0FEA3E0FF90008BE0F8A3E02F33
:102B7E00FFE83ECF24FFCF34FF900008F0A3EFF024
:102B8E00D007D006122F93E4900094F0A3F090009B
:102B9E008FE0FCA3E0FD90008DE0FEA3E0FF121598
:102BAE006A900094E0FCA3E0FDC39FEC9E502FEDD5
:102BBE0025E0FFEC33FE900091E0FBA3E0FAA3E0EA
:102BCE00F98F828E83121592FFAEF01232E29000D0
:0E2BDE0095E004F070B8900094E004F080B030
:012BEC0022C6
:102A5500900096EEF0A3EFF0A3ECF0A3EDF0A3EA5F
:062A6500F0FCA3EBF0FD04
:102A6B00900096E0FAA3E0FFAE02C006C0072DFF70
:102A7B00EA3CCF24FFFDEF34FFFCA3E0FAA3E0FB1D
:102A8B0090009CE0FEA3E0FF900098E0F8A3E02FFD
:102A9B00FFE83ECF24FFCF34FF900008F0A3EFF008
:102AAB00D007D006122F93E49000A1F0A3F0900072
:102ABB009CE0FCA3E0FD90009AE0FEA3E0FF121562
:102ACB006AC39000A2E09F9000A1E09E505E900030
:102ADB009EE0FBA3E0FAA3E0F9A3E0FEA3E0F582FE
:102AEB008E8312152BFD543875F040A4FBED54E08A
:102AFB0045F0FCEBFD90009EE0FBA3A3A3E0FEA33F
:102B0B00E0F5828E8312152B540375F008A4FFECAD
:102B1B0045F0FEED4FFDAC06FF1232E29000A2E055
:0C2B2B0004F0708A9000A1E004F08082A9
:012B3700227B
:10170400900062EEF0A3EFF0900066EAF0A3EBF035
:08171400900064ECF0A3EDF07D
:10171C00900068E06C7003A3E06D7057900066E079
:10172C00FEA3E0FF900062E0FCA3E0FDD39FEC9EE3
:10173C0090006C50028008EEF0A3EFF0900066EC85
:10174C00F0A3EDF0900066E0FCA3E0FD90006CE0EF
:10175C00FEA3E0FFD39DEE9C4003021BD4900064DB
:10176C001230B690006DE004F070D990006CE0047B
:10177C00F080D1900068E0FEA3E0FF900064E0FCF4
:10178C00A3E0FDD39FEC9E4006ED9FFFEC801390F1
:10179C000064E0FEA3E0FFC3900069E09FFF9000AF
:1017AC0068E09E900072F0A3EFF0900066E0FEA35C
:1017BC00E0FF900062E06E7003A3E06F705C90003D
:1017CC0068E0FEA3E0FF900064E0FCA3E0FDD39F83
:1017DC00EC9E90006E50028008EEF0A3EFF09000AB
:1017EC0068ECF0A3EDF0900068E0FEA3E0FF900041
:1017FC006EE0FCA3E0FDD39FEC9E4003021BD49053
:10180C000062E0FEA3E0FF1230BB90006FE004F03A
:10181C0070D490006EE004F080CC900066E0FEA3E3
:10182C00E0FF900062E0FCA3E0FDD39FEC9E403D06
:10183C00900066E0FAA3E0FBED9BFEEC9A90007042
:10184C00F0A3CEF090006CEAF0A3EBF0900066EC05
:10185C00F0A3EDF0A3E0FFA3E090006ECFF0A3EFB8
:10186C00F0900064E0FFA3E0900068802D9000628F
:10187C00E0FAA3E0FBC3900067E09BFE900066E0FB
:10188C009A900070F0A3CEF090006CEAF0A3EBF00D
:10189C00900064E0FFA3E090006ECFF0A3EFF09017
:1018AC000072E0FEA3E0FF900070E06E7003A3E016
:1018BC006F705A900066E0FEA3E0FFD390006DE0DD
:1018CC009F90006CE09E4003021BD4A3E004F070D8
:1018DC000690006CE004F0900068E0FEA3E0FFD3FB
:1018EC0090006FE09F90006EE09E400EA3E024FFFE
:1018FC00F090006EE034FFF0800E90006FE004F08A
:10190C00700690006EE004F01230AD80A61230AD7F
:10191C00900068E0FEA3E0FFC390006FE09F900092
:10192C006EE09E4003021A84900072E0FEA3E0FF7A
:10193C00900070E0FCA3E0FD9FEC9E50030219E3C5
:10194C00EF25E0FBEE33FAC3EB9DFEEA9C900074AE
:10195C00F0A3CEF0A3EAF0A3EBF0900070E0FEA3AE
:10196C00E0FFC3900073E09FFF900072E09EFEEFDB
:10197C0025E0FFEE33900078F0A3EFF0900066E0E6
:10198C00FEA3E0FFC390006DE09F90006CE09E40D2
:10199C0003021BD4A3E004F0700690006CE004F08A
:1019AC00C3900074E06480948050059000768011A0
:1019BC0090006FE004F0700690006EE004F0900070
:1019CC0078E0FEA3E0FF900075E02FF0900074E04B
:0719DC003EF01230AD80A5C2
:1019E300900071E025E0FB900070E033FA90007204
:1019F300E0FEA3E0FFC3EB9FFFEA9EA3F0A3EFF09B
:101A0300A3EAF0A3EBF0900072A3E0FFC390007190
:101A1300E09FFF900070E09EFEEF25E0FFEE339025
:101A23000078F0A3EFF0900068E0FEA3E0FFC3901E
:101A3300006FE09F90006EE09E4003021BD4A3E082
:101A430004F0700690006EE004F0C3900074E0644C
:101A53008094805005900076801190006DE004F032
:101A6300700690006CE004F0900078E0FEA3E0FFC5
:101A7300900075E02FF0900074E03EF01230AD80DE
:011A8300A5BD
:101A8400900072E0FEA3E0FF900070E0FCA3E0FD94
:091A9400D39FEC9E5003021B34A9
:101A9D00EF25E0FBEE33FAC3EB9DFEEA9C9000745C
:101AAD00F0A3CEF0A3EAF0A3EBF0900070E0FEA35C
:101ABD00E0FFC3900073E09FFF900072E09EFEEF89
:101ACD0025E0FFEE33900078F0A3EFF0900066E094
:101ADD00FEA3E0FFC390006DE09F90006CE09E4080
:101AED0003021BD4A3E004F0700690006CE004F038
:101AFD00C3900074E064809480500590007680114E
:101B0D0090006FE024FFF090006EE034FFF0900045
:101B1D0078E0FEA3E0FF900075E02FF0900074E0F8
:071B2D003EF01230AD80A56F
:101B3400900071E025E0FB900070E033FA900072B1
:101B4400E0FEA3E0FFC3EB9FFFEA9EA3F0A3EFF048
:101B5400A3EAF0A3EBF0900072A3E0FFC39000713E
:101B6400E09FFF900070E09EFEEF25E0FFEE3390D3
:101B74000078F0A3EFF090006EE0FEA3E0FFC390C6
:101B84000069E09F900068E09E504590006FE0245B
:101B9400FFF090006EE034FFF0C3900074E06480C6
:101BA40094805005900076801190006DE004F070F0
:101BB4000690006CE004F0900078E0FEA3E0FF9053
:101BC4000075E02FF0900074E03EF01230AD80A676
:011BD40022EE
:102058009000A3EEF0A3EFF0A3ECF0A3EDF0A3EA59
:04206800F0A3EBF006
:10206C00E49000ACF0A3F09000A7E0FEA3E0FFD357
:10207C009000ADE09F9000ACE09E4003022472E023
:10208C00FCA3E0FDFFAE0412156AAA06AB07900094
:10209C00A7E0FCA3E0FDFFAE0412156AC3EF9BFDA5
:1020AC00EE9AFCE412110E122BF11211479000AEB5
:1020BC00EEF0A3EFF09000A7E0FEA3E0FF9000A4E9
:1020CC00E02FFF9000A3E03EFE9000ADE02FFF90CC
:1020DC0000ACE03EFE9000A7E0FCA3E0FD9000A663
:1020EC00E02DFD9000A5E03CFC9000AFE02DFD90B4
:1020FC0000AEE03CFC9000A91230BE9000A7E0FEC0
:10210C00A3E0FF9000A4E02FFF9000A3E03EFE9020
:10211C0000ACE0FCA3E0FDC3EF9DFFEE9CFE900045
:10212C00A7E0FCA3E0FD9000A6E02DFD9000A5E04B
:10213C003CFC9000AEE0FAA3E0FBC3ED9BFDEC9AF7
:10214C00FC9000A91230BE9000A7E0FEA3E0FF9027
:10215C0000A4E02FFF9000A3E03EFE9000ADE02F26
:10216C00FF9000ACE03EFE9000A7E0FCA3E0FD90E9
:10217C0000A6E02DFD9000A5E03CFC9000AEE0FA3E
:10218C00A3E0FBC3ED9BFDEC9AFC9000A91230BEC2
:10219C009000A7E0FEA3E0FF9000A4E02FFF9000CA
:1021AC00A3E03EFE9000ACE0FCA3E0FDC3EF9DFF7E
:1021BC00EE9CFE9000A7E0FCA3E0FD9000A6E02DB5
:1021CC00FD9000A5E03CFC9000AFE02DFD9000AE32
:1021DC00E03CFC9000A91230BE9000A7E0FEA3E00A
:1021EC00FF9000A4E02FFF9000A3E03EFE9000AF14
:1021FC00E02FFF9000AEE03EFE9000A7E0FCA3E0D5
:10220C00FD9000A6E02DFD9000A5E03CFC9000ADFB
:10221C00E02DFD9000ACE03CFC9000A91230BE908B
:10222C0000A7E0FEA3E0FF9000A4E02FFF9000A326
:10223C00E03EFE9000AEE0FCA3E0FDC3EF9DFFEEA0
:10224C009CFE9000A7E0FCA3E0FD9000A6E02DFD15
:10225C009000A5E03CFC9000ACE0FAA3E0FBC3EDE1
:10226C009BFDEC9AFC9000A91230BE9000A7E0FEFA
:10227C00A3E0FF9000A4E02FFF9000A3E03EFE90AF
:10228C0000AFE02FFF9000AEE03EFE9000A7E0FC18
:10229C00A3E0FD9000A6E02DFD9000A5E03CFC9095
:1022AC0000ACE0FAA3E0FBC3ED9BFDEC9AFC9000C4
:1022BC00A91230BE9000A7E0FEA3E0FF9000A4E0BE
:1022CC002FFF9000A3E03EFE9000AEE0FCA3E0FDEB
:1022DC00C3EF9DFFEE9CFE9000A7E0FCA3E0FD90F9
:1022EC0000A6E02DFD9000A5E03CFC9000ADE02D9B
:1022FC00FD9000ACE03CFC9000A91230BE9000AB0D
:10230C00E0700302245E9000A7E0FEA3E0FF9000C3
:10231C00A4E02FFF9000A3E03EFE9000ACE0FCA3F5
:10232C00E0FDC3EF9DFFEE9CFEC006C0079000A72A
:10233C00E0FEA3E0FF9000A6E02FFF9000A5E03E9A
:10234C00FE9000AEE0FCA3E0FDC3EF9DFDEE9CFC17
:10235C009000A7E0FEA3E0FF9000A3E0FAA3E02F1B
:10236C00FFEA3EFE9000ACE0FAA3E0FBC3EF9BFB60
:10237C00EE9AFA9000A7E0FEA3E0FF9000A5E0F82B
:10238C00A3E02FFFE83EFE9000AEE0F8A3E02FFFA5
:10239C00E83E900068F0A3EFF09000A9E0FFA3E006
:1023AC0090006ACFF0A3EFF0D007D006121704907C
:1023BC0000A7E0FEA3E0FF9000A4E02FFF9000A395
:1023CC00E03EFE9000ADE02FFF9000ACE03EFEC082
:1023DC0006C0079000A7E0FEA3E0FF9000A6E02F48
:1023EC00FF9000A5E03EFE9000AEE0FCA3E0FDC334
:1023FC00EF9DFDEE9CFC9000A7E0FEA3E0FF90009B
:10240C00A3E0FAA3E02FFFEA3EFE9000ACE0FAA3B3
:10241C00E02FFBEA3EFA9000A7E0FEA3E0FF90005D
:10242C00A5E0F8A3E02FFFE83EFE9000AEE0F8A395
:10243C00E02FFFE83E900068F0A3EFF09000A9E0D9
:10244C00FFA3E090006ACFF0A3EFF0D007D0061204
:10245C0017049000ADE004F060030220739000AC10
:06246C00E004F002207301
:012472002247
:1026520090007AEEF0A3EFF0A3ECF0A3EDF0A3EA82
:0D266200F0A3EBF0900084E0700302270A63
:10266F0090007EE0FCA3E0FD90007CE0FAA3E0FB8D
:10267F00900080E0FFA3E0900008CFF0A3EFF09070
:10268F00007AE0FEA3E0FF122F9390007CE0FFA3FF
:10269F00E0900085CFF0A3EFF0900080E0FEA3E084
:1026AF00FFD3900086E09F900085E09E40030227B5
:1026BF00E490007AE0FFA3E0900087CFF0A3EFF063
:1026CF0090007EE0FEA3E0FFD3900088E09F900093
:1026DF0087E09E50169000821232DD900088E00451
:1026EF00F070DD900087E004F080D5900086E00464
:0B26FF00F070A6900085E004F0809EC3
:10270A0090007AE0FAA3E0FBFFAE02C007A3E0FC68
:10271A00A3E0FD900080E0FFA3E0900068CFF0A363
:10272A00EFF0900082E0FFA3E090006ACFF0A3EF01
:10273A00F0D007121704900080E0FCA3E0FD90009F
:10274A007EE0FAA3E0FBA3E0FFA3E0900068CFF0ED
:10275A00A3EFF0900082E0FFA3E090006ACFF0A31D
:10276A00EFF090007AE0FEA3E0FF12170490007EDB
:10277A00E0FAA3E0FBFFAE02C007A3E0FCA3E0FD82
:10278A0090007CE0FFA3E0900068CFF0A3EFF09008
:10279A000082E0FFA3E090006ACFF0A3EFF0D00739
:1027AA0012170490007CE0FCA3E0FD90007AE0FAA6
:1027BA00A3E0FBA3E0FFA3E0900068CFF0A3EFF053
:1027CA00900082E0FFA3E090006ACFF0A3EFF090C0
:0B27DA00007EE0FEA3E0FF12170422C7
:102F37009000B4EAF0A3EBF09000B0EEF0A3EFF04E
:102F4700A3ECF0A3EDF0C006C007A3E0FEA3E0FFEB
:102F57009000B0E0FAA3E02FFBEA3EFA9000B2E05F
:102F6700F8A3E02FFFE83E900080F0A3EFF0900079
:102F7700B6E0FFA3E0900082CFF0A3EFF09000B897
:0C2F8700E0900084F0D007D00602265233
:10247300900030EEF0A3EFF0A3ECF0A3EDF0A3EAAD
:06248300F0FCA3EBF0FDEC
:10248900900030E0FAA3E0FFAE02C006C0072DFFBE
:10249900EA3CCF24FFFDEF34FFFCA3E0FAA3E0FB05
:1024A900900036E0FEA3E0FF900032E0F8A3E02FB1
:1024B900FFE83ECF24FFCF34FF900008F0A3EFF0F0
:1024C900D007D006122F93E490003CF0A3F09000BF
:1024D90036E0FCA3E0FD900034E0FEA3E0FF121516
:1024E9006AC390003DE09F90003CE09E40030226B5
:1024F90051A3E025E0FF90003CE033FE900038E076
:10250900FBA3E0FAA3E0F98F828E83121592FBAA4E
:10251900F0EA54F8FE7F0090003BE0F9FD7C0012E0
:10252900156AE4FD90003E1216B2EA5407FEEB5418
:10253900E0FFE9FD7C0012156AE4FD9000421216E5
:10254900B290003DE025E0FF90003CE033FE9000B2
:1025590038E0FBA3E0FAA3E0F98F828E831215928B
:102569007E00541FFF90003BE0FD7C0012156AE4D9
:10257900FD9000461216B2E47B20FAF9F890003E6D
:10258900E0FCA3E0FDA3E0FEA3E0FF121606E4FFD2
:10259900EE54F8FEE4FDFC90003E1216B2E47B20F6
:1025A900FAF9F8900042E0FCA3E0FDA3E0FEA3E005
:1025B900FF121606EF54E0FFEE5407FEE4FDFC900F
:1025C90000421216B2E47B20FAF9F8900046E0FCCA
:1025D900A3E0FDA3E0FEA3E0FF121606EF541FFFE0
:1025E900E4FEFDFC9000461216B2900046E0FCA302
:1025F900E0FDA3E0FEA3E0FF90003EE0F8A3E0F9D0
:10260900A3E0FAA3E04FFFEA4EFEE94DFDE84CFCDA
:10261900A3E0F8A3E0F9A3E0FAA3E04FFFEA4EFE36
:10262900E94DFDE84CFC90003E1216B290003EA325
:10263900A31232DD90003DE004F060030224D7903C
:08264900003CE004F00224D77C
:012651002266
:043361004100C7045C
:103276009000C7E0FF12328B439080E0FF12328B42
:0532860053907FE0FF02
:07328B00EF60031F80FA222F
:013372002238
:0C334A00E49000C7F012337253907F2211
:0231AC00AE076C
:1031AE00E4FDEE30E70543902080035390DF1232AA
:1031BE0076EE25E0FEE59030E6010E0DEDB407E269
:0231CE00AF064A
:0131D00022DC
:0231D100AE0747
:1031D300E4FDEE30E70543902080035390DF123285
:1031E30076EE25E0FEE59030E6010E0DEDB408E243
:0231F300AF0625
:0131F50022B7
:10307800EF14601514601924FE601C24FC601F24E2
:10308800087021E49000C7F0229000C77401F02274
:103098009000C77402F0229000C77404F0229000D8
:0530A800C77410F022C6
:043365004100C890CB
:10331800E4FEE4FDEDC39F50030D80F80EEEB414F7
:01332800F1B3
:013329002281
:1030DD009000C5EFF0A3EDF01232F29000C8E0FFC2
:1030ED001231389000C5E0FF1231389000C6E07FF4
:0F30FD00001231389000C6E0FF1231380233560E
:1032180012333C1232F29000C8E0FF1231387F01BD
:103228001231387F6A123138123356E4FFFEFDFC42
:013238002273
:102ED4001232F29000C8E0FF123138E4FF123138A8
:102EE4001232F29000C8E004FF1231381231869099
:102EF4000000E4F0A3EFF0E0F8E4F0E8900000F064
:102F04007F64123318123186900001E02FF0900094
:102F140000E03400F0123356900000E0C4F854F09E
:102F2400C868FEA3E0C4540F48FF900000EEF0A36D
:022F3400EFF0BC
:012F36002278
:0632C500C292D2937F01CA
:1032CB00E4FEE4FDEDC39F50030D80F80EEEB42831
:0132DB00F101
:0132DC0022CF
:0E333C004392085391F71232C7D2920232CB5D
:1032F200D2927F011232CBD2931232CBC2921232CD
:04330200CBC2932285
:10332A00E4900002F01232C72092FDC2937F01029C
:02333A0032CB94
:08336A001232C5C2930232CBFE
:0B3356001232C5D2921232CBC2932279
:10313800AC07E4FBEC30E70BD2921232C7C293C261
:103148009280051232C5C2931232CBEC25E0FC0BFB
:07315800EBB408E002332A8A
:10318600D292E4FBEC25E0FC1232C7EC209207F465
:103196004401F4FC80034401FCC2930BEBB408E445
:0531A60012336AAF04C2
:0131AB002201
:10100300EC4D6011E8497017ED33EC3304600DE4E7
:10101300FCFFFEFD22E933E8330470F80211B3123A
:10102300117E58046009E4CC24815006285009023B
:1010330011BD2840030211BAC0E0EB4A7044B980E5
:1010430006D0E0FB0211A9EF4E701CBD8008EBFF38
:10105300EAFEE9FD80EBE98DF0A4FEE5F00210EC79
:10106300E9CDF9EAFEEBFFEF89F0A4FCE5F0CE89C8
:10107300F0A42EFFE435F0CD89F0A42DFEE435F085
:101083008067EF4E7005BD80D780C3EF8BF0A4ACB3
:10109300F0EE8BF0A42CFCE435F0F8EF8AF0A42CEE
:1010A300E5F038FCE433CB8DF0A42CFCE5F03BF801
:1010B300EE8AF0A42CFCE5F038F8E433CF89F0A4F1
:1010C3002CFCE5F038CF3400CE89F0A42FFFE5F0F7
:1010D3003EFEE433C98DF0A42EFEE5F039CD8AF04F
:1010E300A42FFFE5F03EFEE43DFD33D0E0FB5007C7
:1010F3000BBB000F0211BDEC2CFCEF33FFEE33FEF4
:06110300ED33FD02119521
:1011090075F020800E75F010800575F0087D007E61
:10111900007F003392D530D503121698EC33401076
:10112900EF33FFEE33FEED33FDEC33FCD5F0ED226A
:0E113900E5F0247EA2D513CC92E7CDCEFF22A6
:10114700EDD2E7CD33EC3392D524814006E4FFFEA0
:10115700FDFC22FCE4CFCECDCC24E0501174FF80FF
:10116700EDC3CC13CCCD13CDCE13CECF13CF04709C
:07117700F030D5DE021698EE
:101BD500E5082403F582E43400F583E00508229046
:101BE5000000300703900003E475F0011216BE02F1
:101BF50015122000E97F2ED2008018EF540F249093
:101C0500D43440D4FF30040BEF24BFB41A00500382
:101C15002461FFE50960021509050CE50C70020554
:101C25000B30070E900000E475F0011216BEEF02AE
:101C3500155802315F7403D2078003E4C207F50823
:101C45009000001216D5E4F509F50BF50CE50960D1
:101C5500077F20121C1880F5750AFFC201C200C259
:101C650002C203C205C206C208121BE4FF700D3092
:101C750007057F00121C29AF0CAE0B22B4255FC2ED
:101C8500D5C204121BE4FF24D0B40A00501A75F023
:101C95000A780930D50508B6FF0106C6A426F62040
:101CA500D5047002D20380D924CFB41A00EF5004B2
:101CB500C2E5D204021F1BD20180C6D20080C0D269
:101CC5000280BCD2D580BAD20580B47F20121C1800
:101CD5002002077401B5090040F1121BD5FF121C43
:101CE50018021C52D208D2068095121BD5FB121B76
:101CF500D5FA121BD5F94A4B700679197A207BFF64
:101D050020022EE509602A7E008E82758300121559
:101D15002B60060EEE650A70F0C2D5EBC0E0EAC096
:101D2500E0E9C0E0EE121F7CD0E0F9D0E0FAD0E0A7
:101D3500FB121512FF60AAEBC0E0EAC0E0E9C0E0C3
:101D4500121C18D0E02401F9D0E03400FAD0E0FBF1
:101D5500E50A0460DCD50AD98087D20280A2121F69
:101D65005E60F7E50A700104121360A90A600DE5CB
:101D75000A600914F50A122006EF60F3EA30E7025B
:101D8500F404C3995079EAF4250A0430E701E40420
:101D9500F50A800D121F5E60C1EA050A250A1213B5
:101DA50060EA90002FF030E701E4250A04D50A0423
:101DB50020050114121F7CE4C0E012200690002FBC
:101DC500E0601320E70714F0121C00802204F0D015
:101DD500E014C0E07F00121C00E50A6007121BF743
:101DE500150A800B300503121BF7D0E0021C52D0F8
:101DF500E00480C4121F5E609EE50A041213609021
:101E0500002FEAF0E50A2005026001042404121FF0
:011E15007C50
:101E160074FF04C0E0122006121C00E50A20050229
:101E26006003121BF7D0E0B50AE87F45121C0A9042
:101E3600002FE07F2B30E7047F2DF404C0E0121C56
:101E460018D0E075F00A84C0F0121C01D0E0121C14
:101E560001021C52791080027908C206C208800865
:101E6600D2D5790A8004790AC2D5E50A047002F54A
:101E76000AE4FAFDFEFF121BD5FC7B0820011312B3
:101E86001BD5FD7B1030000A121BD5FE121BD5FF99
:101E96007B20EC3382D592D55013C3E43000069FE5
:101EA600FFE49EFEE42001039DFDE49CFCE4CBF8E8
:101EB600C201EC700CCFCECDCCE824F8F870F380DC
:101EC60017C3EF33FFEE33FEED33FDEC33FCEB339C
:101ED600FB994002FB0FD8E9EB300105F8D0E0C4CE
:101EE60048B201C0E00AEC4D4E4F78207B0070C22C
:101EF600EAB50A0040BCC0E0121F7ED0F0D0E02058
:101F06000104C4C0E0C4B201C0F0121C01D0F0D577
:101F1600F0EB021C521216DE1CEF531E5A581CC060
:101F26004C1CBC421E5E4F1E66441E66491CD543B1
:101F36001E6C551D99461DF9451D63472039501CD9
:101F4600C42D1CC82E1CEB2B1CCC231CE9202022E4
:101F56002A1C844800001CE3E50AB4FF03750A0640
:101F6600121BD5FC121BD5FD121BD5FE121BD5FF6D
:101F760090002802139D790AA2D520031430050982
:101F8600B910020404B9080104A2D52006025001C2
:101F9600042002689202B509005034C0E07F203068
:101FA60003197F30A20272067205500F121FD5C2A6
:101FB60002C206C205C2087F30800F300503E9C0A1
:101FC600E0121C18300503D0E0F9D0E0B509CC309A
:101FD60005177F30B9100C121C187F583004077F84
:101FE600788003B90803121C183002057F2D021CE5
:101FF600187F202008F87F2B2006F322920280CF3C
:102006007F00B40700500B2428F582E43400F583E2
:10201600E0FF22286E756C6C2900D201121BD530A8
:1020260001F8C201780930D50108F6021C842D504A
:10203600434958121BD52403B405004001E49020FF
:102046003493121C09743A121C09D203750904024E
:022056001E5A10
:102BED000211B322EDA2E7D2E7F9EC3340F260F324
:102BFD00B4FF08ED547F70E80211BDF82481C2E0E6
:102C0D00C0E0F40428FAC313FCED92E7FD9000BF79
:102C1D001216B2EEA2E7E9BA7F02C3133400940094
:102C2D00FA75F091A4E5F013F494FE8AF0A433E55F
:102C3D00F033248CD313FDE492E7FE7F007C3F75C7
:102C4D008302ECC0E0F8EDC0E0F9EEC0E0FAEFC0B1
:102C5D00E0FB8583F09000BF1216A685F08312125B
:102C6D00C3D0E0FBD0E0FAD0E0F9D0E0F81211CFFC
:102C7D00ED6480FD30E7011CD583C7ED33CC33F80F
:0C2C8D00D0E0A2E71328C313CC13FD22F3
:10117E00E9D2E7C933E833F892D5EDD2E7CD33ECB7
:07118E0033FC5002B2D52230
:10119500EC30E7100FBF000C0EBE00080DBD0004BB
:1011A5000BEB6014A2D5EB13FCED92E7FD2274FF67
:1011B500FCFDFEFF22E480F8A2D574FF13FC7D80C0
:0311C500E480EFD4
:1011C8000211B3E86480F8E933E83360110460F091
:1011D800ED33EC337009E8FCE9FDEAFEEBFF22048D
:1011E80060DED3EB9FEA9EE99DE8C2E78CF0C2F788
:1011F80095F0400CE8CCF8E9CDF9EACEFAEBCFFB54
:1012080012117E85D0F05804700320D5B3E804701D
:10121800075002B2D50211BD92D5EC0460F7E4CCB8
:10122800C0E0C398F8603B94186008400DD0E0FB1C
:10123800021195E4FBFAC9FC8028E830E406E4C909
:10124800FBE4CAFCE830E305E4C9CACBFCE8540770
:101258006010F8C3E913F9EA13FAEB13FBEC13FC7B
:10126800D8F130F52FC3E49CFCEF9BFFEE9AFEED1E
:1012780099FDD0E0FBEF4E4D4C701222DB030211BA
:10128800BAEC2CFCEF33FFEE33FEED33FDED30E727
:10129800EB021195EF2BFFEE3AFEED39FDD0E0FBA6
:1012A80050130BBB00030211BDED13FDEE13FEEF4F
:0812B80013FFEC13FC02119579
:1012C0000211BDEC5D046005E8590470030211B31E
:1012D00012117E580460F6EC4860F2EC7004FDFEDA
:1012E000FF22C860DB2481C85009C3986002500601
:1012F0000211BA9850CAF582E9294B4A7005AB82AF
:101300000211A975F0007C1A7880C3EF9BEE9AED6C
:1013100099400DC3EF9BFFEE9AFEED99FDE842F078
:10132000DC23ACF0D0E0FFD0E0FED0E0FDAB8220CB
:10133000E7101BEB60BAEC2CFCEF33FFEE33FEED55
:1013400033FD021195E803F830E705C0F075F000B1
:10135000EF2FFFEE33FEED33FD40B830E7C280AA39
:10136000F920E73624F950037907E4F42402FBE579
:1013700082158270021583DBF6E024FB501BE960C6
:1013800014E4F0E582158270021583E004F0B40ADB
:0D13900008E4F0D9EE7401F00A22C2D52263
:10139D00ED33EC3392D5FA602AB4FF33EDC2E77B1F
:1013AD00FF60067A1379C2E4227A1379CB20D50433
:1013BD007A1379C6224E614E002B494E46002D49B7
:1013CD004E4600E47A08F0A3DAFC7B00740722C0D5
:1013DD0083C082ECC0E0EDC0E0EEC0E0EFC0E0EA1B
:1013ED0075F010A4CAABF075F04DA42BFBE435F0ED
:1013FD00FCEA2410FAEB34C5FBEC34D9FCEDC2E762
:10140D00FF75F056A4F42411C5F0F434C58FF0A483
:10141D002AE5F03BE43CF020E7141214D2D0E0FFB3
:10142D00D0E0FED0E0FDD0E0FC1212C38014F40435
:10143D001214D2D0E0FFD0E0FED0E0FDD0E0FC12DF
:10144D001003D082D083E0FAEDD2E7CD33EC332414
:10145D0082FBE4C3CF33CFCE33CECD33CD33DBF3ED
:10146D007B0775F00A846004F0A31B0AE5F0F0A376
:10147D008FF0740AA4FFACF08EF0740AA42CFEACAD
:10148D00F050010C8DF0740AA42CFDE435F0F0A39E
:05149D00DBDE740722F4
:1014A2003F8000004120000042C80000447A000052
:1014B200461C400047C35000497424004B189680D4
:1014C2004CBEBC205A0E1BCA6753C21C749DC5AECB
:1014D200FB60065407601C2323121500EB5438608E
:1014E200091214EC1214FB121003ECF8EDF9EEFAE7
:1014F200EFCB22EB1214FB80F1543803241C90141E
:10150200A2FE93FC0EEE93FD0EEE930ECE93FF22FF
:03000000022DD5F9
:0C2DD500787FE4F6D8FD758121022E1CE9
:10151200BB010689828A83E0225002E722BBFE02D7
:09152200E32289828A83E493220A
:10152B00BB010CE58229F582E5833AF583E0225075
:10153B0006E92582F8E622BBFE06E92582F8E222BF
:0D154B00E58229F582E5833AF583E49322D9
:10155800BB010689828A83F0225002F722BBFE0172
:02156800F3226C
:10156A00EF8DF0A4A8F0CF8CF0A428CE8DF0A42E95
:02157A00FE224F
:10157C00C5F0F8A3E028F0C5F0F8E58215827002FA
:06158C001583E038F02297
:10159200BB0110E58229F582E5833AF583E0F5F097
:1015A200A3E0225009E92582F886F008E622BBFE74
:1015B2000AE92582F8E2F5F008E222E5832AF583BA
:0815C200E993F5F0A3E993227F
:1015CA0075F008758200EF2FFFEE33FECD33CDCCD8
:1015DA0033CCC58233C5829BED9AEC99E58298405B
:1015EA000CF582EE9BFEED9AFDEC99FC0FD5F0D638
:1015FA00E4CEFBE4CDFAE4CCF9A88222B800C1B962
:10160A000059BA002DEC8BF084CFCECDFCE5F0CB9F
:10161A00F97818EF2FFFEE33FEED33FDEC33FCEBD8
:10162A0033FB10D703994004EB99FB0FD8E5E4F993
:10163A00FA227818EF2FFFEE33FEED33FDEC33FC80
:10164A00C933C910D7059BE99A4007EC9BFCE99A74
:10165A00F90FD8E0E4C9FAE4CCFB2275F010EF2FB9
:10166A00FFEE33FEED33FDCC33CCC833C810D707B9
:10167A009BEC9AE899400AED9BFDEC9AFCE899F8F4
:0E168A000FD5F0DAE4CDFBE4CCFAE4C8F92287
:0E169800C3E49FFFE49EFEE49DFDE49CFC2263
:0C16A600E0FCA3E0FDA3E0FEA3E0FF22B7
:0C16B200ECF0A3EDF0A3EEF0A3EFF022AB
:1016BE00F8E0FBA3A3E0F925F0F0E58215827002B5
:0716CE001583E0FA38F02259
:0916D500EBF0A3EAF0A3E9F02216
:1016DE00D083D082F8E4937012740193700DA3A39B
:1016EE0093F8740193F5828883E4737402936860AF
:0616FE00EFA3A3A380DFAF
:10315F00EFB40A07740D12316A740A309811A899E6
:10316F00B8130CC2983098FDA899C298B811F630D0
:07317F0099FDC299F59922A8
:102DE100022E61E493A3F8E493A34003F68001F279
:102DF10008DFF48029E493A3F85407240CC8C333F3
:102E0100C4540F4420C8834004F456800146F6DFC1
:102E1100E4800B0102040810204080903361E47EBD
:102E2100019360BCA3FF543F30E509541FFEE493B6
:102E3100A360010ECF54C025E060A840B8E493A37D
:102E4100FAE493A3F8E493A3C8C582C8CAC583CAA8
:102E5100F0A3C8C582C8CAC583CADFE9DEE780BE60
:013369000063
:00000001FF
