:10A5820012A0FF129C51900000EFF0BF0103129A3B
:0DA5920022900000E0B402E8128EF580E394
:10A63D0074656D70757261747572652069733A25F4
:04A64D002E32660043
:109A220012A3EF12A52374FFFFFE12A31B129EC204
:109A32007B017A0079191296D07B017A007919128A
:109A4200A0AABF010475C0FF22129F3AAC06AD075F
:109A5200E4127B33E4FBFA7980783D12791B9000A3
:109A620015128103E4FFFE7DF07C41900015E0F8C1
:109A7200A3E0F9A3E0FAA3E0FB127AC16005400378
:109A8200E4F5C0E4FFFE7DF07C41900015E0F8A310
:109A9200E0F9A3E0FAA3E0FB127AC1600250037579
:109AA200C0FF90002074FFF0A374A6F0A3743DF0F1
:109AB200900015E0FCA3E0FDA3E0FEA3E0FF900010
:109AC200231281037B017A0079011286BC7B017A21
:109AD200007901E4900024F0A3F074FFA3F0A3F056
:0E9AE2007D6E7C007F5A7E00129CFA029A3242
:09A6C00025322E31664D487A0066
:10A59F00E4FFFEE4FDFC0DBD00010CED64C84C7042
:0CA5AF00F50FBF00010EBE01EABFF4E78B
:01A5BB00227D
:108EF5009000017403F0A37492F012A3EF74FFFFC6
:108F0500FE12A31B129EC212A2D3900023E4F0A36B
:108F15007478F0E4A3F0A3F0A3F07B047A017D322A
:108F2500FC7F3CFE1293C5900023E4F0A37477F018
:108F3500A374FFF0A374E0F0A37401F07B03FA7D42
:108F4500337C007F3D7E001293C5900023E4F0A39F
:108F550074BEF0E4A3F0A3F0A3F07BA0FA7D78FC47
:108F65007F3CFE1293C5900023E4F0A374BEF0E4A9
:108F7500A3F0A3F0A3F07B047A017D78FC7FA0FE2B
:108F85001293C57F927E0312A41B90002074FFF0FC
:108F9500A374A6F0A374C0F0900001E0FCA3E0FD6B
:108FA500E4127B33E4FBFA79207841127A249000AD
:108FB500231281037B017A0079071286BC7B017A33
:108FC500007907E4900024F0A3F0A374FFF0A374E4
:108FD500E0F07D557C007F877E00129CFA7B017A4C
:108FE5000079031296D0900003E0FEA3E0FFD3942E
:108FF5003CEE940050030290DAEF94A0EE9400400A
:10900500030290DAA3E0FEA3E0FF9478EE9400500B
:10901500030290DAEF94BEEE940040030290DA90DA
:109025000023E4F0A374BEF0A374F8F0A3E4F0A366
:10903500F07BA0FA7D78FC7F3CFE1293C5D39000AF
:1090450002E09466900001E09403400CA3E024FF45
:10905500F0900001E034FFF012A59F900001E0FEC2
:10906500A3E0FF129FF990002074FFF0A374A6F00F
:10907500A374C0F0900001E0FCA3E0FDE4127B3393
:10908500E4FBFA79207841127A24900023128103B7
:109095007B017A0079071286BC7B017A007907E4A7
:1090A500900024F0A3F0A374FFF0A374E0F07D55C5
:1090B5007C007F877E00129CFA900023E4F0A37465
:1090C500BEF0E4A3F0A3F0A3F07BA0FA7D78FC7FCB
:1090D5003CFE1293C5900003E0FEA3E0FFD394A0ED
:1090E500EE940050030291CBEF9404EE94014003FB
:1090F5000291CBA3E0FEA3E0FF9478EE9400500329
:109105000291CBEF94BEEE940040030291CB900008
:1091150023E4F0A374BEF0A374F8F0A3E4F0A3F085
:109125007B047A017D78FC7FA0FE1293C5C3900075
:1091350002E0942E900001E09404500CA3E004F0AA
:109145007006900001E004F012A59F900001E0FE7A
:10915500A3E0FF129FF990002074FFF0A374A6F01E
:10916500A374C0F0900001E0FCA3E0FDE4127B33A2
:10917500E4FBFA79207841127A24900023128103C6
:109185007B017A0079071286BC7B017A007907E4B6
:10919500900024F0A3F0A374FFF0A374E0F07D55D4
:1091A5007C007F877E00129CFA900023E4F0A37474
:1091B500BEF0E4A3F0A3F0A3F07B047A017D78FC74
:1091C5007FA0FE1293C57B017A0079031296D07BAE
:1091D500017A00790312A0AAEF64016003028FE20D
:0191E5002267
:10691B00000000000000000000000000000000006C
:10692B0000007E81A58181BD9981817E00000000E0
:10693B0000007EFFDBFFFFC3E7FFFF7E00000000D0
:10694B00000000006CFEFEFEFE7C38100000000014
:10695B000000000010387CFE7C38100000000000A6
:10696B00000000183C3CE7E7E718183C000000006B
:10697B00000000183C7EFFFF7E18183C0000000052
:10698B00000000000000183C3C1800000000000054
:10699B00FFFFFFFFFFFFE7C3C3E7FFFFFFFFFFFFA4
:1069AB0000000000003C664242663C000000000014
:1069BB00FFFFFFFFFFC399BDBD99C3FFFFFFFFFFA4
:1069CB0000001E0E1A3278CCCCCCCC780000000024
:1069DB0000003C666666663C187E181800000000D6
:1069EB0000003F333F3030303070F0E000000000EB
:1069FB0000007F637F6363636367E7E6C0000000AB
:106A0B000000001818DB3CE73CDB18180000000006
:106A1B000080C0E0F0F8FEF8F0E0C080000000005D
:106A2B000002060E1E3EFE3E1E0E06020000000079
:106A3B000000183C7E1818187E3C1800000000005F
:106A4B0000006666666666666600666600000000A5
:106A5B0000007FDBDBDB7B1B1B1B1B1B0000000019
:106A6B00007CC660386CC6C66C380CC67C00000057
:106A7B000000000000000000FEFEFEFE0000000013
:106A8B000000183C7E1818187E3C187E0000000091
:106A9B000000183C7E181818181818180000000071
:106AAB000000181818181818187E3C180000000061
:106ABB000000000000180CFE0C1800000000000085
:106ACB0000000000003060FE60300000000000009D
:106ADB00000000000000C0C0C0FE0000000000006D
:106AEB000000000000286CFE6C2800000000000075
:106AFB00000000001038387C7CFEFE000000000017
:106B0B0000000000FEFE7C7C383810000000000006
:106B1B00000000000000000000000000000000006A
:106B2B000000183C3C3C1818180018180000000016
:106B3B0000666666240000000000000000000000F4
:106B4B000000006C6CFE6C6C6CFE6C6C000000004A
:106B5B0018187CC6C2C07C060686C67C18180000B6
:106B6B0000000000C2C60C183060C6860000000092
:106B7B000000386C6C3876DCCCCCCC760000000096
:106B8B00003030306000000000000000000000000A
:106B9B0000000C18303030303030180C0000000082
:106BAB00000030180C0C0C0C0C0C18300000000002
:106BBB000000000000663CFF3C6600000000000087
:106BCB00000000000018187E1818000000000000DC
:106BDB000000000000000000001818183000000032
:106BEB0000000000000000FE00000000000000009C
:106BFB00000000000000000000001818000000005A
:106C0B000000000002060C183060C080000000007D
:106C1B000000386CC6C6D6D6C6C66C38000000005D
:106C2B0000001838781818181818187E0000000083
:106C3B0000007CC6060C183060C0C6FE00000000C9
:106C4B0000007CC606063C060606C67C000000005B
:106C5B0000000C1C3C6CCCFE0C0C0C1E000000004D
:106C6B000000FEC0C0C0FC060606C67C000000008B
:106C7B0000003860C0C0FCC6C6C6C67C0000000061
:106C8B000000FEC606060C18303030300000000045
:106C9B0000007CC6C6C67CC6C6C6C67C000000000B
:106CAB0000007CC6C6C67E0606060C7800000000F7
:106CBB000000000018180000001818000000000069
:106CCB000000000018180000001818300000000029
:106CDB00000000060C18306030180C060000000095
:106CEB0000000000007E00007E000000000000009D
:106CFB000000006030180C060C183060000000001B
:106D0B0000007CC6C60C18181800181800000000EC
:106D1B000000007CC6C6DEDEDEDCC07C00000000AE
:106D2B00000010386CC6C6FEC6C6C6C60000000002
:106D3B000000FC6666667C66666666FC000000000A
:106D4B0000003C66C2C0C0C0C0C2663C0000000070
:106D5B000000F86C6666666666666CF800000000FC
:106D6B000000FE6662687868606266FE00000000E4
:106D7B000000FE6662687868606060F000000000EA
:106D8B0000003C66C2C0C0DEC6C6663A000000000A
:106D9B000000C6C6C6C6FEC6C6C6C6C600000000F4
:106DAB0000003C18181818181818183C00000000A0
:106DBB0000001E0C0C0C0C0CCCCCCC780000000092
:106DCB000000E666666C78786C6666E6000000008C
:106DDB000000F06060606060606266FE00000000B2
:106DEB000000C6EEFEFED6C6C6C6C6C60000000034
:106DFB000000C6E6F6FEDECEC6C6C6C60000000024
:106E0B0000007CC6C6C6C6C6C6C6C67C000000004F
:106E1B000000FC6666667C60606060F0000000004D
:106E2B0000007CC6C6C6C6C6C6D6DE7C0C0E0000ED
:106E3B000000FC6666667C6C666666E60000000019
:106E4B0000007CC6C660380C06C6C67C000000007D
:106E5B0000007E7E5A1818181818183C0000000005
:106E6B000000C6C6C6C6C6C6C6C6C67C00000000A5
:106E7B000000C6C6C6C6C6C6C66C381000000000E9
:106E8B000000C6C6C6C6D6D6D6FEEE6C0000000005
:106E9B000000C6C66C7C38387C6CC6C6000000008F
:106EAB000000666666663C181818183C0000000067
:106EBB000000FEC6860C183060C2C6FE0000000043
:106ECB0000003C30303030303030303C00000000BF
:106EDB0000000080C0E070381C0E060200000000AD
:106EEB0000003C0C0C0C0C0C0C0C0C3C00000000BF
:106EFB0010386CC60000000000000000000000000D
:106F0B0000000000000000000000000000FF000077
:106F1B0030301800000000000000000000000000EE
:106F2B000000000000780C7CCCCCCC76000000007C
:106F3B000000E06060786C666666667C00000000AE
:106F4B0000000000007CC6C0C0C0C67C0000000072
:106F5B0000001C0C0C3C6CCCCCCCCC7600000000A4
:106F6B0000000000007CC6FEC0C0C67C0000000014
:106F7B000000386C6460F060606060F0000000003E
:106F8B00000000000076CCCCCCCCCC7C0CCC7800B8
:106F9B000000E060606C7666666666E600000000E6
:106FAB0000001818003818181818183C00000000BA
:106FBB0000000606000E06060606060666663C0080
:106FCB000000E06060666C78786C66E6000000009C
:106FDB0000003818181818181818183C0000000072
:106FEB000000000000ECFED6D6D6D6C6000000008E
:106FFB000000000000DC6666666666660000000046
:10700B0000000000007CC6C6C6C6C67C000000009F
:10701B000000000000DC66666666667C6060F0005F
:10702B00000000000076CCCCCCCCCC7C0C0C1E0031
:10703B000000000000DC7666606060F0000000007D
:10704B0000000000007CC660380CC67C000000000D
:10705B000000103030FC30303030361C00000000A7
:10706B000000000000CCCCCCCCCCCC7600000000D7
:10707B00000000000066666666663C1800000000B3
:10708B000000000000C6C6D6D6D6FE6C000000007D
:10709B000000000000C66C3838386CC600000000D9
:1070AB000000000000C6C6C6C6C6C67E060CF800A9
:1070BB000000000000FECC183060C6FE000000008F
:1070CB0000000E18181870181818180E0000000081
:1070DB0000001818181800181818181800000000CD
:1070EB000000701818180E181818187000000000FF
:1070FB00000076DC00000000000000000000000033
:10710B000000000010386CC6C6C6FE000000000070
:10711B0000003C66C2C0C0C0C2663C0C067C0000CE
:10712B000000CC0000CCCCCCCCCCCC76000000004A
:10713B00000C1830007CC6FEC0C0C67C00000000EE
:10714B000010386C00780C7CCCCCCC7600000000A6
:10715B000000CC0000780C7CCCCCCC76000000007E
:10716B000060301800780C7CCCCCCC760000000092
:10717B0000386C3800780C7CCCCCCC76000000004E
:10718B00000000003C666060663C0C063C000000A2
:10719B000010386C007CC6FEC0C0C67C000000002E
:1071AB000000C600007CC6FEC0C0C67C000000000C
:1071BB0000603018007CC6FEC0C0C67C000000001A
:1071CB0000006600003818181818183C0000000062
:1071DB0000183C66003818181818183C00000000FE
:1071EB0000603018003818181818183C0000000000
:1071FB0000C60010386CC6C6FEC6C6C6000000002E
:10720B00386C3800386CC6C6FEC6C6C60000000017
:10721B0018306000FE66607C606066FE0000000057
:10722B000000000000CC76367ED8D86E000000003F
:10723B0000003E6CCCCCFECCCCCCCCCE0000000005
:10724B000010386C007CC6C6C6C6C67C00000000A9
:10725B000000C600007CC6C6C6C6C67C0000000087
:10726B0000603018007CC6C6C6C6C67C0000000095
:10727B00003078CC00CCCCCCCCCCCC760000000051
:10728B000060301800CCCCCCCCCCCC76000000000D
:10729B000000C60000C6C6C6C6C6C67E060C780071
:1072AB0000C6007CC6C6C6C6C6C6C67C00000000AB
:1072BB0000C600C6C6C6C6C6C6C6C67C0000000051
:1072CB000018183C66606060663C181800000000EF
:1072DB0000386C6460F060606060E6FC00000000E9
:1072EB00000066663C187E187E1818180000000017
:1072FB0000F8CCCCF8C4CCDECCCCCCC60000000063
:10730B00000E1B1818187E1818181818D8700000C3
:10731B000018306000780C7CCCCCCC7600000000E0
:10732B00000C1830003818181818183C0000000012
:10733B0000183060007CC6C6C6C6C67C00000000C4
:10734B000018306000CCCCCCCCCCCC76000000004C
:10735B00000076DC00DC6666666666660000000090
:10736B0076DC00C6E6F6FEDECEC6C6C60000000022
:10737B00003C6C6C3E007E00000000000000000032
:10738B0000386C6C38007C0000000000000000002E
:10739B000000303000303060C0C6C67C00000000FA
:1073AB00000000000000FEC0C0C0C00000000000D4
:1073BB00000000000000FE060606060000000000AC
:1073CB0000C0C0C2C6CC183060DC860C183E000072
:1073DB0000C0C0C2C6CC183066CE9E3E060600006A
:1073EB0000001818001818183C3C3C18000000004E
:1073FB000000000000366CD86C3600000000000066
:10740B000000000000D86C366CD8000000000000B3
:10741B0011441144114411441144114411441144B9
:10742B0055AA55AA55AA55AA55AA55AA55AA55AA59
:10743B00DD77DD77DD77DD77DD77DD77DD77DD77A1
:10744B0018181818181818181818181818181818B1
:10745B0018181818181818F81818181818181818C1
:10746B001818181818F818F81818181818181818D1
:10747B0036363636363636F63636363636363636E1
:10748B0000000000000000FE363636363636363643
:10749B000000000000F818F8181818181818181819
:1074AB003636363636F606F6363636363636363621
:1074BB003636363636363636363636363636363661
:1074CB000000000000FE06F6363636363636363607
:1074DB003636363636F606FE000000000000000099
:1074EB0036363636363636FE000000000000000019
:1074FB001818181818F818F8000000000000000001
:10750B0000000000000000F81818181818181818B8
:10751B00181818181818181F000000000000000099
:10752B0018181818181818FF0000000000000000A9
:10753B0000000000000000FF181818181818181881
:10754B00181818181818181F1818181818181818A9
:10755B0000000000000000FF000000000000000021
:10756B0018181818181818FF1818181818181818A9
:10757B0018181818181F181F181818181818181872
:10758B00363636363636363736363636363636368F
:10759B00363636363637303F00000000000000002C
:1075AB0000000000003F303736363636363636367A
:1075BB003636363636F700FF0000000000000000BC
:1075CB000000000000FF00F736363636363636360A
:1075DB003636363636373037363636363636363644
:1075EB000000000000FF00FF000000000000000092
:1075FB003636363636F700F73636363636363636D4
:10760B001818181818FF00FF0000000000000000F9
:10761B0036363636363636FF0000000000000000E6
:10762B000000000000FF00FF181818181818181891
:10763B0000000000000000FF363636363636363690
:10764B00363636363636363F000000000000000076
:10765B0018181818181F181F000000000000000051
:10766B0000000000001F181F1818181818181818F9
:10767B00000000000000003F363636363636363610
:10768B0036363636363636FF3636363636363636C6
:10769B001818181818FF18FF181818181818181891
:1076AB0018181818181818F800000000000000002F
:1076BB00000000000000001F1818181818181818E0
:1076CB00FFFFFFFFFFFFFFFFFFFFFFFFFFFFFFFFBF
:1076DB0000000000000000FFFFFFFFFFFFFFFFFFA8
:1076EB00F0F0F0F0F0F0F0F0F0F0F0F0F0F0F0F08F
:1076FB000F0F0F0F0F0F0F0F0F0F0F0F0F0F0F0F8F
:10770B00FFFFFFFFFFFFFF00000000000000000075
:10771B00000000000076DCD8D8D8DC760000000032
:10772B00000078CCCCCCD8CCC6C6C6CC00000000B0
:10773B000000FEC6C6C0C0C0C0C0C0C00000000074
:10774B0000000000FE6C6C6C6C6C6C6C000000003C
:10775B00000000FEC66030183060C6FE000000005E
:10776B0000000000007ED8D8D8D8D87000000000E8
:10777B000000000066666666667C6060C000000004
:10778B000000000076DC181818181818000000000C
:10779B000000007E183C6666663C187E0000000008
:1077AB00000000386CC6C6FEC6C66C380000000070
:1077BB000000386CC6C6C66C6C6C6CEE000000002A
:1077CB0000001E30180C3E666666663C000000002A
:1077DB0000000000007EDBDBDB7E00000000000011
:1077EB0000000003067EDBDBF37E60C000000000C0
:1077FB0000001C3060607C606060301C000000008A
:10780B000000007CC6C6C6C6C6C6C6C600000000C1
:10781B0000000000FE0000FE0000FE000000000063
:10782B000000000018187E18180000FF0000000070
:10783B0000000030180C060C1830007E0000000011
:10784B000000000C18306030180C007E00000000A7
:10785B0000000E1B1B1818181818181818181818D1
:10786B001818181818181818D8D8D8700000000055
:10787B00000000001818007E00181800000000001F
:10788B00000000000076DC0076DC00000000000049
:10789B0000386C6C38000000000000000000000095
:1078AB00000000000000001818000000000000009D
:1078BB0000000000000000001800000000000000A5
:1078CB00000F0C0C0C0C0CEC6C6C3C1C0000000046
:1078DB0000D86C6C6C6C6C000000000000000000A9
:1078EB000070D83060C8F8000000000000000000F5
:1078FB00000000007C7C7C7C7C7C7C000000000019
:10790B00000000000000000000000000000000006C
:10A501007F2012A513C374F09DFFE49CFE12A62DBB
:02A511007F21A8
:10A51300C2B4C2B58F8075A000C2B6D2B6D2B4227F
:05A62800E0FEA3E0FFCD
:10A62D00C2B4D2B58F80EEF5A0C2B6D2B6D2B422E6
:10A5F5007580FF75A0FFC2B4D2B5C2B77F00AD802C
:0AA60500EF2DFFE433FED2B7D2B40C
:01A60F002228
:08A6650090002CE0FCA3E0FDD5
:0AA66D0012A513AE04AF0502A62DDE
:10A54400E4FDFCC3ED9FEC9E5015E4FBFA0BBB004D
:0FA55400010AEB64C84A70F50DBD00010C80E4EC
:01A5630022D5
:109558007FF47E0112A5447D007C017F0112A66D77
:109568007C077F0212A66D7D287C107F0312A66DF2
:10957800E4FDFC7F0412A66D7D077C027F0812A61D
:109588006DE4FDFC7F0912A66D7F0A12A66D7F0CA3
:1095980012A66D7F0D12A66D7F0F12A66D7F101299
:1095A800A66D7D077F1112A66DE4FD7F1212A66DD0
:1095B8007F1312A66D7D907C127F1012A66D7D27F9
:1095C8007C027F1112A66D7D1D7C007F1212A66D94
:1095D8007D007C157F1312A66D7D187C007F2912F3
:1095E800A66D7D0D7F2B12A66D7D047F3012A66DB2
:1095F8007D077C037F3112A66D7D027C007F3212CD
:10960800A66D7D067C027F3512A66D7D087C047FE1
:109618003612A66D1D0C7F3712A66D7D047C027F65
:109628003812A66D7407FDFC7F3912A66D7D057C86
:10963800047F3C12A66D7D027C0F7F3D12A66DE46F
:10964800FDFC7F5012A66D7DEF7F5112A66DE4FDE3
:109658007F5212A66D7D3F0C7F5312A66D7D007C54
:10966800A77F6012A66D0D7C007F6112A66D1D7F1D
:109678006A12A66D7F8012A66D7F8112A66D7F8209
:1096880012A66D7F8312A66D7F8412A66D7F851248
:10969800A66D7D107F9012A66D7D007C067F9212CC
:1096A800A66D7D037C007F9312A66D7D100C7F95BF
:1096B80012A66DE4FD1C7F9712A66D7F9812A66D09
:0896C8007D330C7F0702A66D43
:10A0530090002CEEF0A3EFF0A3ECF0A3EDF0900052
:10A0630032E0FEA3E0FFC374F09FFDE49EFC7F504B
:10A0730012A66DC374F09BFDE49AFC7F5112A66D8A
:10A083007F5212A665A3E0FCA3E0FD7F5312A66DE9
:10A09300C374F09BFDE49AFC7F2012A66D7F21120E
:07A0A300A6657F2202A51350
:08A31B0090001DEEF0A3EFF02D
:10A32300900032E4F0A374F0F0E4FBFA7D407C018A
:10A33300FFFE12A053E4FDFCE4FBFA90001D12A6FD
:10A34300280BBB00010AEB64F14A70EF0DBD00015D
:07A353000CBC01E4BD42E176
:01A35A0022E0
:10A3EF007594FFE4F5937596FFF595D2B4C2907FFF
:10A3FF00C8FE12A544D2907FFA12A5441295587F39
:0CA40F002C7E0112A544E4FF1E02A31BDA
:04A15000AD07AC06A5
:10A15400ED541FFF9000A5E4F0A3EFF0ED7805CED9
:10A16400C313CE13D8F9543FFB7A00EC13131354E2
:10A174001FFD7C007E00EB7805C333CE33CED8F9C7
:10A18400FBAA069000A6E033333354F8FEE42BFF19
:09A19400EE3AFEEF2DFFEE3CFE59
:01A19D00229F
:04A5BC00AB07AA0639
:10A5C00012A501AE02AF0312A62D7F2212A513120F
:08A5D000A5F512A5F512A1503A
:01A5D8002260
:109D9B0090009BEEF0A3EFF0A3ECF0A3EDF0A3EAA1
:049DAB00F0A3EBF046
:109DAF0090009BE0FCA3E0FFAE04C006C0072401B7
:109DBF00FDE43CFCA3E0FAA3E0FB90009DE0FEA3D2
:109DCF00E02401FFE43E900032F0A3EFF0D007D083
:109DDF000612A05390009DE0FEA3E0FDAC0690009C
:109DEF009EE02401FF90009DE03400FED3ED9FEC38
:109DFF009E503390009BE0FEA3E0FBAA0690009CD0
:109E0F00E02401FF90009BE03400FED3EB9FEA9E1D
:109E1F00500D90009F12A6280BBB00010A80DE0D8B
:069E2F00BD00010C80B82B
:019E3500220A
:10A39000900036E0FEA3E0FFA3E0FCA3E0FD900008
:06A3A00034E0FAA3E0FB2B
:10A3A6008F828E8312A501AE83AF8212A62D7F22E5
:0AA3B60012A513AE02AF0302A62D9C
:10984700900029EEF0A3EFF0A3ECF0A3EDF0A9034D
:10985700E4900032F0A3F0900032E0FCA3E0FDC3F7
:0A9867009410EC9400400302993EB7
:10987100E9FF3395E0FEEFC4F8540FC868FFEEC46A
:1098810054F048FEED2FFFEC3EFE741B2FF5827461
:10989100693EF583E493900036F0E4900034F0A340
:1098A100F0900034E0FEA3E0FFC39408EE94005072
:1098B1007BA3E030E725900029E0FCA3E0FDEF2D3C
:1098C100FFEE3CFEA3E0FCA3E0FD900033E02DFDA4
:1098D100900032E03CFC90002E8036900030E07029
:1098E10003A3E0F4602E900029E0FEA3E0FF9000C6
:1098F10035E02FFF900034E03EFE90002BE0FCA30A
:10990100E0FD900033E02DFD900032E03CFC900042
:109911003012A3A1900036E025E0F0900035E0047C
:0C992100F07006900034E004F00298A200
:10992D00900033E004F07006900032E004F00298ED
:01993D005ECB
:01993E002206
:109CFA0090001DEEF0A3EFF0A3ECF0A3EDF0A3EBC0
:079D0A00F0A3EAF0A3E9F069
:109D1100E4900028F0900021E0FBA3E0FAA3E0F931
:109D2100127E97FF60733395E0FEC3EF9480EE647B
:109D310080948050E0900028E0FF3395E0FEEF78BA
:109D410003C333CE33CED8F9FF90001EE02FFF902E
:109D5100001DE03EFEC00790001FE0FCA3E0FD12E5
:109D61007E97FB900024E0FFA3E090002ECFF0A3AC
:109D7100EFF0900026E0FFA3E0900030CFF0A3EFDA
:109D8100F0D007129847900028E004F0900022E4F8
:099D910075F001127F56029D16C7
:019D9A0022A6
:109AF000900078EEF0A3EFF0A3ECF0A3EDF0A3EA72
:069B0000F0FCA3EBF0FDF8
:109B0600900078E0FAA3E0FFAE02C006C0072DFF82
:109B1600EA3CCF24FFFDEF34FFFCA3E0FAA3E0FB11
:109B260090007EE0FEA3E0FF90007AE0F8A3E02F2D
:109B3600FFE83ECF24FFCF34FF900032F0A3EFF0D2
:109B4600D007D00612A053E4900083F0A3F0900053
:109B56007EE0FCA3E0FD90007CE0FEA3E0FF127E29
:109B6600EF900083E0FCA3E0FDC39FEC9E502FED39
:109B760025E0FFEC33FE900080E0FBA3E0FAA3E0D3
:109B8600F98F828E83127F97FFAEF012A62D90007A
:0E9B960084E004F070B8900083E004F080B02A
:019BA400229E
:10993F0090001BEEF0A3EFF0A3ECF0A3EDF0A3EA81
:06994F00F0FCA3EBF0FDAB
:1099550090001BE0FAA3E0FFAE02C006C0072DFF92
:10996500EA3CCF24FFFDEF34FFFCA3E0FAA3E0FBC4
:10997500900021E0FEA3E0FF90001DE0F8A3E02F9A
:10998500FFE83ECF24FFCF34FF900032F0A3EFF085
:10999500D007D00612A053E4900026F0A3F0900063
:1099A50021E0FCA3E0FD90001FE0FEA3E0FF127E96
:1099B500EFC3900027E09F900026E09E505E900048
:1099C50023E0FBA3E0FAA3E0F9A3E0FEA3E0F58220
:1099D5008E83127EB0FD543875F040A4FBED54E043
:1099E50045F0FCEBFD900023E0FBA3A3A3E0FEA361
:1099F500E0F5828E83127EB0540375F008A4FFEC67
:109A050045F0FEED4FFDAC06FF12A62D900027E0B8
:0C9A150004F0708A900026E004F08082CB
:019A21002222
:1081860090002CEEF0A3EFF0900030EAF0A3EBF0B5
:0881960090002EECF0A3EDF0C7
:10819E00900032E06C7003A3E06D7057900030E0F9
:1081AE00FEA3E0FF90002CE0FCA3E0FDD39FEC9E2D
:1081BE0090003650028008EEF0A3EFF0900030EC05
:1081CE00F0A3EDF0900030E0FCA3E0FD900036E06F
:1081DE00FEA3E0FFD39DEE9C400302865690002E38
:1081EE0012A399900037E004F070D9900036E004A5
:1081FE00F080D1900032E0FEA3E0FF90002EE0FC74
:10820E00A3E0FDD39FEC9E4006ED9FFFEC80139004
:10821E00002EE0FEA3E0FFC3900033E09FFF90002E
:10822E0032E09E90003CF0A3EFF0900030E0FEA311
:10823E00E0FF90002CE06E7003A3E06F705C900086
:10824E0032E0FEA3E0FF90002EE0FCA3E0FDD39F02
:10825E00EC9E90003850028008EEF0A3EFF09000F4
:10826E0032ECF0A3EDF0900032E0FEA3E0FF9000C0
:10827E0038E0FCA3E0FDD39FEC9E400302865690AF
:10828E00002CE0FEA3E0FF12A39E900039E004F064
:10829E0070D4900038E004F080CC900030E0FEA363
:1082AE00E0FF90002CE0FCA3E0FDD39FEC9E403D50
:1082BE00900030E0FAA3E0FBED9BFEEC9A90003AC2
:1082CE00F0A3CEF0900036EAF0A3EBF0900030EC85
:1082DE00F0A3EDF0A3E0FFA3E0900038CFF0A3EF02
:1082EE00F090002EE0FFA3E0900032802D90002C45
:1082FE00E0FAA3E0FBC3900031E09BFE900030E07B
:10830E009A90003AF0A3CEF0900036EAF0A3EBF08C
:10831E0090002EE0FFA3E0900038CFF0A3EFF09096
:10832E00003CE0FEA3E0FF90003AE06E7003A3E095
:10833E006F705A900030E0FEA3E0FFD3900037E05C
:10834E009F900036E09E4003028656A3E004F07034
:10835E0006900036E004F0900032E0FEA3E0FFD37A
:10836E00900039E09F900038E09E400EA3E024FF7D
:10837E00F0900038E034FFF0800E900039E004F009
:10838E007006900038E004F012A39080A612A3901D
:10839E00900032E0FEA3E0FFC3900039E09F900012
:1083AE0038E09E400302850690003CE0FEA3E0FF0D
:1083BE0090003AE0FCA3E0FD9FEC9E500302846522
:1083CE00EF25E0FBEE33FAC3EB9DFEEA9C90003EF8
:1083DE00F0A3CEF0A3EAF0A3EBF090003AE0FEA3F8
:1083EE00E0FFC390003DE09FFF90003CE09EFEEF5B
:1083FE0025E0FFEE33900042F0A3EFF0900030E066
:10840E00FEA3E0FFC3900037E09F900036E09E4051
:10841E0003028656A3E004F07006900036E004F0E6
:10842E00C390003EE064809480500590004080111F
:10843E00900039E004F07006900038E004F09000EF
:10844E0042E0FEA3E0FF90003FE02FF090003EE000
:07845E003EF012A39080A57F
:1084650090003BE025E0FB90003AE033FA90003CB9
:10847500E0FEA3E0FFC3EB9FFFEA9EA3F0A3EFF0AE
:10848500A3EAF0A3EBF090003CA3E0FFC390003B10
:10849500E09FFF90003AE09EFEEF25E0FFEE33906F
:1084A5000042F0A3EFF0900032E0FEA3E0FFC3909E
:1084B5000039E09F900038E09E4003028656A3E015
:1084C50004F07006900038E004F0C390003EE064CC
:1084D50080948050059000408011900037E004F0B2
:1084E5007006900036E004F0900042E0FEA3E0FF45
:1084F50090003FE02FF090003EE03EF012A3908008
:01850500A5D0
:1085060090003CE0FEA3E0FF90003AE0FCA3E0FD13
:09851600D39FEC9E50030285B6D0
:10851F00EF25E0FBEE33FAC3EB9DFEEA9C90003EA5
:10852F00F0A3CEF0A3EAF0A3EBF090003AE0FEA3A5
:10853F00E0FFC390003DE09FFF90003CE09EFEEF08
:10854F0025E0FFEE33900042F0A3EFF0900030E013
:10855F00FEA3E0FFC3900037E09F900036E09E40FF
:10856F0003028656A3E004F07006900036E004F094
:10857F00C390003EE06480948050059000408011CD
:10858F00900039E024FFF0900038E034FFF09000C5
:10859F0042E0FEA3E0FF90003FE02FF090003EE0AE
:0785AF003EF012A39080A52D
:1085B60090003BE025E0FB90003AE033FA90003C67
:1085C600E0FEA3E0FFC3EB9FFFEA9EA3F0A3EFF05C
:1085D600A3EAF0A3EBF090003CA3E0FFC390003BBE
:1085E600E09FFF90003AE09EFEEF25E0FFEE33901D
:1085F6000042F0A3EFF0900038E0FEA3E0FFC39046
:108606000033E09F900032E09E5045900039E02410
:10861600FFF0900038E034FFF0C390003EE0648045
:10862600948050059000408011900037E004F0706F
:1086360006900036E004F0900042E0FEA3E0FF90D2
:10864600003FE02FF090003EE03EF012A39080A69F
:018656002201
:108ADA00900085EEF0A3EFF0A3ECF0A3EDF0A3EA8B
:048AEA00F0A3EBF01A
:108AEE00E490008EF0A3F0900089E0FEA3E0FFD3A7
:108AFE0090008FE09F90008EE09E4003028EF4E087
:108B0E00FCA3E0FDFFAE04127EEFAA06AB079000B9
:108B1E0089E0FCA3E0FDFFAE04127EEFC3EF9BFDE8
:108B2E00EE9AFCE4127B33129BA9127B6C900090A0
:108B3E00EEF0A3EFF0900089E0FEA3E0FF90008638
:108B4E00E02FFF900085E03EFE90008FE02FFF901B
:108B5E00008EE03EFE900089E0FCA3E0FD900088D0
:108B6E00E02DFD900087E03CFC900091E02DFD9003
:108B7E000090E03CFC90008B12A3A1900089E0FED7
:108B8E00A3E0FF900086E02FFF900085E03EFE9070
:108B9E00008EE0FCA3E0FDC3EF9DFFEE9CFE900077
:108BAE0089E0FCA3E0FD900088E02DFD900087E0B9
:108BBE003CFC900090E0FAA3E0FBC3ED9BFDEC9A29
:108BCE00FC90008B12A3A1900089E0FEA3E0FF9021
:108BDE000086E02FFF900085E03EFE90008FE02F94
:108BEE00FF90008EE03EFE900089E0FCA3E0FD9039
:108BFE000088E02DFD900087E03CFC900090E0FAAC
:108C0E00A3E0FBC3ED9BFDEC9AFC90008B12A3A19D
:108C1E00900089E0FEA3E0FF900086E02FFF900019
:108C2E0085E03EFE90008EE0FCA3E0FDC3EF9DFFCD
:108C3E00EE9CFE900089E0FCA3E0FD900088E02D04
:108C4E00FD900087E03CFC900091E02DFD9000909F
:108C5E00E03CFC90008B12A3A1900089E0FEA3E003
:108C6E00FF900086E02FFF900085E03EFE90009181
:108C7E00E02FFF900090E03EFE900089E0FCA3E024
:108C8E00FD900088E02DFD900087E03CFC90008F69
:108C9E00E02DFD90008EE03CFC90008B12A3A19085
:108CAE000089E0FEA3E0FF900086E02FFF90008594
:108CBE00E03EFE900090E0FCA3E0FDC3EF9DFFEED2
:108CCE009CFE900089E0FCA3E0FD900088E02DFD65
:108CDE00900087E03CFC90008EE0FAA3E0FBC3ED31
:108CEE009BFDEC9AFC90008B12A3A1900089E0FEF4
:108CFE00A3E0FF900086E02FFF900085E03EFE90FF
:108D0E000091E02FFF900090E03EFE900089E0FC85
:108D1E00A3E0FD900088E02DFD900087E03CFC90E4
:108D2E00008EE0FAA3E0FBC3ED9BFDEC9AFC9000F5
:108D3E008B12A3A1900089E0FEA3E0FF900086E0D5
:108D4E002FFF900085E03EFE900090E0FCA3E0FD3A
:108D5E00C3EF9DFFEE9CFE900089E0FCA3E0FD902A
:108D6E000088E02DFD900087E03CFC90008FE02D08
:108D7E00FD90008EE03CFC90008B12A3A190008D24
:108D8E00E07003028EE0900089E0FEA3E0FF900009
:108D9E0086E02FFF900085E03EFE90008EE0FCA363
:108DAE00E0FDC3EF9DFFEE9CFEC006C0079000895C
:108DBE00E0FEA3E0FF900088E02FFF900087E03EEA
:108DCE00FE900090E0FCA3E0FDC3EF9DFDEE9CFC49
:108DDE00900089E0FEA3E0FF900085E0FAA3E02F6B
:108DEE00FFEA3EFE90008EE0FAA3E0FBC3EF9BFB92
:108DFE00EE9AFA900089E0FEA3E0FF900087E0F87B
:108E0E00A3E02FFFE83EFE900090E0F8A3E02FFFD6
:108E1E00E83E900032F0A3EFF090008BE0FFA3E06D
:108E2E00900034CFF0A3EFF0D007D00612818690D9
:108E3E000089E0FEA3E0FF900086E02FFF90008502
:108E4E00E03EFE90008FE02FFF90008EE03EFEC0D1
:108E5E0006C007900089E0FEA3E0FF900088E02F97
:108E6E00FF900087E03EFE900090E0FCA3E0FDC383
:108E7E00EF9DFDEE9CFC900089E0FEA3E0FF9000CC
:108E8E0085E0FAA3E02FFFEA3EFE90008EE0FAA303
:108E9E00E02FFBEA3EFA900089E0FEA3E0FF90008F
:108EAE0087E0F8A3E02FFFE83EFE900090E0F8A3E5
:108EBE00E02FFFE83E900032F0A3EFF090008BE041
:108ECE00FFA3E0900034CFF0A3EFF0D007D006124E
:108EDE00818690008FE004F06003028AF590008E88
:068EEE00E004F0028AF529
:018EF400225B
:1093C50090001DEEF0A3EFF0A3ECF0A3EDF0A3EAFF
:0D93D500F0A3EBF0900027E0700302947D00
:1093E200900021E0FCA3E0FD90001FE0FAA3E0FB67
:1093F200900023E0FFA3E0900032CFF0A3EFF090C3
:10940200001DE0FEA3E0FF12A05390001FE0FFA3A7
:10941200E0900028CFF0A3EFF0900023E0FEA3E05D
:10942200FFD3900029E09F900028E09E4003029520
:109432005790001DE0FFA3E090002ACFF0A3EFF0C9
:10944200900021E0FEA3E0FFD390002BE09F90006C
:109452002AE09E501690002512A62890002BE004C8
:10946200F070DD90002AE004F080D5900029E0043D
:0B947200F070A6900028E004F0809E3F
:10947D0090001DE0FAA3E0FBFFAE02C007A3E0FCE5
:10948D00A3E0FD900023E0FFA3E0900032CFF0A316
:10949D00EFF0900025E0FFA3E0900034CFF0A3EFB4
:1094AD00F0D007128186900023E0FCA3E0FD900030
:1094BD0021E0FAA3E0FBA3E0FFA3E0900032CFF0A0
:1094CD00A3EFF0900025E0FFA3E0900034CFF0A3D0
:1094DD00EFF090001DE0FEA3E0FF128186900021C9
:1094ED00E0FAA3E0FBFFAE02C007A3E0FCA3E0FDA2
:1094FD0090001FE0FFA3E0900032CFF0A3EFF090BB
:10950D000025E0FFA3E0900034CFF0A3EFF0D007EB
:10951D0012818690001FE0FCA3E0FD90001DE0FA93
:10952D00A3E0FBA3E0FFA3E0900032CFF0A3EFF0A8
:10953D00900025E0FFA3E0900034CFF0A3EFF09072
:0B954D000021E0FEA3E0FF1281862257
:109F9D00900096EAF0A3EBF0900092EEF0A3EFF0B4
:109FAD00A3ECF0A3EDF0C006C007A3E0FEA3E0FF15
:109FBD00900092E0FAA3E02FFBEA3EFA900094E0C5
:109FCD00F8A3E02FFFE83E900023F0A3EFF0900000
:109FDD0098E0FFA3E0900025CFF0A3EFF090009A5A
:0C9FED00E0900027F0D007D0060293C5DA
:1091E60090004DEEF0A3EFF0A3ECF0A3EDF0A3EAB0
:0691F600F0FCA3EBF0FD0C
:1091FC0090004DE0FAA3E0FFAE02C006C0072DFFC1
:10920C00EA3CCF24FFFDEF34FFFCA3E0FAA3E0FB24
:10921C00900053E0FEA3E0FF90004FE0F8A3E02F96
:10922C00FFE83ECF24FFCF34FF900032F0A3EFF0E5
:10923C00D007D00612A053E4900059F0A3F0900090
:10924C0053E0FCA3E0FD900051E0FEA3E0FF127E92
:10925C00EFC390005AE09F900059E09E40030293A8
:10926C00C4A3E025E0FF900059E033FE900055E0E8
:10927C00FBA3E0FAA3E0F98F828E83127F97FBAAFF
:10928C00F0EA54F8FE7F00900058E0F9FD7C0012E3
:10929C007EEFE4FD90005B128103EA5407FEEB5471
:1092AC00E0FFE9FD7C00127EEFE4FD90005F12818F
:1092BC000390005AE025E0FF900059E033FE900047
:1092CC0055E0FBA3E0FAA3E0F98F828E83127F971F
:1092DC007E00541FFF900058E0FD7C00127EEFE4EE
:1092EC00FD900063128103E47B20FAF9F890005B97
:1092FC00E0FCA3E0FDA3E0FEA3E0FF128057E4FF37
:10930C00EE54F8FEE4FDFC90005B128103E47B203C
:10931C00FAF9F890005FE0FCA3E0FDA3E0FEA3E007
:10932C00FF128057EF54E0FFEE5407FEE4FDFC9073
:10933C00005F128103E47B20FAF9F8900063E0FCF3
:10934C00A3E0FDA3E0FEA3E0FF128057EF541FFF44
:10935C00E4FEFDFC900063128103900063E0FCA32B
:10936C00E0FDA3E0FEA3E0FF90005BE0F8A3E0F9D2
:10937C00A3E0FAA3E04FFFEA4EFEE94DFDE84CFCFA
:10938C00A3E0F8A3E0F9A3E0FAA3E04FFFEA4EFE56
:10939C00E94DFDE84CFC90005B12810390005BA34F
:1093AC00A312A62890005AE004F0600302924A909F
:0893BC000059E004F002924A9E
:0193C4002286
:04A6C9004100A9049F
:10A5D9009000A9E0FF12A5EE439080E0FF12A5EEDE
:05A5E90053907FE0FF2C
:07A5EE00EF60031F80FA2259
:01A6DA00225D
:0CA6A900E49000A9F012A6DA53907F2282
:02A4B700AE07EE
:10A4B900E4FDEE30E70543902080035390DF12A5B9
:10A4C900D9EE25E0FEE59030E6010E0DEDB407E288
:02A4D900AF06CC
:01A4DB00225E
:02A4DC00AE07C9
:10A4DE00E4FDEE30E70543902080035390DF12A594
:10A4EE00D9EE25E0FEE59030E6010E0DEDB408E262
:02A4FE00AF06A7
:01A500002238
:10A35B00EF14601514601924FE601C24FC601F248C
:10A36B00087021E49000A9F0229000A97401F0225A
:10A37B009000A97402F0229000A97404F0229000BE
:05A38B00A97410F0228E
:0EA56400EB25E0FBEA33FAD29712A572C297FC
:0FA572007F0F7E00EF1F70011EEF64014E70F52A
:01A5810022B7
:10A1EC007D93C297C2CAE4FCED30E704D29580029D
:10A1FC00C295D29712A572C297ED25E0FD0CECB476
:10A20C0008E612A572E4FBFAFC12A564309604EB86
:10A21C004401FB0CECB40CF1E4FCD29712A572C215
:0CA22C00970CECB404F4D2CAAE02AF03ED
:01A238002203
:10A239007DD3C297C2CAE4FCED30E704D29580020F
:10A24900C295D29712A572C297ED25E0FD0CECB428
:10A2590008E612A572E4FBFAFC12A564309604EB39
:10A269004401FB0CECB40CF1E4FCD29712A572C2C8
:0CA27900970CECB404F4D2CAAE02AF03A0
:01A2850022B6
:10A286007DB3C297C2CAE4FCED30E704D2958002E2
:10A29600C295D29712A572C297ED25E0FD0CECB4DB
:10A2A60008E612A572E4FBFAFC12A564309604EBEC
:10A2B6004401FB0CECB40CF1E4FCD29712A572C27B
:0CA2C600970CECB404F4D2CAAE02AF0353
:01A2D2002269
:0B96D00090001DEBF0A3EAF0A3E9F00E
:1096DB00A312810F0000000090002412810F0000E4
:1096EB000000E4900030F012A286D3EF9464EE9465
:1096FB000050030297AA12A239EF7802C333CE337C
:10970B00CED8F9FF7C007D3B127F01E4FCFD90007D
:10971B002C12810312A1ECEF7802C333CE33CED8D7
:10972B00F9FF7C007D2C127F01E4FCFD90002812D8
:10973B00810312A286D3EF941EEE9400500302977E
:10974B00DD900020E0FCA3E0FDA3E0FEA3E0FF9092
:10975B000028E0F8A3E0F9A3E0FAA3E0FBEF2BFF6E
:10976B00EE3AFEED39FDEC38FC90002012810390AF
:10977B000024E0FCA3E0FDA3E0FEA3E0FF90002C9F
:10978B00E0F8A3E0F9A3E0FAA3E0FBEF2BFFEE3A3E
:10979B00FEED39FDEC38FC900024128103802490FF
:1097AB00001DE0FBA3E0FAA3E0F9E4F5F0127FCF94
:1097BB0090001DE0FBA3E0FAA3E0F9900002E4F5B2
:1097CB00F08075900030E004F0E0C3940650030283
:1097DB0096F2900030E0FBE4FAF9F8900020E0FC00
:1097EB00A3E0FDA3E0FEA3E0FF128057EF24F3FFFD
:1097FB00EE34FFF990001DE0FBA3E0FAA3E0C98F64
:10980B00F0127FCF900030E0FBE4FAF9F8900024DF
:10981B00E0FCA3E0FDA3E0FEA3E0FF128057C374BE
:10982B00049FFF74019EFE90001DE0FBA3E0FAA3D2
:0B983B00E0F9900002EE8FF0127FEECB
:0198460022FF
:06A61000C292D2937F010B
:10A61600E4FEE4FDEDC39F50030D80F80EEEB42872
:01A62600F142
:01A627002210
:0EA69B004392085391F712A612D29202A6160D
:10A65100D2927F0112A616D29312A616C29212A608
:04A6610016C2932268
:10A67700E490001FF012A6122092FDC2937F010200
:02A68700A61615
:08A6D20012A610C29302A616A5
:0BA6B50012A610D29212A616C2932229
:10A44300AC07E4FBEC30E70BD29212A612C293C224
:10A4530092800512A610C29312A616EC25E0FC0BFF
:07A46300EBB408E002A6774C
:10A49100D292E4FBEC25E0FC12A612EC209207F428
:10A4A1004401F4FC80034401FCC2930BEBB408E4C7
:05A4B10012A6D2AF0469
:01A4B6002283
:04A6CD004100AA900E
:10A68900E4FEE4FDEDC39F50030D80F80EEEB41413
:01A69900F1CF
:01A69A00229D
:10A3C0009000A7EFF0A3EDF012A6519000AAE0FFD5
:10A3D00012A4439000A7E0FF12A4439000A8E07FDE
:0FA3E0000012A4439000A8E0FF12A44302A6B508
:10A5230012A69B12A6519000AAE0FF12A4437F013A
:10A5330012A4437F6A12A44312A6B5E4FFFEFDFCF6
:01A5430022F5
:109F3A0012A6519000AAE0FF12A443E4FF12A44320
:109F4A0012A6519000AAE004FF12A44312A4919011
:109F5A00001DE4F0A3EFF0E0F8E4F0E890001DF053
:109F6A007F6412A68912A49190001EE02FF090003F
:109F7A001DE03400F012A6B590001DE0C4F854F0BC
:109F8A00C868FEA3E0C4540F48FF90001DEEF0A37A
:029F9A00EFF0E6
:019F9C0022A2
:109FF90090001DEEF0A3EFF0D39466EE9403404772
:10A00900E0943890001DE09404503C12A6517F2042
:10A0190012A4437FD012A4437F0912A44390001DC8
:10A02900A3E0249AFF12A4437F1312A443E4FF126E
:10A03900A4437F4012A4437F9012A4437F8812A4B3
:0AA049004312A6B57F01227F00221A
:10A41B0090001BEEF0A3EFF012A69B12A6517F202B
:10A42B0012A443E4FF12A4437F0212A44390001B27
:08A43B00E0FEA3E0FF029FF91F
:109EC200900023E4F0A3741EF0A374FFF0A374E0E7
:109ED200F0A37401F07B31FA7D0A7C007F1DFE1233
:109EE20093C5900023E4F0A3741EF0E4A3F0A3F062
:109EF200A3F07B317A017D0AFC7F1D7E011293C59E
:109F0200900032E4F0A3741DF0E4A3F0A3F07B30E0
:109F12007A017D0AFC7F1D7E01128186900032E467
:109F2200F0A3741EF0E4A3F0A3F07B1D7A017D0A76
:089F3200FC7F317E01028186F3
:10A0AA00127F6CFFAEF0D3941DEE94014044EF94FE
:10A0BA0031EE9401503C900002127F97FFAEF0D32C
:10A0CA00940AEE9400402BEF941EEE9400502390D5
:10A0DA000023E4F0A3741EF0A374F8F0A3E4F0A341
:10A0EA00F07B317A017D0AFC7F1D7E011293C57FC8
:05A0FA0001227F00229D
:08A19E00900067EEF0A3EFF062
:10A1A600900070EEF0A3EFF0A3ECF0A3EDF09000BA
:10A1B6006EE0FEA3E07803C333CE33CED8F9FF902A
:10A1C6000074EEF0A3EFF0A3E4F0A3740AF090009D
:10A1D60067E0FEA3E0FFE4900024F0A3F074FFA381
:06A1E600F0A3F0029CFA58
:10A0FF0012A3EFE4FFFE12A31B900021E4F0A37460
:10A10F0050F0A374FFF0A37400F0A37403F07B501E
:10A11F007A007D507C007F327E0012993F900021A3
:10A12F00E4F0A37450F0A374FFF0A37450F0A37481
:10A13F001BF07B507A007D507C007FBE7E00029921
:01A14F003FD0
:10A2D300900021E4F0A37444F0A374FFF0A3741C72
:10A2E300F0A3740BF07B627A007D797C007F3D7E66
:10A2F3000012993F900021E4F0A37444F0A374FF8B
:10A30300F0A37436F0A37413F07B627A007D797C3A
:08A31300007FA17E0002993FCA
:109C51007B017A0079011296D0900001E0FEA3E029
:109C6100FFD39432EE9400403EEF9482EE94005084
:109C710036A3E0FEA3E0FF9450EE94004029EF9458
:109C8100A0EE94005021900023E4F0A374A0F0A36F
:109C910074F8F0A3E4F0A3F07B82FA7D50FC7F32EC
:109CA100FE1293C57F0122900001E0FEA3E0FFD3E5
:109CB10094BEEE94004099EF940EEE94015091A35E
:109CC100E0FEA3E0FF9450EE94004084EF94A0EEF8
:109CD10094004003029C51900023E4F0A374A0F08F
:109CE100A374F8F0A3E4F0A3F07B0E7A017D50FC9D
:089CF1007FBEFE1293C57F0245
:019CF9002248
:1000030000000000000000000000000000000000ED
:1000130000000000000000000000000000000000DD
:1000230000000000000000000000000000000000CD
:1000330000000000000000000000000000000000BD
:1000430000000000000000000000000000000000AD
:10005300000000000000000000000000000000009D
:10006300000000000004050500000000000000007F
:10007300000000000000000000000000000000007D
:10008300000000000000000000000000000000006D
:10009300000000000000000000000000000000005D
:1000A300000000000000000000000000000000004D
:1000B300000000000505050505050000000000001F
:1000C300000000000000000000000000000000002D
:1000D300000000000000000000000000000000001D
:1000E300000000000000000000000000000000000D
:1000F30000000000000000000000000000000000FD
:1001030000000005054E926E05050000000000008A
:1001130000000000000000000000000000000000DC
:1001230000000000000000000000000000000000CC
:1001330000000000000000000000000000000000BC
:1001430000000000000000000000000000000000AC
:10015300000004054EFFFFFFB60505000000000088
:10016300000000000000000000000000000000008C
:10017300000000000000000000000000000000007C
:10018300000000000000000000000000000000006C
:10019300000000000000000000000000000000005C
:1001A30000000505B6FFFFFFFF4E0500000000003D
:1001B300000000000000000000000000000000003C
:1001C300000000000000000000000000000000002C
:1001D300000000000000000000000000000000001C
:1001E300000000000000000000000000000000000C
:1001F3000000052996DBFFFFFF4E0500000000000D
:1002030000000000000000000000000000000000EB
:1002130000000000000000000000000000000000DB
:1002230000000000000000000000000000000000CB
:1002330000000000000000000000000000000000BB
:100243000000052996BBFFFFFF4E050000000000DC
:10025300000000000000000000000000000000009B
:10026300000000000000000000000000000000008B
:10027300000000000000000000000000000000007B
:10028300000000000000000000000000000000006B
:100293000000052996BBFFFFFF4E0500000000008C
:1002A300000000000000000000000000000000004B
:1002B300000000000000000000000000000000003B
:1002C300000000000000000000000000000000002B
:1002D300000000000000000000000000000000001B
:1002E3000000052996BBFFFFFF4E0500000000003C
:1002F30000000000000000000000000000000000FB
:1003030000000000000000000000000000000000EA
:1003130000000000000000000000000000000000DA
:1003230000000000000000000000000000000000CA
:100333000000052996BBFFFFFF4E050000000000EB
:1003430000000000000000000000000000000000AA
:10035300000000000000000000000000000000009A
:10036300000000000000000000000000000000008A
:10037300000000000000000000000000000000007A
:100383000000052996BBFFFFFF4E0500000000009B
:10039300000000000000000000000000000000005A
:1003A300000000000000000000000000000000004A
:1003B300000000000000000000000000000000003A
:1003C300000000000000000000000000000000002A
:1003D3000000052996BBFFFFFF4E0500000000004B
:1003E300000000000000000000000000000000000A
:1003F30000000000000000000000000000000000FA
:1004030000000000000000000000000000000000E9
:1004130000000000000000000000000000000000D9
:100423000000052996BBFFFFFF4E050000000000FA
:1004330000000000000000000000000000000000B9
:1004430000000000000000000000000000000000A9
:100453000000000000000000000000000000000099
:100463000000000000000000000000000000000089
:100473000000052996BBFFFFFF4E050000000000AA
:100483000000000000000000000000000000000069
:100493000000000000000000000000000000000059
:1004A3000000000000000000000000000000000049
:1004B3000000000000000000000000000000000039
:1004C3000000052996BBFFFFFF4E0500000000005A
:1004D3000000000000000000000000000000000019
:1004E3000000000000000000000000000000000009
:1004F30000000000000000000000000000000000F9
:1005030000000000000000000000000000000000E8
:100513000000052996BBFFFFFF4E05000000000009
:1005230000000000000000000004050505040000B1
:1005330000000000000000000000000000000000B8
:1005430000000000000000000000000000000000A8
:100553000000000000000000000000000000000098
:100563000000052996BBFFFFFF4E050000000000B9
:100573000000000000000005050505050505040051
:100583000000000000000000000000000000000068
:100593000000000000000000000000000000000058
:1005A3000000000000000000000000000000000048
:1005B3000000052996BBFFFFFF4E05000000000069
:1005C3000000000000000505050505054E4E4E051B
:1005D3000000000000000000000000000000000018
:1005E3000000000000000000000000000000000008
:1005F30000000000000000000000000000000000F8
:100603000000052996BBFFFFFF4E05000000000018
:100613000000000000000505050529DBFFFFFFDBE7
:10062300050000000005050505050505050000009A
:1006330000000000000000000000000000000000B7
:1006430000000000000000000000000000000000A7
:100653000000052996BBFFFFFF4E050000000000C8
:1006630000000000000505050529FFFFFFDBFFFF74
:10067300BB0004050505050505050505050505007C
:100683000000000000000000000000000000000067
:100693000000000000000000000000000000000057
:1006A3000000052996BBFFFFFF4E05000000000078
:1006B30000000000000505050592FFDB29056EFF1C
:1006C300FF4E0505050505054E729292724E2505EE
:1006D3000000000000000000000000000000000017
:1006E3000000000000000000000000000000000007
:1006F3000000052996BBFFFFFF4E05000000000028
:10070300000000000005050505DBFF72050505DB9C
:10071300FF720505050572DBFFFFFFFFFFFFFF9279
:1007230005000000000000000000000000000000C1
:1007330000000000000000000000000000000000B6
:100743000000052996BBFFFFFF4E050000000000D7
:10075300000000000005050505FFFF4E050505DB4C
:10076300FF7205054EDBFFFFFFFFFFFFFFFFFFFFEC
:10077300DF2900000000000000000000000000006E
:100783000000000000000000000000000000000066
:100793000000052996BBFFFFFF4E05000000000087
:1007A300000000000005050505DBFF92050529FF94
:1007B300FF6E054EFFFFFFFFFFFFDBDBDBFFFFFFEE
:1007C300FFFF2900000000000000000000000000FF
:1007D3000000000000000000000000000000000016
:1007E3000000052996BBFFFFFF4E05000000000037
:1007F300000000000005050505B6FFFF4E29BBFFFD
:10080300DB0529FFFFFFFFDB6E25050505296EDFED
:10081300FFFFFF04000000000000000000000000D4
:1008230000000000000000000000000000000000C5
:100833000000052996DBFFFFFF4E050000000000C6
:1008430000000000000405050529FFFFFFFFFFFF6F
:100853004E05DBFFFFFFB605000505050505052968
:10086300FFFFFF92000000000000000000000000F6
:100873000000000000000000000000000000000075
:1008830000000525E9E9EDEDED400500000000005D
:10089300000000000000050505054EDBFFFFDB4EF1
:1008A3000572FFFFFFB60000000000000505050507
:1008B30072FFFFFF050000000000000000000000C1
:1008C3000000000000000000000000000000000025
:1008D30000000525A0C0E0E0E040050000000000A6
:1008E3000000000000000005050505052929050590
:1008F30005DBFFFFDF000000000000000405050525
:1009030029FFFFFF4E000000000000000000000070
:1009130000000000000000000000000000000000D4
:1009230000000525A0C0E0E0E04005000000000055
:10093300000000000000000004050505050505058D
:100943004EFFFFFF4E0000000000000000050505FC
:1009530005DBFFFF92000000000000000000000024
:100963000000000000000000000000000000000084
:1009730000000525A0C0E0E0E04005000000000005
:10098300000000000000000000000004050505054C
:10099300B6FFFFDB000000000000000000050505B6
:1009A3000592FFFF6E000000000000000000000041
:1009B3000000000000000000000000000000000034
:1009C30000000525A0C0E0E0E040050000000000B5
:1009D3000000000000000000000000000505050500
:1009E300DFFFFF72000000000000000000040505A7
:1009F3000529DBB600000000000000000000000035
:100A030000000000000000000000000000000000E3
:100A130000000525A0C0E0E0E04005000000000064
:100A2300000000000000000000000000050505298B
:100A3300FFFFFF2500000000000000000000050587
:100A43000505050000000000000000000000000094
:100A53000000000000000000000000000000000093
:100A630000000525A0C0E0E0E04005000000000014
:100A73000000000000000000000000040505054E12
:100A8300FFFFFF0000000000000000000000000066
:100A9300040000000000000000000000000000004F
:100AA3000000000000000000000000000000000043
:100AB30000000525A0C0E0E0E040050000000000C4
:100AC300000000000000000000000004050505729E
:100AD300FFFFDB000000000000000000000000003A
:100AE3000000000000000000000000000000000003
:100AF30000000000000000000000000000000000F3
:100B030000000525A0C0E0E0E04005000000000073
:100B1300000000000000000000000005050505922C
:100B2300FFFFBB0000000000000000000000000009
:100B330000000000000000000000000000000000B2
:100B430000000000000000000000000000000000A2
:100B530000000525A0C0E0E0E04005000000000023
:100B630000000000000000000000000505050592DC
:100B7300FFFFB600000000000000000000000000BE
:100B83000000000000000000000000000000000062
:100B93000000000000000000000000000000000052
:100BA30000000525A0C0E0E0E040050000000000D3
:100BB300000000000000000000000005050505928C
:100BC300FFFFB6000000000000000000000000006E
:100BD3000000000000000000000000000000000012
:100BE3000000000000000000000000000000000002
:100BF30000000525A0C0E0E0E04005000000000083
:100C0300000000000000000000000005050505923B
:100C1300FFFFB7000000000000000000000000001C
:100C230000000000000000000000000000000000C1
:100C330000000000000000000000000000000000B1
:100C430000000525A0C0E0E0E04005000000000032
:100C5300000000000000000000000004050505720C
:100C6300FFFFDB000000000000000000000004059F
:100C73000505050000000000000000000000000062
:100C83000000000000000000000000000000000061
:100C930000000525A0C0E0E0E040050000000000E2
:100CA30000000000000000000000000405050572BC
:100CB300FFFFDB000000000000000000000005054E
:100CC300050505050000000000000000000000000D
:100CD3000000000000000000000000000000000011
:100CE30000000525A0C0E0E0E04005000000000092
:100CF3000000000000000000000000000505054E94
:100D0300FFFFFF04000000000000000000040505D1
:100D13000529DBDB250000000000000000000000C7
:100D230000000000000000000000000000000000C0
:100D330000000525A0C0E0E0E04005000000000041
:100D43000000000000000000000000000505052968
:100D5300FFFFFF290000000000000000000505055B
:100D63000592FFFFB6000000000000000000000035
:100D73000000000000000000000000000000000070
:100D830000000525A0C0E0E0E040050000000000F1
:100D9300000000000000000000000000050505053C
:100DA300DBFFFF72000000000000000000050505E6
:100DB30005DBFFFFB600000000000000000000009C
:100DC3000000000000000000000000000000000020
:100DD30000000525A0C0E0E0E040050000000000A1
:100DE30000000000000000000000000005050505EC
:100DF300B6FFFFDB0000000000000000050505054D
:100E030029FFFFFF6E00000000000000000000004B
:100E130000000000000000000000000000000000CF
:100E230000000525A0C0E0E0E04005000000000050
:100E3300000000000000000000000000040505059C
:100E43004EFFFFFF4E0000000000000405050505EE
:100E530072FFFFFF250000000000000000000000FB
:100E6300000000000000000000000000000000007F
:100E730000000525A0C0E0E0E04005000000000000
:100E83000000000000000000000000000005050550
:100E930005DBFFFFDB050000000005050505050573
:100EA300FFFFFFDB00000000000000000000000067
:100EB300000000000000000000000000000000002F
:100EC30000000525A0C0E0E0E040050000000000B0
:100ED3000000000000000000000000000005050500
:100EE3000572FFFFFFB6050505050505050505B6F2
:100EF300FFFFFF4E000000000000000000000000A4
:100F030000000000000000000000000000000000DE
:100F130000000525A0C0E0E0E0400500000000005F
:100F230000000000000000000000000000000505B4
:100F33000505DBFFFFFFDB29050505050529B6FFD1
:100F4300FFFFB600000000000000000000000000EA
:100F5300000000000000000000000000000000008E
:100F630000000525A0C0E0E0E0400500000000000F
:100F73000000000000000000000000000000050564
:100F8300050529FFFFFFFFFFB7727272B6FFFFFF70
:100F9300FFFF05000000000000000000000000004B
:100FA300000000000000000000000000000000003E
:100FB30000000525A0C0E0E0E040050000000000BF
:100FC3000000000000000000000000000000000519
:100FD3000505054EFFFFFFFFFFFFFFFFFFFFFFFFBD
:100FE300DF250000000000000000000000000000FA
:100FF30000000000000000000000000000000000EE
:1010030000000525A0C0E0E0E0400500000000006E
:1010130000000000000000000000000000000000CD
:101023000505050529DBFFFFFFFFFFFFFFFFFFB6F8
:1010330005000000000000000000000000000000A8
:10104300000000000000000000000000000000009D
:1010530000000525A0C0E0E0E0400500000000001E
:10106300000000000000000000000000000000007D
:101073000005050505056EB7DFFFFFDFBB7229001D
:10108300000000000000000000000000000000005D
:10109300000000000000000000000000000000004D
:1010A30000000525A0C0E0E0E040050000000000CE
:1010B300000000000000000000000000000000002D
:1010C30000000505050505050525050505000000C6
:1010D300000000000000000000000000000000000D
:1010E30000000000000000000000000000000000FD
:1010F30000050525A0C0E0E0E04005050000000074
:1011030000000000000000000000000000000000DC
:1011130000000000000505050504000000000000B4
:1011230000000000000000000000000000000000BC
:1011330000000000000000000000000000000000AC
:1011430005050505A0A0C0E0C06005050500000079
:10115300000000000000000000000000000000008C
:10116300000000000000000000000000000000007C
:10117300000000000000000000000000000000006C
:101183000000000000000000000000000000000557
:10119300050560E0E0E0C0C0A0E0C0400505000038
:1011A300000000000000000000000000000000003C
:1011B300000000000000000000000000000000002C
:1011C300000000000000000000000000000000001C
:1011D3000000000000000000000000000000040503
:1011E3000580E0E0E0E0E0E0E0E0E0E0400505006D
:1011F30000000000000000000000000000000000EC
:1012030000000000000000000000000000000000DB
:1012130000000000000000000000000000000000CB
:1012230000000000000000000000000000000505B1
:1012330080E0E0E4E4E4E0E0E0E0E0E0E005050095
:10124300000000000000000000000000000000009B
:10125300000000000000000000000000000000008B
:10126300000000000000000000000000000000007B
:10127300000000000000000000000000000405055D
:10128300E0E0E4E9E9E4E0E0E0E0E0E0E0A0050537
:10129300000000000000000000000000000000004B
:1012A300000000000000000000000000000000003B
:1012B300000000000000000000000000000000002B
:1012C3000000000000000000000000000005058091
:1012D300E0E4E9E9E4E4E0E0E0E0E0E0E0E0400568
:1012E30000000000000000000000000000000000FB
:1012F30000000000000000000000000000000000EB
:1013030000000000000000000000000000000000DA
:10131300000000000000000000000000000525C0E0
:10132300E0E4E4E4E4E0E0E0E0E0E0E0E0E08005E5
:1013330000000000000000000000000000000000AA
:10134300000000000000000000000000000000009A
:10135300000000000000000000000000000000008A
:10136300000000000000000000000000000540C075
:10137300E0E0E4E4E0E0E0E0E0E0E0E0E0E0A0057D
:10138300000000000000000000000000000000005A
:10139300000000000000000000000000000000004A
:1013A300000000000000000000000000000000003A
:1013B300000000000000000000000000040560C001
:1013C300E0E0E0E0E0E0E0E0E0E0E0E0E0E0C00515
:1013D300000000000000000000000000000000000A
:1013E30000000000000000000000000000000000FA
:1013F30000000000000000000000000000000000EA
:10140300000000000000000000000000040560A0D0
:10141300E0E0E0E0E0E0E0E0E0E0E0E0E0E0A005E4
:1014230000000000000000000000000000000000B9
:1014330000000000000000000000000000000000A9
:101443000000000000000000000000000000000099
:10145300000000000000000000000000040560A080
:10146300C0E0E0E0E0E0E0E0E0E0E0E0E0E0A005B4
:101473000000000000000000000000000000000069
:101483000000000000000000000000000000000059
:101493000000000000000000000000000000000049
:1014A300000000000000000000000000040560A030
:1014B300C0E0E0E0E0E0E0E0E0E0E0E0E0C08005A4
:1014C3000000000000000000000000000000000019
:1014D3000000000000000000000000000000000009
:1014E30000000000000000000000000000000000F9
:1014F300000000000000000000000000000540A004
:10150300A0C0E0E0E0E0E0E0E0E0E0E0E0C06005B3
:1015130000000000000000000000000000000000C8
:1015230000000000000000000000000000000000B8
:1015330000000000000000000000000000000000A8
:10154300000000000000000000000000000525A0CE
:10155300A0C0E0E0E0E0E0E0E0E0E0E0C0A00505FE
:101563000000000000000000000000000000000078
:101573000000000000000000000000000000000068
:101583000000000000000000000000000000000058
:1015930000000000000000000000000000050560DE
:1015A300A0A0C0E0E0E0E0E0E0E0E0C0C080050033
:1015B3000000000000000000000000000000000028
:1015C3000000000000000000000000000000000018
:1015D3000000000000000000000000000000000008
:1015E30000000000000000000000000000040525CA
:1015F300C0A0A0C0E0E0E0E0E0E0C0A0A0050500DE
:1016030000000000000000000000000000000000D7
:1016130000000000000000000000000000000000C7
:1016230000000000000000000000000000000000B7
:10163300000000000000000000000000000005059D
:1016430060C0A0A0E0E0E0E0E0C0A0A005050000CD
:101653000000000000000000000000000000000087
:101663000000000000000000000000000000000077
:101673000000000000000000000000000000000067
:10168300000000000000000000000000000004054E
:101693000560C0A0A0A0C0C0A0A0800505050000F3
:1016A3000000000000000000000000000000000037
:1016B3000000000000000000000000000000000027
:1016C3000000000000000000000000000000000017
:1016D3000000000000000000000000000000000502
:1016E3000505256080808080804005050500000099
:1016F30000000000000000000000000000000000E7
:1017030000000000000000000000000000000000D6
:1017130000000000000000000000000000000000C6
:1017230000000000000000000000000000000000B6
:1017330004050505252525250505050400000000EC
:101743000000000000000000000000000000000096
:101753000000000000000000000000000000000086
:101763000000000000000000000000000000000076
:101773000000000000000000000000000000000066
:101783000000040505050505050400000000000030
:101793000000000000000000000000000000000046
:1017A3000000000000000000000000000000000036
:1017B3000000000000000000000000000000000026
:1017C3000000000000000000000000000000000016
:1054AB0000000000000000000000E5E5E5E5E5E593
:1054BB0000000000000000000000000000000000E1
:1054CB0000000000000000000000000000000000D1
:1054DB0000000000000000000000000000000000C1
:1054EB0000000000000000000000000000000000B1
:1054FB0000000000000000000000E5E5E5E5E5E543
:10550B000000000000000000000000000000000090
:10551B000000000000000000000000000000000080
:10552B000000000000000000000000000000000070
:10553B000000000000000000000000000000000060
:10554B0000000000000000000000E5E5E5E5E5E5F2
:10555B000000000000000000000000000000000040
:10556B000000000000000000000000000000000030
:10557B0000000000000000000000E5E5E500000071
:10558B000000000000000000000000000000000010
:10559B0000000000000000000000E5E5E5E5E5E5A2
:1055AB0000000000000000000000000000000000F0
:1055BB0000000000E5E5E500000000000000000031
:1055CB00000000000000000000E5E5E5E5E5000057
:1055DB0000000000000000000000000000000000C0
:1055EB0000000000000000000000E5E5E5E5E5E552
:1055FB0000000000000000000000000000000000A0
:10560B00000000E5E5E5E5E5000000000000000016
:10561B000000000000000000E5E5E5E5E5E5000021
:10562B00000000000000000000000000000000006F
:10563B0000000000000000000000E5E5E5E5E5E501
:10564B00000000000000000000000000000000004F
:10565B00000000E5E5E5E5E50000000000000000C6
:10566B000000000000000000E5E5E5E5E5E50000D1
:10567B00000000000000000000000000000000001F
:10568B0000000000000000000000E5E5E5E5E5E5B1
:10569B0000000000000000000000000000000000FF
:1056AB00000000E5E5E5E5E5E50000000000000091
:1056BB0000000000000000E5E5E5E5E5E500000081
:1056CB0000000000000000000000000000000000CF
:1056DB0000000000000000000000E5E5E5E5E5E561
:1056EB0000000000000000000000000000000000AF
:1056FB0000000000E5E5E5E5E5E500000000000041
:10570B00000000000000E5E5E5E5E5E50000000030
:10571B00000000000000000000000000000000007E
:10572B0000000000000000000000E5E5E5E5E5E510
:10573B00000000000000000000000000000000005E
:10574B0000000000E5E5E5E5E5E5000000000000F0
:10575B00000000000000E5E5E5E5E5E500000000E0
:10576B00000000000000000000000000000000002E
:10577B0000000000000000000000E5E5E5E5E5E5C0
:10578B00000000000000000000000000000000000E
:10579B000000000000E5E5E5E5E5E50000000000A0
:1057AB000000000000E5E5E5E5E5E5000000000090
:1057BB0000000000000000000000000000000000DE
:1057CB0000000000000000000000E5E5E5E5E5E570
:1057DB0000000000000000000000000000000000BE
:1057EB00000000000000E5E5E5E5E5E50000000050
:1057FB0000000000E5E5E5E5E5E500000000000040
:10580B00000000000000000000000000000000008D
:10581B0000000000000000000000E5E5E5E5E5E51F
:10582B00000000000000000000000000000000006D
:10583B00000000000000E5E5E5E5E5E500000000FF
:10584B00000000E5E5E5E5E5E5E50000000000000A
:10585B000000000000000000000000000000E5E573
:10586B00E5E5E5E5000000000000E5E5E5E5E5E53B
:10587B00000000000000000000000000000000001D
:10588B0000000000000000E5E5E5E5E5E5000000AF
:10589B00000000E5E5E5E5E5E5000000000000009F
:1058AB000000000000000000000000000000E5E523
:1058BB00E5E5E5E5000000000000E5E5E5E5E5E5EB
:1058CB0000000000000000000000000000000000CD
:1058DB0000000000000000E5E5E5E5E5E50000005F
:1058EB000000E5E5E5E5E5E500000000000000004F
:1058FB000000000000000000000000000000E5E5D3
:10590B00E5E5E5E5000000000000E5E5E5E5E5E59A
:10591B00000000000000000000000000000000007C
:10592B000000000000000000E5E5E5E5E5E500000E
:10593B0000E5E5E5E5E5E5000000000000000000FE
:10594B000000000000000000000000000000E5E582
:10595B00E5E5E5E5000000000000E5E5E5E5E5E54A
:10596B00000000000000000000000000000000002C
:10597B00000000000000000000E5E5E5E5E5E500BE
:10598B00E5E5E5E5E5E5E5000000000000000000C9
:10599B000000000000000000000000000000E5E532
:1059AB00E5E5E5E5000000000000E5E5E5E5E5E5FA
:1059BB0000000000000000000000000000000000DC
:1059CB00000000000000000000E5E5E5E5E5E5006E
:1059DB00E5E5E5E5E5E5000000000000000000005E
:1059EB000000000000000000000000000000E5E5E2
:1059FB00E5E5E5E5000000000000E5E5E5E5E5E5AA
:105A0B00000000000000000000000000000000008B
:105A1B0000000000000000000000E5E5E5E5E5E51D
:105A2B00E5E5E5E5E50000000000000000000000F2
:105A3B000000000000000000000000000000E5E591
:105A4B00E5E5E5E5000000000000E5E5E5E5E5E559
:105A5B00000000000000000000000000000000003B
:105A6B000000000000000000000000E5E5E5E5E5B2
:105A7B00E5E5E5E500000000000000000000000087
:105A8B000000000000000000000000000000E5E541
:105A9B00E5E5E5E5000000000000E5E5E5E5E5E509
:105AAB0000000000000000000000000000000000EB
:105ABB000000000000000000000000E5E5E5E5E562
:105ACB00E5E5E5E500000000000000000000000037
:105ADB000000000000000000000000000000E5E5F1
:105AEB00E5E5E5E5000000000000E5E5E5E5E5E5B9
:105AFB00000000000000000000000000000000009B
:105B0B00000000000000000000000000E5E5E5E5F6
:105B1B00E5E5E5E5000000000000000000000000E6
:105B2B000000000000000000000000000000E5E5A0
:105B3B00E5E5E5E5000000000000E5E5E5E5E5E568
:105B4B00000000000000000000000000000000004A
:105B5B00000000000000000000000000E5E5E5E5A6
:105B6B00E5E5E5E500000000000000000000000096
:105B7B000000000000000000000000000000E5E550
:105B8B00E5E5E5E5000000000000E5E5E5E5E5E518
:105B9B0000000000000000000000000000000000FA
:105BAB00000000000000000000000000E5E5E5E556
:105BBB00E5E5E5E500000000000000000000000046
:105BCB000000000000000000000000000000E5E500
:105BDB00E5E5E5E5000000000000E5E5E5E5E5E5C8
:105BEB0000000000000000000000000000000000AA
:105BFB00000000000000000000000000E5E5E5E506
:105C0B00E5E5E5E5000000000000000000000000F5
:105C1B000000000000000000000000000000E5E5AF
:105C2B00E5E5E5E5000000000000E5E5E5E5E5E577
:105C3B000000000000000000000000000000000059
:105C4B00000000000000000000000000E5E5E5E5B5
:105C5B00E5E5E5E5000000000000000000000000A5
:105C6B0000000000E5E5E5E5E5E500000000E5E501
:105C7B00E5E5E5E5000000000000E5E5E5E5E5E527
:105C8B000000000000000000000000000000000009
:105C9B00000000000000000000000000E5E5E5E565
:105CAB00E5E5E5E500000000000000000000000055
:105CBB0000000000E5E5E5E5E5E500000000E5E5B1
:105CCB00E5E5E5E5000000000000E5E5E5E5E5E5D7
:105CDB0000000000000000000000000000000000B9
:105CEB00000000000000000000000000E5E5E5E515
:105CFB00E5E5E5E500000000000000000000000005
:105D0B0000000000E5E5E5E5E5E500000000E5E560
:105D1B00E5E5E5E5000000000000E5E5E5E5E5E586
:105D2B000000000000000000000000000000000068
:105D3B00000000000000000000000000E5E5E5E5C4
:105D4B00E5E5E5E5000000000000000000000000B4
:105D5B0000000000E5E5E5E5E5E500000000E5E510
:105D6B00E5E5E5E5000000000000E5E5E5E5E5E536
:105D7B000000000000000000000000000000000018
:105D8B00000000000000000000000000E5E5E5E574
:105D9B00E5E5E5E500000000000000000000000064
:105DAB0000000000E5E5E5E5E5E500000000E5E5C0
:105DBB00E5E5E5E5000000000000E5E5E5E5E5E5E6
:105DCB0000000000000000000000000000000000C8
:105DDB00000000000000000000000000E5E5E5E524
:105DEB00E5E5E5E500000000000000000000000014
:105DFB0000000000E5E5E5E5E5E500000000E5E570
:105E0B00E5E5E5E5000000000000E5E5E5E5E5E595
:105E1B000000000000000000000000000000000077
:105E2B00000000000000000000000000E5E5E5E5D3
:105E3B00E5E5E5E5000000000000000000000000C3
:105E4B0000000000E5E5E5E5E5E500000000E5E51F
:105E5B00E5E5E5E5000000000000E5E5E5E5E5E545
:105E6B000000000000000000000000000000000027
:105E7B00000000000000000000000000E5E5E5E583
:105E8B00E5E5E5E500000000000000000000000073
:105E9B0000000000E5E5E5E5E5E500000000E5E5CF
:105EAB00E5E5E5E5000000000000E5E5E5E5E5E5F5
:105EBB0000000000000000000000000000000000D7
:105ECB00000000000000000000000000E5E5E5E533
:105EDB00E5E5E5E500000000000000000000000023
:105EEB0000000000E5E5E5E5E5E500000000E5E57F
:105EFB00E5E5E5E5000000000000E5E5E5E5E5E5A5
:105F0B000000000000000000000000000000000086
:105F1B00000000000000000000000000E5E5E5E5E2
:105F2B00E5E5E5E5000000000000000000000000D2
:105F3B0000000000E5E5E5E5E5E500000000E5E52E
:105F4B00E5E5E5E5000000000000E5E5E5E5E5E554
:105F5B000000000000000000000000000000000036
:105F6B00000000000000000000000000E5E5E5E592
:105F7B00E5E5E5E500000000000000000000000082
:105F8B0000000000E5E5E5E5E5E500000000E5E5DE
:105F9B00E5E5E5E5000000000000E5E5E5E5E5E504
:105FAB0000000000000000000000000000000000E6
:105FBB00000000000000000000000000E5E5E5E542
:105FCB00E5E5E5E500000000000000000000000032
:105FDB0000000000E5E5E5E5E5E500000000E5E58E
:105FEB00E5E5E5E5000000000000E5E5E5E5E5E5B4
:105FFB000000000000000000000000000000000096
:10600B00000000000000000000000000E5E5E5E5F1
:10601B00E5E5E5E5000000000000000000000000E1
:10602B0000000000E5E5E5E5E5E500000000E5E53D
:10603B00E5E5E5E5000000000000E5E5E5E5E5E563
:10604B000000000000000000000000000000000045
:10605B00000000000000000000000000E5E5E5E5A1
:10606B00E5E5E5E500000000000000000000000091
:10607B0000000000E5E5E5E5E5E500000000E5E5ED
:10608B00E5E5E5E5000000000000E5E5E5E5E5E513
:10609B0000000000000000000000000000000000F5
:1060AB00000000000000000000000000E5E5E5E551
:1060BB00E5E5E5E500000000000000000000000041
:1060CB0000000000E5E5E5E5E5E500000000E5E59D
:1060DB00E5E5E5E5000000000000E5E5E5E5E5E5C3
:1060EB0000000000000000000000000000000000A5
:1060FB00000000000000000000000000E5E5E5E501
:10610B00E5E5E5E5000000000000E5E5E5E5E5E592
:10611B0000000000E5E5E5E5E5E500000000E5E54C
:10612B00E5E5E5E5000000000000E5E5E5E5E5E572
:10613B000000000000000000000000000000000054
:10614B00000000000000000000000000E5E5E5E5B0
:10615B00E5E5E5E5000000000000E5E5E5E5E5E542
:10616B0000000000E5E5E5E5E5E500000000E5E5FC
:10617B00E5E5E5E5000000000000E5E5E5E5E5E522
:10618B000000000000000000000000000000000004
:10619B00000000000000000000000000E5E5E5E560
:1061AB00E5E5E5E5000000000000E5E5E5E5E5E5F2
:1061BB0000000000E5E5E5E5E5E500000000E5E5AC
:1061CB00E5E5E5E5000000000000E5E5E5E5E5E5D2
:1061DB0000000000000000000000000000000000B4
:1061EB00000000000000000000000000E5E5E5E510
:1061FB00E5E5E5E5000000000000E5E5E5E5E5E5A2
:10620B0000000000E5E5E5E5E5E500000000E5E55B
:10621B00E5E5E5E5000000000000E5E5E5E5E5E581
:10622B000000000000000000000000000000000063
:10623B00000000000000000000000000E5E5E5E5BF
:10624B00E5E5E5E5000000000000E5E5E5E5E5E551
:10625B0000000000E5E5E5E5E5E500000000E5E50B
:10626B00E5E5E5E5000000000000E5E5E5E5E5E531
:10627B000000000000000000000000000000000013
:10628B00000000000000000000000000E5E5E5E56F
:10629B00E5E5E5E5000000000000E5E5E5E5E5E501
:1062AB0000000000E5E5E5E5E5E500000000E5E5BB
:1062BB00E5E5E5E5000000000000E5E5E5E5E5E5E1
:1062CB0000000000000000000000000000000000C3
:1062DB00000000000000000000000000E5E5E5E51F
:1062EB00E5E5E5E5000000000000E5E5E5E5E5E5B1
:1062FB0000000000E5E5E5E5E5E500000000E5E56B
:10630B00E5E5E5E5000000000000E5E5E5E5E5E590
:10631B000000000000000000000000000000000072
:10632B00000000000000000000000000E5E5E5E5CE
:10633B00E5E5E5E5000000000000E5E5E5E5E5E560
:10634B0000000000E5E5E5E5E5E500000000E5E51A
:10635B00E5E5E5E5000000000000E5E5E5E5E5E540
:10636B000000000000000000000000000000000022
:10637B00000000000000000000000000E5E5E5E57E
:10638B00E5E5E5E5000000000000E5E5E5E5E5E510
:10639B0000000000E5E5E5E5E5E500000000E5E5CA
:1063AB00E5E5E5E5000000000000E5E5E5E5E5E5F0
:1063BB0000000000000000000000000000000000D2
:1063CB00000000000000000000000000E5E5E5E52E
:1063DB00E5E5E5E5000000000000E5E5E5E5E5E5C0
:1063EB0000000000E5E5E5E5E5E500000000E5E57A
:1063FB00E5E5E5E5000000000000E5E5E5E5E5E5A0
:10640B000000000000000000000000000000000081
:10641B00000000000000000000000000E5E5E5E5DD
:10642B00E5E5E5E5000000000000E5E5E5E5E5E56F
:10643B0000000000E5E5E5E5E5E500000000E5E529
:10644B00E5E5E5E5000000000000E5E5E5E5E5E54F
:10645B000000000000000000000000000000000031
:10646B00000000000000000000000000E5E5E5E58D
:10647B00E5E5E5E5000000000000E5E5E5E5E5E51F
:10648B0000000000E5E5E5E5E5E500000000E5E5D9
:10649B00E5E5E5E5000000000000E5E5E5E5E5E5FF
:1064AB0000000000000000000000000000000000E1
:1064BB00000000000000000000000000E5E5E5E53D
:1064CB00E5E5E5E5000000000000E5E5E5E5E5E5CF
:1064DB0000000000E5E5E5E5E5E500000000E5E589
:1064EB00E5E5E5E5000000000000E5E5E5E5E5E5AF
:1064FB000000000000000000000000000000000091
:10650B00000000000000000000000000E5E5E5E5EC
:10651B00E5E5E5E5000000000000E5E5E5E5E5E57E
:10652B0000000000E5E5E5E5E5E500000000E5E538
:10653B00E5E5E5E5000000000000E5E5E5E5E5E55E
:10654B000000000000000000000000000000000040
:10655B00000000000000000000000000E5E5E5E59C
:10656B00E5E5E5E5000000000000E5E5E5E5E5E52E
:10657B0000000000E5E5E5E5E5E500000000E5E5E8
:10658B00E5E5E5E5000000000000E5E5E5E5E5E50E
:10659B0000000000000000000000000000000000F0
:1065AB00000000000000000000000000E5E5E5E54C
:1065BB00E5E5E5E5000000000000E5E5E5E5E5E5DE
:1065CB0000000000E5E5E5E5E5E500000000E5E598
:1065DB00E5E5E5E5000000000000E5E5E5E5E5E5BE
:1065EB0000000000000000000000000000000000A0
:1065FB00000000000000000000000000E5E5E5E5FC
:10660B00E5E5E5E5000000000000E5E5E5E5E5E58D
:10661B0000000000E5E5E5E5E5E500000000E5E547
:10662B00E5E5E5E5000000000000E5E5E5E5E5E56D
:10663B00000000000000000000000000000000004F
:10664B00000000000000000000000000E5E5E5E5AB
:10665B00E5E5E5E5000000000000E5E5E5E5E5E53D
:10666B0000000000E5E5E5E5E5E500000000E5E5F7
:10667B00E5E5E5E5000000000000E5E5E5E5E5E51D
:10668B0000000000000000000000000000000000FF
:10669B0000000000000000000000000000000000EF
:1066AB0000000000000000000000000000000000DF
:1066BB0000000000000000000000000000000000CF
:101E1B009292929292929292929292E59292929244
:101E2B009292929292929292929292929292929287
:101E3B009292929292929292929292929292929277
:101E4B009292929292929292929292929292929267
:101E5B009292929292929292929292929292929257
