:1031030054686973206973206D61737465723A0042
:103113005468652074656D7065726174757265209D
:10312300697320252E326600526563762074656DBF
:10313300706572617475726520697320252E32661D
:05314300002020200027
:0E3399007F107E27EF1FAC0670011E4C70F6F1
:0133A7002203
:0A33C10075CED3E4F5CF75CDC02220
:0833CB008FCF75CDC0AFCF22FA
:10295D00E490001FF0A3F01232A91231E71233C137
:10296D0074FFFFFE1231487BFF7A317903E490004A
:10297D0028F0A3F074FFA3F0A3F07D467C007F1E2A
:10298D007E00122DD7122F9F900019EEF0A3EFF0BD
:10299D0090002474FFF0A37431F0A37413F0900031
:1029AD0019E0FCA3E0FDE412110EE4FBFA79807846
:1029BD003D1210039000271216B27B017A007900A8
:1029CD00121C3A7B017A007900E4900028F0A3F004
:1029DD0074FFA3F0A3F07D647C007F3C7E00122D7C
:1029ED00D7900019E0FCA3E0FDECFF90001DF0A3D3
:1029FD00EDF01233CB900020EFF012339990001EC2
:102A0D00E0FF1233CBA3EFF0123399E0FEA3E07C8D
:102A1D00002400FFEC3E90001BF0A3EFF09000248B
:102A2D0074FFF0A37431F0A3742BF090001BE0FC45
:102A3D00A3E0FDE412110EE4FBFA7980783D12104B
:102A4D00039000271216B27B017A007900121C3A0E
:102A5D007B017A007900E4900028F0A3F074FFA3C5
:102A6D00F0A3F07D787C007F3C7E00122DD77BFF9C
:102A7D007A31794474FF900028F0A3F0A3F0A3F00D
:0E2A8D007D787C007F047E01122DD702297413
:06332200C292D2937F016C
:10332800E4FEE4FDEDC39F50030D80F80EEEB428D3
:01333800F1A3
:013339002271
:0E33A8004392085391F7123324D29202332835
:10334F00D2927F01123328D293123328C2921233B2
:04335F0028C29322CB
:10336300E4900023F01233242092FDC2937F0102E4
:023373003328FD
:0833D300123322C293023328D9
:0B33B600123322D292123328C293225D
:10321300AC07E4FBEC30E70BD292123324C293C227
:10322300928005123322C293123328EC25E0FC0B63
:07323300EBB408E002336375
:10326100D292E4FBEC25E0FC123324EC209207F42B
:103271004401F4FC80034401FCC2930BEBB408E469
:053281001233D3AF047D
:013286002225
:1000030000000000000000000000000000000000ED
:1000130000007E81A58181BD9981817E0000000061
:1000230000007EFFDBFFFFC3E7FFFF7E0000000051
:10003300000000006CFEFEFEFE7C38100000000095
:100043000000000010387CFE7C3810000000000027
:10005300000000183C3CE7E7E718183C00000000EC
:10006300000000183C7EFFFF7E18183C00000000D3
:10007300000000000000183C3C18000000000000D5
:10008300FFFFFFFFFFFFE7C3C3E7FFFFFFFFFFFF25
:1000930000000000003C664242663C000000000095
:1000A300FFFFFFFFFFC399BDBD99C3FFFFFFFFFF25
:1000B30000001E0E1A3278CCCCCCCC7800000000A5
:1000C30000003C666666663C187E18180000000057
:1000D30000003F333F3030303070F0E0000000006C
:1000E30000007F637F6363636367E7E6C00000002C
:1000F3000000001818DB3CE73CDB18180000000088
:100103000080C0E0F0F8FEF8F0E0C08000000000DE
:100113000002060E1E3EFE3E1E0E060200000000FA
:100123000000183C7E1818187E3C180000000000E0
:100133000000666666666666660066660000000026
:1001430000007FDBDBDB7B1B1B1B1B1B000000009A
:10015300007CC660386CC6C66C380CC67C000000D8
:100163000000000000000000FEFEFEFE0000000094
:100173000000183C7E1818187E3C187E0000000012
:100183000000183C7E1818181818181800000000F2
:100193000000181818181818187E3C1800000000E2
:1001A3000000000000180CFE0C1800000000000006
:1001B30000000000003060FE60300000000000001E
:1001C300000000000000C0C0C0FE000000000000EE
:1001D3000000000000286CFE6C28000000000000F6
:1001E300000000001038387C7CFEFE000000000098
:1001F30000000000FEFE7C7C383810000000000088
:1002030000000000000000000000000000000000EB
:100213000000183C3C3C1818180018180000000097
:100223000066666624000000000000000000000075
:100233000000006C6CFE6C6C6CFE6C6C00000000CB
:1002430018187CC6C2C07C060686C67C1818000037
:1002530000000000C2C60C183060C6860000000013
:100263000000386C6C3876DCCCCCCC760000000017
:10027300003030306000000000000000000000008B
:1002830000000C18303030303030180C0000000003
:10029300000030180C0C0C0C0C0C18300000000083
:1002A3000000000000663CFF3C6600000000000008
:1002B300000000000018187E18180000000000005D
:1002C30000000000000000000018181830000000B3
:1002D30000000000000000FE00000000000000001D
:1002E30000000000000000000000181800000000DB
:1002F3000000000002060C183060C08000000000FF
:100303000000386CC6C6D6D6C6C66C3800000000DE
:1003130000001838781818181818187E0000000004
:1003230000007CC6060C183060C0C6FE000000004A
:1003330000007CC606063C060606C67C00000000DC
:1003430000000C1C3C6CCCFE0C0C0C1E00000000CE
:100353000000FEC0C0C0FC060606C67C000000000C
:1003630000003860C0C0FCC6C6C6C67C00000000E2
:100373000000FEC606060C183030303000000000C6
:1003830000007CC6C6C67CC6C6C6C67C000000008C
:1003930000007CC6C6C67E0606060C780000000078
:1003A30000000000181800000018180000000000EA
:1003B30000000000181800000018183000000000AA
:1003C300000000060C18306030180C060000000016
:1003D30000000000007E00007E000000000000001E
:1003E3000000006030180C060C183060000000009C
:1003F30000007CC6C60C181818001818000000006E
:100403000000007CC6C6DEDEDEDCC07C000000002F
:10041300000010386CC6C6FEC6C6C6C60000000083
:100423000000FC6666667C66666666FC000000008B
:1004330000003C66C2C0C0C0C0C2663C00000000F1
:100443000000F86C6666666666666CF8000000007D
:100453000000FE6662687868606266FE0000000065
:100463000000FE6662687868606060F0000000006B
:1004730000003C66C2C0C0DEC6C6663A000000008B
:100483000000C6C6C6C6FEC6C6C6C6C60000000075
:1004930000003C18181818181818183C0000000021
:1004A30000001E0C0C0C0C0CCCCCCC780000000013
:1004B3000000E666666C78786C6666E6000000000D
:1004C3000000F06060606060606266FE0000000033
:1004D3000000C6EEFEFED6C6C6C6C6C600000000B5
:1004E3000000C6E6F6FEDECEC6C6C6C600000000A5
:1004F30000007CC6C6C6C6C6C6C6C67C00000000D1
:100503000000FC6666667C60606060F000000000CE
:1005130000007CC6C6C6C6C6C6D6DE7C0C0E00006E
:100523000000FC6666667C6C666666E6000000009A
:1005330000007CC6C660380C06C6C67C00000000FE
:1005430000007E7E5A1818181818183C0000000086
:100553000000C6C6C6C6C6C6C6C6C67C0000000026
:100563000000C6C6C6C6C6C6C66C3810000000006A
:100573000000C6C6C6C6D6D6D6FEEE6C0000000086
:100583000000C6C66C7C38387C6CC6C60000000010
:100593000000666666663C181818183C00000000E8
:1005A3000000FEC6860C183060C2C6FE00000000C4
:1005B30000003C30303030303030303C0000000040
:1005C30000000080C0E070381C0E0602000000002E
:1005D30000003C0C0C0C0C0C0C0C0C3C0000000040
:1005E30010386CC60000000000000000000000008E
:1005F30000000000000000000000000000FF0000F9
:10060300303018000000000000000000000000006F
:100613000000000000780C7CCCCCCC7600000000FD
:100623000000E06060786C666666667C000000002F
:1006330000000000007CC6C0C0C0C67C00000000F3
:1006430000001C0C0C3C6CCCCCCCCC760000000025
:1006530000000000007CC6FEC0C0C67C0000000095
:100663000000386C6460F060606060F000000000BF
:10067300000000000076CCCCCCCCCC7C0CCC780039
:100683000000E060606C7666666666E60000000067
:1006930000001818003818181818183C000000003B
:1006A30000000606000E06060606060666663C0001
:1006B3000000E06060666C78786C66E6000000001D
:1006C30000003818181818181818183C00000000F3
:1006D3000000000000ECFED6D6D6D6C6000000000F
:1006E3000000000000DC66666666666600000000C7
:1006F30000000000007CC6C6C6C6C67C0000000021
:100703000000000000DC66666666667C6060F000E0
:10071300000000000076CCCCCCCCCC7C0C0C1E00B2
:100723000000000000DC7666606060F000000000FE
:1007330000000000007CC660380CC67C000000008E
:100743000000103030FC30303030361C0000000028
:100753000000000000CCCCCCCCCCCC760000000058
:10076300000000000066666666663C180000000034
:100773000000000000C6C6D6D6D6FE6C00000000FE
:100783000000000000C66C3838386CC6000000005A
:100793000000000000C6C6C6C6C6C67E060CF8002A
:1007A3000000000000FECC183060C6FE0000000010
:1007B30000000E18181870181818180E0000000002
:1007C300000018181818001818181818000000004E
:1007D3000000701818180E18181818700000000080
:1007E300000076DC000000000000000000000000B4
:1007F3000000000010386CC6C6C6FE0000000000F2
:1008030000003C66C2C0C0C0C2663C0C067C00004F
:100813000000CC0000CCCCCCCCCCCC7600000000CB
:10082300000C1830007CC6FEC0C0C67C000000006F
:100833000010386C00780C7CCCCCCC760000000027
:100843000000CC0000780C7CCCCCCC7600000000FF
:100853000060301800780C7CCCCCCC760000000013
:1008630000386C3800780C7CCCCCCC7600000000CF
:10087300000000003C666060663C0C063C00000023
:100883000010386C007CC6FEC0C0C67C00000000AF
:100893000000C600007CC6FEC0C0C67C000000008D
:1008A30000603018007CC6FEC0C0C67C000000009B
:1008B30000006600003818181818183C00000000E3
:1008C30000183C66003818181818183C000000007F
:1008D30000603018003818181818183C0000000081
:1008E30000C60010386CC6C6FEC6C6C600000000AF
:1008F300386C3800386CC6C6FEC6C6C60000000099
:1009030018306000FE66607C606066FE00000000D8
:100913000000000000CC76367ED8D86E00000000C0
:1009230000003E6CCCCCFECCCCCCCCCE0000000086
:100933000010386C007CC6C6C6C6C67C000000002A
:100943000000C600007CC6C6C6C6C67C0000000008
:1009530000603018007CC6C6C6C6C67C0000000016
:10096300003078CC00CCCCCCCCCCCC7600000000D2
:100973000060301800CCCCCCCCCCCC76000000008E
:100983000000C60000C6C6C6C6C6C67E060C7800F2
:1009930000C6007CC6C6C6C6C6C6C67C000000002C
:1009A30000C600C6C6C6C6C6C6C6C67C00000000D2
:1009B3000018183C66606060663C18180000000070
:1009C30000386C6460F060606060E6FC000000006A
:1009D300000066663C187E187E1818180000000098
:1009E30000F8CCCCF8C4CCDECCCCCCC600000000E4
:1009F300000E1B1818187E1818181818D870000045
:100A03000018306000780C7CCCCCCC760000000061
:100A1300000C1830003818181818183C0000000093
:100A230000183060007CC6C6C6C6C67C0000000045
:100A33000018306000CCCCCCCCCCCC7600000000CD
:100A4300000076DC00DC6666666666660000000011
:100A530076DC00C6E6F6FEDECEC6C6C600000000A3
:100A6300003C6C6C3E007E000000000000000000B3
:100A730000386C6C38007C000000000000000000AF
:100A83000000303000303060C0C6C67C000000007B
:100A9300000000000000FEC0C0C0C0000000000055
:100AA300000000000000FE0606060600000000002D
:100AB30000C0C0C2C6CC183060DC860C183E0000F3
:100AC30000C0C0C2C6CC183066CE9E3E06060000EB
:100AD30000001818001818183C3C3C1800000000CF
:100AE3000000000000366CD86C36000000000000E7
:100AF3000000000000D86C366CD800000000000035
:100B0300114411441144114411441144114411443A
:100B130055AA55AA55AA55AA55AA55AA55AA55AADA
:100B2300DD77DD77DD77DD77DD77DD77DD77DD7722
:100B33001818181818181818181818181818181832
:100B430018181818181818F8181818181818181842
:100B53001818181818F818F8181818181818181852
:100B630036363636363636F6363636363636363662
:100B730000000000000000FE3636363636363636C4
:100B83000000000000F818F818181818181818189A
:100B93003636363636F606F63636363636363636A2
:100BA30036363636363636363636363636363636E2
:100BB3000000000000FE06F6363636363636363688
:100BC3003636363636F606FE00000000000000001A
:100BD30036363636363636FE00000000000000009A
:100BE3001818181818F818F8000000000000000082
:100BF30000000000000000F818181818181818183A
:100C0300181818181818181F00000000000000001A
:100C130018181818181818FF00000000000000002A
:100C230000000000000000FF181818181818181802
:100C3300181818181818181F18181818181818182A
:100C430000000000000000FF0000000000000000A2
:100C530018181818181818FF18181818181818182A
:100C630018181818181F181F1818181818181818F3
:100C73003636363636363637363636363636363610
:100C8300363636363637303F0000000000000000AD
:100C930000000000003F30373636363636363636FB
:100CA3003636363636F700FF00000000000000003D
:100CB3000000000000FF00F736363636363636368B
:100CC30036363636363730373636363636363636C5
:100CD3000000000000FF00FF000000000000000013
:100CE3003636363636F700F7363636363636363655
:100CF3001818181818FF00FF00000000000000007B
:100D030036363636363636FF000000000000000067
:100D13000000000000FF00FF181818181818181812
:100D230000000000000000FF363636363636363611
:100D3300363636363636363F0000000000000000F7
:100D430018181818181F181F0000000000000000D2
:100D530000000000001F181F18181818181818187A
:100D6300000000000000003F363636363636363691
:100D730036363636363636FF363636363636363647
:100D83001818181818FF18FF181818181818181812
:100D930018181818181818F80000000000000000B0
:100DA300000000000000001F181818181818181861
:100DB300FFFFFFFFFFFFFFFFFFFFFFFFFFFFFFFF40
:100DC30000000000000000FFFFFFFFFFFFFFFFFF29
:100DD300F0F0F0F0F0F0F0F0F0F0F0F0F0F0F0F010
:100DE3000F0F0F0F0F0F0F0F0F0F0F0F0F0F0F0F10
:100DF300FFFFFFFFFFFFFF000000000000000000F7
:100E0300000000000076DCD8D8D8DC7600000000B3
:100E1300000078CCCCCCD8CCC6C6C6CC0000000031
:100E23000000FEC6C6C0C0C0C0C0C0C000000000F5
:100E330000000000FE6C6C6C6C6C6C6C00000000BD
:100E4300000000FEC66030183060C6FE00000000DF
:100E530000000000007ED8D8D8D8D8700000000069
:100E63000000000066666666667C6060C000000085
:100E73000000000076DC181818181818000000008D
:100E83000000007E183C6666663C187E0000000089
:100E9300000000386CC6C6FEC6C66C3800000000F1
:100EA3000000386CC6C6C66C6C6C6CEE00000000AB
:100EB30000001E30180C3E666666663C00000000AB
:100EC30000000000007EDBDBDB7E00000000000092
:100ED30000000003067EDBDBF37E60C00000000041
:100EE30000001C3060607C606060301C000000000B
:100EF3000000007CC6C6C6C6C6C6C6C60000000043
:100F030000000000FE0000FE0000FE0000000000E4
:100F13000000000018187E18180000FF00000000F1
:100F230000000030180C060C1830007E0000000092
:100F33000000000C18306030180C007E0000000028
:100F430000000E1B1B181818181818181818181852
:100F53001818181818181818D8D8D87000000000D6
:100F6300000000001818007E0018180000000000A0
:100F7300000000000076DC0076DC000000000000CA
:100F830000386C6C38000000000000000000000016
:100F9300000000000000001818000000000000001E
:100FA3000000000000000000180000000000000026
:100FB300000F0C0C0C0C0CEC6C6C3C1C00000000C7
:100FC30000D86C6C6C6C6C0000000000000000002A
:100FD3000070D83060C8F800000000000000000076
:100FE300000000007C7C7C7C7C7C7C00000000009A
:100FF30000000000000000000000000000000000EE
:103287007F20123299C374F09DFFE49CFE12333FF6
:023297007F2195
:10329900C2B4C2B58F8075A000C2B6D2B6D2B4226C
:05333A00E0FEA3E0FF2E
:10333F00C2B4D2B58F80EEF5A0C2B6D2B6D2B42247
:103307007580FF75A0FFC2B4D2B5C2B77F00AD808C
:0A331700EF2DFFE433FED2B7D2B46D
:013321002289
:08337500900023E0FCA3E0FD41
:0A337D00123299AE04AF0502333F8F
:1032CA00E4FDFCC3ED9FEC9E5015E4FBFA0BBB003A
:0F32DA00010AEB64C84A70F50DBD00010C80E4D9
:0132E90022C2
:1027E5007FF47E011232CA7D007C017F0112337DA8
:1027F5007C077F0212337D7D287C107F0312337D99
:10280500E4FDFC7F0412337D7D077C027F081233D3
:102815007DE4FDFC7F0912337D7F0A12337D7F0C39
:1028250012337D7F0D12337D7F0F12337D7F1012A2
:10283500337D7D077F1112337DE4FD7F1212337DD9
:102845007F1312337D7D907C127F1012337D7D279F
:102855007C027F1112337D7D1D7C007F1212337D3A
:102865007D007C157F1312337D7D187C007F291236
:10287500337D7D0D7F2B12337D7D047F3012337DBB
:102885007D077C037F3112337D7D027C007F321210
:10289500337D7D067C027F3512337D7D087C047F88
:1028A5003612337D1D0C7F3712337D7D047C027F0C
:1028B5003812337D7407FDFC7F3912337D7D057C2D
:1028C500047F3C12337D7D027C0F7F3D12337DE416
:1028D500FDFC7F5012337D7DEF7F5112337DE4FD8A
:1028E5007F5212337D7D3F0C7F5312337D7D007CFB
:1028F500A77F6012337D0D7C007F6112337D1D7FC4
:102905006A12337D7F8012337D7F8112337D7F8212
:1029150012337D7F8312337D7F8412337D7F851251
:10292500337D7D107F9012337D7D007C067F921272
:10293500337D7D037C007F9312337D7D100C7F9565
:1029450012337DE4FD1C7F9712337D7F9812337D12
:082955007D330C7F0702337D86
:10305E00900023EEF0A3EFF0A3ECF0A3EDF09000C0
:10306E0029E0FEA3E0FFC374F09FFDE49EFC7F50B9
:10307E0012337DC374F09BFDE49AFC7F5112337DB5
:10308E007F52123375A3E0FCA3E0FD7F5312337D14
:10309E00C374F09BFDE49AFC7F2012337D7F2112D6
:0730AE0033757F2202329905
:08314800900021EEF0A3EFF06E
:10315000900029E4F0A374F0F0E4FBFA7D407C01D8
:10316000FFFE12305EE4FDFCE4FBFA900021123316
:103170003A0BBB00010AEB64F14A70EF0DBD000190
:073180000CBC01E4BD42E1BB
:013187002225
:1031E7007594FFE4F5937596FFF595D2B4C2907F79
:1031F700C8FE1232CAD2907FFA1232CA1227E57F6E
:0C3207002C7E011232CAE4FF1E02314886
:0430B500AD07AC06B1
:1030B900ED541FFF9000CCE4F0A3EFF0ED7805CEBE
:1030C900C313CE13D8F9543FFB7A00EC13131354EE
:1030D9001FFD7C007E00EB7805C333CE33CED8F9D3
:1030E900FBAA069000CDE033333354F8FEE42BFFFE
:0930F900EE3AFEEF2DFFEE3CFE65
:0131020022AA
:0432EA00AB07AA067E
:1032EE00123287AE02AF0312333F7F22123299128F
:0832FE0033071233071230B54B
:0133060022A4
:102E78009000C2EEF0A3EFF0A3ECF0A3EDF0A3EA0C
:042E8800F0A3EBF0D8
:102E8C009000C2E0FCA3E0FFAE04C006C007240122
:102E9C00FDE43CFCA3E0FAA3E0FB9000C4E0FEA33D
:102EAC00E02401FFE43E900029F0A3EFF0D007D01E
:102EBC000612305E9000C4E0FEA3E0FDAC0690006C
:102ECC00C5E02401FF9000C4E03400FED3ED9FEC7C
:102EDC009E50339000C2E0FEA3E0FBAA069000C314
:102EEC00E02401FF9000C2E03400FED3EB9FEA9E89
:102EFC00500D9000C612333A0BBB00010A80DE0D58
:062F0C00BD00010C80B8BD
:012F1200229C
:10318800900075E0FEA3E0FFA3E0FCA3E0FD900043
:0631980073E0FAA3E0FB66
:10319E008F828E83123287AE83AF8212333F7F22AD
:0A31AE00123299AE02AF0302333F64
:102A9B0090002DEEF0A3EFF0A3ECF0A3EDF0A90363
:102AAB00E4900036F0A3F0900036E0FCA3E0FDC309
:0A2ABB009410EC94004003022B92EB
:102AC500E9FF3395E0FEEFC4F8540FC868FFEEC484
:102AD50054F048FEED2FFFEC3EFE74032FF5827493
:102AE500003EF583E49390003AF0E4900038F0A3BB
:102AF500F0900038E0FEA3E0FFC39408EE94005088
:102B05007BA3E030E72590002DE0FCA3E0FDEF2D51
:102B1500FFEE3CFEA3E0FCA3E0FD900037E02DFDB9
:102B2500900036E03CFC9000328036900034E07036
:102B350003A3E0F4602E90002DE0FEA3E0FF9000DB
:102B450039E02FFF900038E03EFE90002FE0FCA317
:102B5500E0FD900037E02DFD900036E03CFC900054
:102B65003412319990003AE025E0F0900039E00404
:0C2B7500F07006900038E004F0022AF630
:102B8100900037E004F07006900036E004F0022A6D
:012B9100B291
:012B92002220
:102DD700900021EEF0A3EFF0A3ECF0A3EDF0A3EB4E
:072DE700F0A3EAF0A3E9F0FC
:102DEE00E490002CF0900025E0FBA3E0FAA3E0F9BC
:102DFE00121512FF60733395E0FEC3EF9480EE64FC
:102E0E0080948050E090002CE0FF3395E0FEEF7848
:102E1E0003C333CE33CED8F9FF900022E02FFF90BC
:102E2E000021E03EFEC007900023E0FCA3E0FD126F
:102E3E001512FB900028E0FFA3E0900032CFF0A324
:102E4E00EFF090002AE0FFA3E0900034CFF0A3EF64
:102E5E00F0D007122A9B90002CE004F0900026E49C
:092E6E0075F00112157C022DF330
:012E77002238
:102C7600900092EEF0A3EFF0A3ECF0A3EDF0A3EA40
:062C8600F0FCA3EBF0FDE1
:102C8C00900092E0FAA3E0FFAE02C006C0072DFF51
:102C9C00EA3CCF24FFFDEF34FFFCA3E0FAA3E0FBFA
:102CAC00900098E0FEA3E0FF900094E0F8A3E02FE2
:102CBC00FFE83ECF24FFCF34FF900029F0A3EFF0C4
:102CCC00D007D00612305EE490009DF0A3F0900087
:102CDC0098E0FCA3E0FD900096E0FEA3E0FF121547
:102CEC006A90009DE0FCA3E0FDC39FEC9E502FED8D
:102CFC0025E0FFEC33FE90009AE0FBA3E0FAA3E0A2
:102D0C00F98F828E83121592FFAEF012333F900032
:0E2D1C009EE004F070B890009DE004F080B0DE
:012D2A002286
:102B930090009FEEF0A3EFF0A3ECF0A3EDF0A3EA17
:062BA300F0FCA3EBF0FDC5
:102BA90090009FE0FAA3E0FFAE02C006C0072DFF28
:102BB900EA3CCF24FFFDEF34FFFCA3E0FAA3E0FBDE
:102BC9009000A5E0FEA3E0FF9000A1E0F8A3E02FAC
:102BD900FFE83ECF24FFCF34FF900029F0A3EFF0A8
:102BE900D007D00612305EE49000AAF0A3F090005E
:102BF900A5E0FCA3E0FD9000A3E0FEA3E0FF121511
:102C09006AC39000ABE09F9000AAE09E505E9000DE
:102C1900A7E0FBA3E0FAA3E0F9A3E0FEA3E0F582B5
:102C29008E8312152BFD543875F040A4FBED54E04A
:102C390045F0FCEBFD9000A7E0FBA3A3A3E0FEA3F6
:102C4900E0F5828E8312152B540375F008A4FFEC6E
:102C590045F0FEED4FFDAC06FF12333F9000ABE0AF
:0C2C690004F0708A9000AAE004F0808261
:012C7500223C
:1017040090006BEEF0A3EFF090006FEAF0A3EBF023
:0817140090006DECF0A3EDF074
:10171C00900071E06C7003A3E06D705790006FE067
:10172C00FEA3E0FF90006BE0FCA3E0FDD39FEC9EDA
:10173C0090007550028008EEF0A3EFF090006FEC73
:10174C00F0A3EDF090006FE0FCA3E0FD900075E0DD
:10175C00FEA3E0FFD39DEE9C4003021BD490006DD2
:10176C00123191900076E004F070D9900075E0048D
:10177C00F080D1900071E0FEA3E0FF90006DE0FCE2
:10178C00A3E0FDD39FEC9E4006ED9FFFEC801390F1
:10179C00006DE0FEA3E0FFC3900072E09FFF90009D
:1017AC0071E09E90007BF0A3EFF090006FE0FEA341
:1017BC00E0FF90006BE06E7003A3E06F705C900034
:1017CC0071E0FEA3E0FF90006DE0FCA3E0FDD39F71
:1017DC00EC9E90007750028008EEF0A3EFF09000A2
:1017EC0071ECF0A3EDF0900071E0FEA3E0FF90002F
:1017FC0077E0FCA3E0FDD39FEC9E4003021BD4904A
:10180C00006BE0FEA3E0FF123196900078E004F04C
:10181C0070D4900077E004F080CC90006FE0FEA3D1
:10182C00E0FF90006BE0FCA3E0FDD39FEC9E403DFD
:10183C0090006FE0FAA3E0FBED9BFEEC9A90007930
:10184C00F0A3CEF0900075EAF0A3EBF090006FECF3
:10185C00F0A3EDF0A3E0FFA3E0900077CFF0A3EFAF
:10186C00F090006DE0FFA3E0900071802D90006B74
:10187C00E0FAA3E0FBC3900070E09BFE90006FE0E9
:10188C009A900079F0A3CEF0900075EAF0A3EBF0FB
:10189C0090006DE0FFA3E0900077CFF0A3EFF09005
:1018AC00007BE0FEA3E0FF900079E06E7003A3E004
:1018BC006F705A90006FE0FEA3E0FFD3900076E0CB
:1018CC009F900075E09E4003021BD4A3E004F070CF
:1018DC0006900075E004F0900071E0FEA3E0FFD3E9
:1018EC00900078E09F900077E09E400EA3E024FFEC
:1018FC00F0900077E034FFF0800E900078E004F078
:10190C007006900077E004F012318880A6123188BE
:10191C00900071E0FEA3E0FFC3900078E09F900080
:10192C0077E09E4003021A8490007BE0FEA3E0FF68
:10193C00900079E0FCA3E0FD9FEC9E50030219E3BC
:10194C00EF25E0FBEE33FAC3EB9DFEEA9C90007DA5
:10195C00F0A3CEF0A3EAF0A3EBF0900079E0FEA3A5
:10196C00E0FFC390007CE09FFF90007BE09EFEEFC9
:10197C0025E0FFEE33900081F0A3EFF090006FE0D4
:10198C00FEA3E0FFC3900076E09F900075E09E40C0
:10199C0003021BD4A3E004F07006900075E004F081
:1019AC00C390007DE064809480500590007F80118E
:1019BC00900078E004F07006900077E004F090005E
:1019CC0081E0FEA3E0FF90007EE02FF090007DE030
:0719DC003EF012318880A5E6
:1019E30090007AE025E0FB900079E033FA90007BE9
:1019F300E0FEA3E0FFC3EB9FFFEA9EA3F0A3EFF09B
:101A0300A3EAF0A3EBF090007BA3E0FFC390007A7E
:101A1300E09FFF900079E09EFEEF25E0FFEE33901C
:101A23000081F0A3EFF0900071E0FEA3E0FFC3900C
:101A33000078E09F900077E09E4003021BD4A3E070
:101A430004F07006900077E004F0C390007DE0643A
:101A5300809480500590007F8011900076E004F020
:101A63007006900075E004F0900081E0FEA3E0FFB3
:101A730090007EE02FF090007DE03EF012318880F0
:011A8300A5BD
:101A840090007BE0FEA3E0FF900079E0FCA3E0FD82
:091A9400D39FEC9E5003021B34A9
:101A9D00EF25E0FBEE33FAC3EB9DFEEA9C90007D53
:101AAD00F0A3CEF0A3EAF0A3EBF0900079E0FEA353
:101ABD00E0FFC390007CE09FFF90007BE09EFEEF77
:101ACD0025E0FFEE33900081F0A3EFF090006FE082
:101ADD00FEA3E0FFC3900076E09F900075E09E406E
:101AED0003021BD4A3E004F07006900075E004F02F
:101AFD00C390007DE064809480500590007F80113C
:101B0D00900078E024FFF0900077E034FFF0900033
:101B1D0081E0FEA3E0FF90007EE02FF090007DE0DD
:071B2D003EF012318880A593
:101B340090007AE025E0FB900079E033FA90007B96
:101B4400E0FEA3E0FFC3EB9FFFEA9EA3F0A3EFF048
:101B5400A3EAF0A3EBF090007BA3E0FFC390007A2C
:101B6400E09FFF900079E09EFEEF25E0FFEE3390CA
:101B74000081F0A3EFF0900077E0FEA3E0FFC390B4
:101B84000072E09F900071E09E5045900078E02440
:101B9400FFF0900077E034FFF0C390007DE06480B4
:101BA4009480500590007F8011900076E004F070DE
:101BB40006900075E004F0900081E0FEA3E0FF9041
:101BC400007EE02FF090007DE03EF012318880A688
:011BD40022EE
:102058009000ACEEF0A3EFF0A3ECF0A3EDF0A3EA50
:04206800F0A3EBF006
:10206C00E49000B5F0A3F09000B0E0FEA3E0FFD345
:10207C009000B6E09F9000B5E09E4003022472E011
:10208C00FCA3E0FDFFAE0412156AAA06AB07900094
:10209C00B0E0FCA3E0FDFFAE0412156AC3EF9BFD9C
:1020AC00EE9AFCE412110E122D2F1211479000B76C
:1020BC00EEF0A3EFF09000B0E0FEA3E0FF9000ADD7
:1020CC00E02FFF9000ACE03EFE9000B6E02FFF90BA
:1020DC0000B5E03EFE9000B0E0FCA3E0FD9000AF48
:1020EC00E02DFD9000AEE03CFC9000B8E02DFD90A2
:1020FC0000B7E03CFC9000B21231999000B0E0FEC9
:10210C00A3E0FF9000ADE02FFF9000ACE03EFE900E
:10211C0000B5E0FCA3E0FDC3EF9DFFEE9CFE90003C
:10212C00B0E0FCA3E0FD9000AFE02DFD9000AEE030
:10213C003CFC9000B7E0FAA3E0FBC3ED9BFDEC9AEE
:10214C00FC9000B21231999000B0E0FEA3E0FF9039
:10215C0000ADE02FFF9000ACE03EFE9000B6E02F0B
:10216C00FF9000B5E03EFE9000B0E0FCA3E0FD90D7
:10217C0000AFE02DFD9000AEE03CFC9000B7E0FA23
:10218C00A3E0FBC3ED9BFDEC9AFC9000B2123199DD
:10219C009000B0E0FEA3E0FF9000ADE02FFF9000B8
:1021AC00ACE03EFE9000B5E0FCA3E0FDC3EF9DFF6C
:1021BC00EE9CFE9000B0E0FCA3E0FD9000AFE02DA3
:1021CC00FD9000AEE03CFC9000B8E02DFD9000B717
:1021DC00E03CFC9000B21231999000B0E0FEA3E01C
:1021EC00FF9000ADE02FFF9000ACE03EFE9000B8F9
:1021FC00E02FFF9000B7E03EFE9000B0E0FCA3E0C3
:10220C00FD9000AFE02DFD9000AEE03CFC9000B6E0
:10221C00E02DFD9000B5E03CFC9000B2123199909D
:10222C0000B0E0FEA3E0FF9000ADE02FFF9000AC0B
:10223C00E03EFE9000B7E0FCA3E0FDC3EF9DFFEE97
:10224C009CFE9000B0E0FCA3E0FD9000AFE02DFD03
:10225C009000AEE03CFC9000B5E0FAA3E0FBC3EDCF
:10226C009BFDEC9AFC9000B21231999000B0E0FE0C
:10227C00A3E0FF9000ADE02FFF9000ACE03EFE909D
:10228C0000B8E02FFF9000B7E03EFE9000B0E0FCFD
:10229C00A3E0FD9000AFE02DFD9000AEE03CFC9083
:1022AC0000B5E0FAA3E0FBC3ED9BFDEC9AFC9000BB
:1022BC00B21231999000B0E0FEA3E0FF9000ADE0C7
:1022CC002FFF9000ACE03EFE9000B7E0FCA3E0FDD9
:1022DC00C3EF9DFFEE9CFE9000B0E0FCA3E0FD90F0
:1022EC0000AFE02DFD9000AEE03CFC9000B6E02D80
:1022FC00FD9000B5E03CFC9000B21231999000B416
:10230C00E0700302245E9000B0E0FEA3E0FF9000BA
:10231C00ADE02FFF9000ACE03EFE9000B5E0FCA3DA
:10232C00E0FDC3EF9DFFEE9CFEC006C0079000B021
:10233C00E0FEA3E0FF9000AFE02FFF9000AEE03E88
:10234C00FE9000B7E0FCA3E0FDC3EF9DFDEE9CFC0E
:10235C009000B0E0FEA3E0FF9000ACE0FAA3E02F09
:10236C00FFEA3EFE9000B5E0FAA3E0FBC3EF9BFB57
:10237C00EE9AFA9000B0E0FEA3E0FF9000AEE0F819
:10238C00A3E02FFFE83EFE9000B7E0F8A3E02FFF9C
:10239C00E83E900071F0A3EFF09000B2E0FFA3E0F4
:1023AC00900073CFF0A3EFF0D007D0061217049073
:1023BC0000B0E0FEA3E0FF9000ADE02FFF9000AC7A
:1023CC00E03EFE9000B6E02FFF9000B5E03EFEC070
:1023DC0006C0079000B0E0FEA3E0FF9000AFE02F36
:1023EC00FF9000AEE03EFE9000B7E0FCA3E0FDC322
:1023FC00EF9DFDEE9CFC9000B0E0FEA3E0FF900092
:10240C00ACE0FAA3E02FFFEA3EFE9000B5E0FAA3A1
:10241C00E02FFBEA3EFA9000B0E0FEA3E0FF900054
:10242C00AEE0F8A3E02FFFE83EFE9000B7E0F8A383
:10243C00E02FFFE83E900071F0A3EFF09000B2E0C7
:10244C00FFA3E0900073CFF0A3EFF0D007D00612FB
:10245C0017049000B6E004F060030220739000B5FE
:06246C00E004F002207301
:012472002247
:10265200900083EEF0A3EFF0A3ECF0A3EDF0A3EA79
:0D266200F0A3EBF090008DE0700302270A5A
:10266F00900087E0FCA3E0FD900085E0FAA3E0FB7B
:10267F00900089E0FFA3E0900029CFF0A3EFF09046
:10268F000083E0FEA3E0FF12305E900085E0FFA321
:10269F00E090008ECFF0A3EFF0900089E0FEA3E072
:1026AF00FFD390008FE09F90008EE09E40030227A3
:1026BF00E4900083E0FFA3E0900090CFF0A3EFF051
:1026CF00900087E0FEA3E0FFD3900091E09F900081
:1026DF0090E09E501690008B12333A900091E004D8
:1026EF00F070DD900090E004F080D590008FE00452
:0B26FF00F070A690008EE004F0809EBA
:10270A00900083E0FAA3E0FBFFAE02C007A3E0FC5F
:10271A00A3E0FD900089E0FFA3E0900071CFF0A351
:10272A00EFF090008BE0FFA3E0900073CFF0A3EFEF
:10273A00F0D007121704900089E0FCA3E0FD900096
:10274A0087E0FAA3E0FBA3E0FFA3E0900071CFF0DB
:10275A00A3EFF090008BE0FFA3E0900073CFF0A30B
:10276A00EFF0900083E0FEA3E0FF121704900087C9
:10277A00E0FAA3E0FBFFAE02C007A3E0FCA3E0FD82
:10278A00900085E0FFA3E0900071CFF0A3EFF090F6
:10279A00008BE0FFA3E0900073CFF0A3EFF0D00727
:1027AA00121704900085E0FCA3E0FD900083E0FA94
:1027BA00A3E0FBA3E0FFA3E0900071CFF0A3EFF04A
:1027CA0090008BE0FFA3E0900073CFF0A3EFF090AE
:0B27DA000087E0FEA3E0FF12170422BE
:103002009000BDEAF0A3EBF09000B9EEF0A3EFF070
:10301200A3ECF0A3EDF0C006C007A3E0FEA3E0FF1F
:103022009000B9E0FAA3E02FFBEA3EFA9000BBE081
:10303200F8A3E02FFFE83E900089F0A3EFF09000A4
:10304200BFE0FFA3E090008BCFF0A3EFF09000C1B0
:0C305200E090008DF0D007D0060226525E
:10247300900051EEF0A3EFF0A3ECF0A3EDF0A3EA8C
:06248300F0FCA3EBF0FDEC
:10248900900051E0FAA3E0FFAE02C006C0072DFF9D
:10249900EA3CCF24FFFDEF34FFFCA3E0FAA3E0FB05
:1024A900900057E0FEA3E0FF900053E0F8A3E02F6F
:1024B900FFE83ECF24FFCF34FF900029F0A3EFF0CF
:1024C900D007D00612305EE490005DF0A3F09000D2
:1024D90057E0FCA3E0FD900055E0FEA3E0FF1215D4
:1024E9006AC390005EE09F90005DE09E4003022673
:1024F90051A3E025E0FF90005DE033FE900059E034
:10250900FBA3E0FAA3E0F98F828E83121592FBAA4E
:10251900F0EA54F8FE7F0090005CE0F9FD7C0012BF
:10252900156AE4FD90005F1216B2EA5407FEEB54F7
:10253900E0FFE9FD7C0012156AE4FD9000631216C4
:10254900B290005EE025E0FF90005DE033FE900070
:1025590059E0FBA3E0FAA3E0F98F828E831215926A
:102569007E00541FFF90005CE0FD7C0012156AE4B8
:10257900FD9000671216B2E47B20FAF9F890005F2B
:10258900E0FCA3E0FDA3E0FEA3E0FF121606E4FFD2
:10259900EE54F8FEE4FDFC90005F1216B2E47B20D5
:1025A900FAF9F8900063E0FCA3E0FDA3E0FEA3E0E4
:1025B900FF121606EF54E0FFEE5407FEE4FDFC900F
:1025C90000631216B2E47B20FAF9F8900067E0FC88
:1025D900A3E0FDA3E0FEA3E0FF121606EF541FFFE0
:1025E900E4FEFDFC9000671216B2900067E0FCA3C0
:1025F900E0FDA3E0FEA3E0FF90005FE0F8A3E0F9AF
:10260900A3E0FAA3E04FFFEA4EFEE94DFDE84CFCDA
:10261900A3E0F8A3E0F9A3E0FAA3E04FFFEA4EFE36
:10262900E94DFDE84CFC90005F1216B290005FA3E3
:10263900A312333A90005EE004F060030224D790BD
:08264900005DE004F00224D75B
:012651002266
:0433DB004100D0904D
:10338700E4FEE4FDEDC39F50030D80F80EEEB41488
:01339700F144
:013398002212
:1031B8009000CEEFF0A3EDF012334F9000D0E0FF77
:1031C8001232139000CEE0FF1232139000CFE07F4E
:0F31D800001232139000CFE0FF1232130233B611
:1032A9001233A812334F9000D0E0FF1232137F017E
:1032B9001232137F6A1232131233B6E4FFFEFDFC99
:0132C90022E2
:102F9F0012334F9000D0E0FF123213E4FF123213BE
:102FAF0012334F9000D0E004FF12321312326190AF
:102FBF000021E4F0A3EFF0E0F8E4F0E8900021F056
:102FCF007F64123387123261900022E02FF090005D
:102FDF0021E03400F01233B6900021E0C4F854F031
:102FEF00C868FEA3E0C4540F48FF900021EEF0A381
:022FFF00EFF0F1
:0130010022AC
:10100300EC4D6011E8497017ED33EC3304600DE4E7
:10101300FCFFFEFD22E933E8330470F80211B3123A
:10102300117E58046009E4CC24815006285009023B
:1010330011BD2840030211BAC0E0EB4A7044B980E5
:1010430006D0E0FB0211A9EF4E701CBD8008EBFF38
:10105300EAFEE9FD80EBE98DF0A4FEE5F00210EC79
:10106300E9CDF9EAFEEBFFEF89F0A4FCE5F0CE89C8
:10107300F0A42EFFE435F0CD89F0A42DFEE435F085
:101083008067EF4E7005BD80D780C3EF8BF0A4ACB3
:10109300F0EE8BF0A42CFCE435F0F8EF8AF0A42CEE
:1010A300E5F038FCE433CB8DF0A42CFCE5F03BF801
:1010B300EE8AF0A42CFCE5F038F8E433CF89F0A4F1
:1010C3002CFCE5F038CF3400CE89F0A42FFFE5F0F7
:1010D3003EFEE433C98DF0A42EFEE5F039CD8AF04F
:1010E300A42FFFE5F03EFEE43DFD33D0E0FB5007C7
:1010F3000BBB000F0211BDEC2CFCEF33FFEE33FEF4
:06110300ED33FD02119521
:1011090075F020800E75F010800575F0087D007E61
:10111900007F003392D530D503121698EC33401076
:10112900EF33FFEE33FEED33FDEC33FCD5F0ED226A
:0E113900E5F0247EA2D513CC92E7CDCEFF22A6
:10114700EDD2E7CD33EC3392D524814006E4FFFEA0
:10115700FDFC22FCE4CFCECDCC24E0501174FF80FF
:10116700EDC3CC13CCCD13CDCE13CECF13CF04709C
:07117700F030D5DE021698EE
:101BD500E5082424F582E43400F583E00508229025
:101BE5000021300703900024E475F0011216BE02AF
:101BF50015122000E97F2ED2008018EF540F249093
:101C0500D43440D4FF30040BEF24BFB41A00500382
:101C15002461FFE50960021509050CE50C70020554
:101C25000B30070E900021E475F0011216BEEF028D
:101C3500155802323A7403D2078003E4C207F50847
:101C45009000211216D5E4F509F50BF50CE50960B0
:101C5500077F20121C1880F5750AFFC201C200C259
:101C650002C203C205C206C208121BE4FF700D3092
:101C750007057F00121C29AF0CAE0B22B4255FC2ED
:101C8500D5C204121BE4FF24D0B40A00501A75F023
:101C95000A780930D50508B6FF0106C6A426F62040
:101CA500D5047002D20380D924CFB41A00EF5004B2
:101CB500C2E5D204021F1BD20180C6D20080C0D269
:101CC5000280BCD2D580BAD20580B47F20121C1800
:101CD5002002077401B5090040F1121BD5FF121C43
:101CE50018021C52D208D2068095121BD5FB121B76
:101CF500D5FA121BD5F94A4B700679197A207BFF64
:101D050020022EE509602A7E008E82758300121559
:101D15002B60060EEE650A70F0C2D5EBC0E0EAC096
:101D2500E0E9C0E0EE121F7CD0E0F9D0E0FAD0E0A7
:101D3500FB121512FF60AAEBC0E0EAC0E0E9C0E0C3
:101D4500121C18D0E02401F9D0E03400FAD0E0FBF1
:101D5500E50A0460DCD50AD98087D20280A2121F69
:101D65005E60F7E50A700104121360A90A600DE5CB
:101D75000A600914F50A122006EF60F3EA30E7025B
:101D8500F404C3995079EAF4250A0430E701E40420
:101D9500F50A800D121F5E60C1EA050A250A1213B5
:101DA50060EA900050F030E701E4250A04D50A0402
:101DB50020050114121F7CE4C0E01220069000509B
:101DC500E0601320E70714F0121C00802204F0D015
:101DD500E014C0E07F00121C00E50A6007121BF743
:101DE500150A800B300503121BF7D0E0021C52D0F8
:101DF500E00480C4121F5E609EE50A041213609021
:101E05000050EAF0E50A2005026001042404121FCF
:011E15007C50
:101E160074FF04C0E0122006121C00E50A20050229
:101E26006003121BF7D0E0B50AE87F45121C0A9042
:101E36000050E07F2B30E7047F2DF404C0E0121C35
:101E460018D0E075F00A84C0F0121C01D0E0121C14
:101E560001021C52791080027908C206C208800865
:101E6600D2D5790A8004790AC2D5E50A047002F54A
:101E76000AE4FAFDFEFF121BD5FC7B0820011312B3
:101E86001BD5FD7B1030000A121BD5FE121BD5FF99
:101E96007B20EC3382D592D55013C3E43000069FE5
:101EA600FFE49EFEE42001039DFDE49CFCE4CBF8E8
:101EB600C201EC700CCFCECDCCE824F8F870F380DC
:101EC60017C3EF33FFEE33FEED33FDEC33FCEB339C
:101ED600FB994002FB0FD8E9EB300105F8D0E0C4CE
:101EE60048B201C0E00AEC4D4E4F78207B0070C22C
:101EF600EAB50A0040BCC0E0121F7ED0F0D0E02058
:101F06000104C4C0E0C4B201C0F0121C01D0F0D577
:101F1600F0EB021C521216DE1CEF531E5A581CC060
:101F26004C1CBC421E5E4F1E66441E66491CD543B1
:101F36001E6C551D99461DF9451D63472039501CD9
:101F4600C42D1CC82E1CEB2B1CCC231CE9202022E4
:101F56002A1C844800001CE3E50AB4FF03750A0640
:101F6600121BD5FC121BD5FD121BD5FE121BD5FF6D
:101F760090004902139D790AA2D520031430050961
:101F8600B910020404B9080104A2D52006025001C2
:101F9600042002689202B509005034C0E07F203068
:101FA60003197F30A20272067205500F121FD5C2A6
:101FB60002C206C205C2087F30800F300503E9C0A1
:101FC600E0121C18300503D0E0F9D0E0B509CC309A
:101FD60005177F30B9100C121C187F583004077F84
:101FE600788003B90803121C183002057F2D021CE5
:101FF600187F202008F87F2B2006F322920280CF3C
:102006007F00B40700500B2449F582E43400F583C1
:10201600E0FF22286E756C6C2900D201121BD530A8
:1020260001F8C201780930D50108F6021C842D504A
:10203600434958121BD52403B405004001E49020FF
:102046003493121C09743A121C09D203750904024E
:022056001E5A10
:102D2B000211B322EDA2E7D2E7F9EC3340F260F3E4
:102D3B00B4FF08ED547F70E80211BDF82481C2E0A6
:102D4B00C0E0F40428FAC313FCED92E7FD9000C831
:102D5B001216B2EEA2E7E9BA7F02C3133400940055
:102D6B00FA75F091A4E5F013F494FE8AF0A433E520
:102D7B00F033248CD313FDE492E7FE7F007C3F7588
:102D8B008302ECC0E0F8EDC0E0F9EEC0E0FAEFC072
:102D9B00E0FB8583F09000C81216A685F083121213
:102DAB00C3D0E0FBD0E0FAD0E0F9D0E0F81211CFBD
:102DBB00ED6480FD30E7011CD583C7ED33CC33F8D0
:0C2DCB00D0E0A2E71328C313CC13FD22B4
:10117E00E9D2E7C933E833F892D5EDD2E7CD33ECB7
:07118E0033FC5002B2D52230
:10119500EC30E7100FBF000C0EBE00080DBD0004BB
:1011A5000BEB6014A2D5EB13FCED92E7FD2274FF67
:1011B500FCFDFEFF22E480F8A2D574FF13FC7D80C0
:0311C500E480EFD4
:1011C8000211B3E86480F8E933E83360110460F091
:1011D800ED33EC337009E8FCE9FDEAFEEBFF22048D
:1011E80060DED3EB9FEA9EE99DE8C2E78CF0C2F788
:1011F80095F0400CE8CCF8E9CDF9EACEFAEBCFFB54
:1012080012117E85D0F05804700320D5B3E804701D
:10121800075002B2D50211BD92D5EC0460F7E4CCB8
:10122800C0E0C398F8603B94186008400DD0E0FB1C
:10123800021195E4FBFAC9FC8028E830E406E4C909
:10124800FBE4CAFCE830E305E4C9CACBFCE8540770
:101258006010F8C3E913F9EA13FAEB13FBEC13FC7B
:10126800D8F130F52FC3E49CFCEF9BFFEE9AFEED1E
:1012780099FDD0E0FBEF4E4D4C701222DB030211BA
:10128800BAEC2CFCEF33FFEE33FEED33FDED30E727
:10129800EB021195EF2BFFEE3AFEED39FDD0E0FBA6
:1012A80050130BBB00030211BDED13FDEE13FEEF4F
:0812B80013FFEC13FC02119579
:1012C0000211BDEC5D046005E8590470030211B31E
:1012D00012117E580460F6EC4860F2EC7004FDFEDA
:1012E000FF22C860DB2481C85009C3986002500601
:1012F0000211BA9850CAF582E9294B4A7005AB82AF
:101300000211A975F0007C1A7880C3EF9BEE9AED6C
:1013100099400DC3EF9BFFEE9AFEED99FDE842F078
:10132000DC23ACF0D0E0FFD0E0FED0E0FDAB8220CB
:10133000E7101BEB60BAEC2CFCEF33FFEE33FEED55
:1013400033FD021195E803F830E705C0F075F000B1
:10135000EF2FFFEE33FEED33FD40B830E7C280AA39
:10136000F920E73624F950037907E4F42402FBE579
:1013700082158270021583DBF6E024FB501BE960C6
:1013800014E4F0E582158270021583E004F0B40ADB
:0D13900008E4F0D9EE7401F00A22C2D52263
:10139D00ED33EC3392D5FA602AB4FF33EDC2E77B1F
:1013AD00FF60067A1379C2E4227A1379CB20D50433
:1013BD007A1379C6224E614E002B494E46002D49B7
:1013CD004E4600E47A08F0A3DAFC7B00740722C0D5
:1013DD0083C082ECC0E0EDC0E0EEC0E0EFC0E0EA1B
:1013ED0075F010A4CAABF075F04DA42BFBE435F0ED
:1013FD00FCEA2410FAEB34C5FBEC34D9FCEDC2E762
:10140D00FF75F056A4F42411C5F0F434C58FF0A483
:10141D002AE5F03BE43CF020E7141214D2D0E0FFB3
:10142D00D0E0FED0E0FDD0E0FC1212C38014F40435
:10143D001214D2D0E0FFD0E0FED0E0FDD0E0FC12DF
:10144D001003D082D083E0FAEDD2E7CD33EC332414
:10145D0082FBE4C3CF33CFCE33CECD33CD33DBF3ED
:10146D007B0775F00A846004F0A31B0AE5F0F0A376
:10147D008FF0740AA4FFACF08EF0740AA42CFEACAD
:10148D00F050010C8DF0740AA42CFDE435F0F0A39E
:05149D00DBDE740722F4
:1014A2003F8000004120000042C80000447A000052
:1014B200461C400047C35000497424004B189680D4
:1014C2004CBEBC205A0E1BCA6753C21C749DC5AECB
:1014D200FB60065407601C2323121500EB5438608E
:1014E200091214EC1214FB121003ECF8EDF9EEFAE7
:1014F200EFCB22EB1214FB80F1543803241C90141E
:10150200A2FE93FC0EEE93FD0EEE930ECE93FF22FF
:03000000022F13B9
:0C2F1300787FE4F6D8FD758121022F5A6A
:10151200BB010689828A83E0225002E722BBFE02D7
:09152200E32289828A83E493220A
:10152B00BB010CE58229F582E5833AF583E0225075
:10153B0006E92582F8E622BBFE06E92582F8E222BF
:0D154B00E58229F582E5833AF583E49322D9
:10155800BB010689828A83F0225002F722BBFE0172
:02156800F3226C
:10156A00EF8DF0A4A8F0CF8CF0A428CE8DF0A42E95
:02157A00FE224F
:10157C00C5F0F8A3E028F0C5F0F8E58215827002FA
:06158C001583E038F02297
:10159200BB0110E58229F582E5833AF583E0F5F097
:1015A200A3E0225009E92582F886F008E622BBFE74
:1015B2000AE92582F8E2F5F008E222E5832AF583BA
:0815C200E993F5F0A3E993227F
:1015CA0075F008758200EF2FFFEE33FECD33CDCCD8
:1015DA0033CCC58233C5829BED9AEC99E58298405B
:1015EA000CF582EE9BFEED9AFDEC99FC0FD5F0D638
:1015FA00E4CEFBE4CDFAE4CCF9A88222B800C1B962
:10160A000059BA002DEC8BF084CFCECDFCE5F0CB9F
:10161A00F97818EF2FFFEE33FEED33FDEC33FCEBD8
:10162A0033FB10D703994004EB99FB0FD8E5E4F993
:10163A00FA227818EF2FFFEE33FEED33FDEC33FC80
:10164A00C933C910D7059BE99A4007EC9BFCE99A74
:10165A00F90FD8E0E4C9FAE4CCFB2275F010EF2FB9
:10166A00FFEE33FEED33FDCC33CCC833C810D707B9
:10167A009BEC9AE899400AED9BFDEC9AFCE899F8F4
:0E168A000FD5F0DAE4CDFBE4CCFAE4C8F92287
:0E169800C3E49FFFE49EFEE49DFDE49CFC2263
:0C16A600E0FCA3E0FDA3E0FEA3E0FF22B7
:0C16B200ECF0A3EDF0A3EEF0A3EFF022AB
:1016BE00F8E0FBA3A3E0F925F0F0E58215827002B5
:0716CE001583E0FA38F02259
:0916D500EBF0A3EAF0A3E9F02216
:1016DE00D083D082F8E4937012740193700DA3A39B
:1016EE0093F8740193F5828883E4737402936860AF
:0616FE00EFA3A3A380DFAF
:10323A00EFB40A07740D123245740A309811A8992E
:10324A00B8130CC2983098FDA899C298B811F630F4
:07325A0099FDC299F59922CC
:102F1F0002295DE493A3F8E493A34003F68001F242
:102F2F0008DFF48029E493A3F85407240CC8C333B3
:102F3F00C4540F4420C8834004F456800146F6DF82
:102F4F00E4800B01020408102040809033DBE47E04
:102F5F00019360BCA3FF543F30E509541FFEE49377
:102F6F00A360010ECF54C025E060A840B8E493A33E
:102F7F00FAE493A3F8E493A3C8C582C8CAC583CA69
:102F8F00F0A3C8C582C8CAC583CADFE9DEE780BE21
:0133DF0000ED
:00000001FF
