:0937310025322E31664D487A0064
:10365200E4FFFEE4FDFC0DBD00010CED64C84C70FE
:0C366200F50FBF00010EBE01EABFF4E747
:01366E002239
:102545009000007403F0A37492F012352A74FFFF13
:10255500FE1234BAE4900020F0A3F0A3F07B1EFA3B
:102565007D32FC7F047E01123278900038E4F0A3BE
:102575007441F0E4A3F0A3F07B1F7A017D41FC7F59
:10258500077E011217D6900038E4F0A3744DF0E4ED
:10259500A3F0A3F07B137A017D35FC7F137E011236
:1025A50017D6E4900020F0A3F0A3F07B1EFA7D641B
:1025B500FC7F047E01123278900038E4F0A3747336
:1025C500F0E4A3F0A3F07B1F7A017D73FC7F077E07
:1025D500011217D67F927E0312355690001D74FFA7
:1025E500F0A37437F0A37431F0900000E0FCA3E091
:1025F500FDE41210A8E4FBFA792078411210069048
:1026050000201217537B017A007906121D0C7B01FD
:102615007A007906E4900021F0A3F074FFA3F0A3FB
:10262500F07D787C007F827E0012313C7B017A0050
:102635007902122C89900002E0FEA3E0FFD39404F6
:10264500EE940150030226E9EF9422EE9401400333
:102655000226E9A3E0FEA3E0FF9432EE94005003C6
:102665000226E9EF9450EE94005079900001E09431
:1026750066900000E09403400CA3E004F07006901F
:102685000000E004F0123652900000E0FEA3E0FFE7
:102695001232D490001D74FFF0A37437F0A3743187
:1026A500F0900000E0FCA3E0FDE41210A8E4FBFAC2
:1026B500792078411210069000201217537B017A79
:1026C500007906121D0C7B017A007906E490002141
:1026D500F0A3F074FFA3F0A3F07D787C007F827EE9
:1026E5000012313C900002E0FEA3E0FFD39404EE1B
:1026F50094015003022631EF9422EE940140030227
:102705002631A3E0FEA3E0FF9464EE94005003029B
:102715002631EF9482EE94004003022631C39000E7
:1027250001E0942E900000E09404500CA3E024FFF7
:10273500F0900000E034FFF0123652900000E0FE09
:10274500A3E0FF1232D490001D74FFF0A37437F09C
:10275500A37431F0900000E0FCA3E0FDE41210A8A2
:10276500E4FBFA79207841121006900020121753E5
:102775007B017A007906121D0C7B017A007906E44B
:10278500900021F0A3F074FFA3F0A3F07D787C0006
:0A2795007F827E0012313C022631E3
:1032D40090001CEEF0A3EFF0D39466EE9403404705
:1032E400E0943890001CE09404503C1236D47F20C3
:1032F40012357E7FD012357E7F0912357E90001CF8
:10330400A3E0249AFF12357E7F1312357EE4FF1268
:10331400357E7F4012357E7F9012357E7F88123550
:0A3324007E1237267F01227F00226F
:1035560090001AEEF0A3EFF012370C1236D47F204B
:1035660012357EE4FF12357E7F0212357E90001AF8
:08357600E0FEA3E0FF0232D4E5
:1000030000000000000000000000000000000000ED
:1000130000007E81A58181BD9981817E0000000061
:1000230000007EFFDBFFFFC3E7FFFF7E0000000051
:10003300000000006CFEFEFEFE7C38100000000095
:100043000000000010387CFE7C3810000000000027
:10005300000000183C3CE7E7E718183C00000000EC
:10006300000000183C7EFFFF7E18183C00000000D3
:10007300000000000000183C3C18000000000000D5
:10008300FFFFFFFFFFFFE7C3C3E7FFFFFFFFFFFF25
:1000930000000000003C664242663C000000000095
:1000A300FFFFFFFFFFC399BDBD99C3FFFFFFFFFF25
:1000B30000001E0E1A3278CCCCCCCC7800000000A5
:1000C30000003C666666663C187E18180000000057
:1000D30000003F333F3030303070F0E0000000006C
:1000E30000007F637F6363636367E7E6C00000002C
:1000F3000000001818DB3CE73CDB18180000000088
:100103000080C0E0F0F8FEF8F0E0C08000000000DE
:100113000002060E1E3EFE3E1E0E060200000000FA
:100123000000183C7E1818187E3C180000000000E0
:100133000000666666666666660066660000000026
:1001430000007FDBDBDB7B1B1B1B1B1B000000009A
:10015300007CC660386CC6C66C380CC67C000000D8
:100163000000000000000000FEFEFEFE0000000094
:100173000000183C7E1818187E3C187E0000000012
:100183000000183C7E1818181818181800000000F2
:100193000000181818181818187E3C1800000000E2
:1001A3000000000000180CFE0C1800000000000006
:1001B30000000000003060FE60300000000000001E
:1001C300000000000000C0C0C0FE000000000000EE
:1001D3000000000000286CFE6C28000000000000F6
:1001E300000000001038387C7CFEFE000000000098
:1001F30000000000FEFE7C7C383810000000000088
:1002030000000000000000000000000000000000EB
:100213000000183C3C3C1818180018180000000097
:100223000066666624000000000000000000000075
:100233000000006C6CFE6C6C6CFE6C6C00000000CB
:1002430018187CC6C2C07C060686C67C1818000037
:1002530000000000C2C60C183060C6860000000013
:100263000000386C6C3876DCCCCCCC760000000017
:10027300003030306000000000000000000000008B
:1002830000000C18303030303030180C0000000003
:10029300000030180C0C0C0C0C0C18300000000083
:1002A3000000000000663CFF3C6600000000000008
:1002B300000000000018187E18180000000000005D
:1002C30000000000000000000018181830000000B3
:1002D30000000000000000FE00000000000000001D
:1002E30000000000000000000000181800000000DB
:1002F3000000000002060C183060C08000000000FF
:100303000000386CC6C6D6D6C6C66C3800000000DE
:1003130000001838781818181818187E0000000004
:1003230000007CC6060C183060C0C6FE000000004A
:1003330000007CC606063C060606C67C00000000DC
:1003430000000C1C3C6CCCFE0C0C0C1E00000000CE
:100353000000FEC0C0C0FC060606C67C000000000C
:1003630000003860C0C0FCC6C6C6C67C00000000E2
:100373000000FEC606060C183030303000000000C6
:1003830000007CC6C6C67CC6C6C6C67C000000008C
:1003930000007CC6C6C67E0606060C780000000078
:1003A30000000000181800000018180000000000EA
:1003B30000000000181800000018183000000000AA
:1003C300000000060C18306030180C060000000016
:1003D30000000000007E00007E000000000000001E
:1003E3000000006030180C060C183060000000009C
:1003F30000007CC6C60C181818001818000000006E
:100403000000007CC6C6DEDEDEDCC07C000000002F
:10041300000010386CC6C6FEC6C6C6C60000000083
:100423000000FC6666667C66666666FC000000008B
:1004330000003C66C2C0C0C0C0C2663C00000000F1
:100443000000F86C6666666666666CF8000000007D
:100453000000FE6662687868606266FE0000000065
:100463000000FE6662687868606060F0000000006B
:1004730000003C66C2C0C0DEC6C6663A000000008B
:100483000000C6C6C6C6FEC6C6C6C6C60000000075
:1004930000003C18181818181818183C0000000021
:1004A30000001E0C0C0C0C0CCCCCCC780000000013
:1004B3000000E666666C78786C6666E6000000000D
:1004C3000000F06060606060606266FE0000000033
:1004D3000000C6EEFEFED6C6C6C6C6C600000000B5
:1004E3000000C6E6F6FEDECEC6C6C6C600000000A5
:1004F30000007CC6C6C6C6C6C6C6C67C00000000D1
:100503000000FC6666667C60606060F000000000CE
:1005130000007CC6C6C6C6C6C6D6DE7C0C0E00006E
:100523000000FC6666667C6C666666E6000000009A
:1005330000007CC6C660380C06C6C67C00000000FE
:1005430000007E7E5A1818181818183C0000000086
:100553000000C6C6C6C6C6C6C6C6C67C0000000026
:100563000000C6C6C6C6C6C6C66C3810000000006A
:100573000000C6C6C6C6D6D6D6FEEE6C0000000086
:100583000000C6C66C7C38387C6CC6C60000000010
:100593000000666666663C181818183C00000000E8
:1005A3000000FEC6860C183060C2C6FE00000000C4
:1005B30000003C30303030303030303C0000000040
:1005C30000000080C0E070381C0E0602000000002E
:1005D30000003C0C0C0C0C0C0C0C0C3C0000000040
:1005E30010386CC60000000000000000000000008E
:1005F30000000000000000000000000000FF0000F9
:10060300303018000000000000000000000000006F
:100613000000000000780C7CCCCCCC7600000000FD
:100623000000E06060786C666666667C000000002F
:1006330000000000007CC6C0C0C0C67C00000000F3
:1006430000001C0C0C3C6CCCCCCCCC760000000025
:1006530000000000007CC6FEC0C0C67C0000000095
:100663000000386C6460F060606060F000000000BF
:10067300000000000076CCCCCCCCCC7C0CCC780039
:100683000000E060606C7666666666E60000000067
:1006930000001818003818181818183C000000003B
:1006A30000000606000E06060606060666663C0001
:1006B3000000E06060666C78786C66E6000000001D
:1006C30000003818181818181818183C00000000F3
:1006D3000000000000ECFED6D6D6D6C6000000000F
:1006E3000000000000DC66666666666600000000C7
:1006F30000000000007CC6C6C6C6C67C0000000021
:100703000000000000DC66666666667C6060F000E0
:10071300000000000076CCCCCCCCCC7C0C0C1E00B2
:100723000000000000DC7666606060F000000000FE
:1007330000000000007CC660380CC67C000000008E
:100743000000103030FC30303030361C0000000028
:100753000000000000CCCCCCCCCCCC760000000058
:10076300000000000066666666663C180000000034
:100773000000000000C6C6D6D6D6FE6C00000000FE
:100783000000000000C66C3838386CC6000000005A
:100793000000000000C6C6C6C6C6C67E060CF8002A
:1007A3000000000000FECC183060C6FE0000000010
:1007B30000000E18181870181818180E0000000002
:1007C300000018181818001818181818000000004E
:1007D3000000701818180E18181818700000000080
:1007E300000076DC000000000000000000000000B4
:1007F3000000000010386CC6C6C6FE0000000000F2
:1008030000003C66C2C0C0C0C2663C0C067C00004F
:100813000000CC0000CCCCCCCCCCCC7600000000CB
:10082300000C1830007CC6FEC0C0C67C000000006F
:100833000010386C00780C7CCCCCCC760000000027
:100843000000CC0000780C7CCCCCCC7600000000FF
:100853000060301800780C7CCCCCCC760000000013
:1008630000386C3800780C7CCCCCCC7600000000CF
:10087300000000003C666060663C0C063C00000023
:100883000010386C007CC6FEC0C0C67C00000000AF
:100893000000C600007CC6FEC0C0C67C000000008D
:1008A30000603018007CC6FEC0C0C67C000000009B
:1008B30000006600003818181818183C00000000E3
:1008C30000183C66003818181818183C000000007F
:1008D30000603018003818181818183C0000000081
:1008E30000C60010386CC6C6FEC6C6C600000000AF
:1008F300386C3800386CC6C6FEC6C6C60000000099
:1009030018306000FE66607C606066FE00000000D8
:100913000000000000CC76367ED8D86E00000000C0
:1009230000003E6CCCCCFECCCCCCCCCE0000000086
:100933000010386C007CC6C6C6C6C67C000000002A
:100943000000C600007CC6C6C6C6C67C0000000008
:1009530000603018007CC6C6C6C6C67C0000000016
:10096300003078CC00CCCCCCCCCCCC7600000000D2
:100973000060301800CCCCCCCCCCCC76000000008E
:100983000000C60000C6C6C6C6C6C67E060C7800F2
:1009930000C6007CC6C6C6C6C6C6C67C000000002C
:1009A30000C600C6C6C6C6C6C6C6C67C00000000D2
:1009B3000018183C66606060663C18180000000070
:1009C30000386C6460F060606060E6FC000000006A
:1009D300000066663C187E187E1818180000000098
:1009E30000F8CCCCF8C4CCDECCCCCCC600000000E4
:1009F300000E1B1818187E1818181818D870000045
:100A03000018306000780C7CCCCCCC760000000061
:100A1300000C1830003818181818183C0000000093
:100A230000183060007CC6C6C6C6C67C0000000045
:100A33000018306000CCCCCCCCCCCC7600000000CD
:100A4300000076DC00DC6666666666660000000011
:100A530076DC00C6E6F6FEDECEC6C6C600000000A3
:100A6300003C6C6C3E007E000000000000000000B3
:100A730000386C6C38007C000000000000000000AF
:100A83000000303000303060C0C6C67C000000007B
:100A9300000000000000FEC0C0C0C0000000000055
:100AA300000000000000FE0606060600000000002D
:100AB30000C0C0C2C6CC183060DC860C183E0000F3
:100AC30000C0C0C2C6CC183066CE9E3E06060000EB
:100AD30000001818001818183C3C3C1800000000CF
:100AE3000000000000366CD86C36000000000000E7
:100AF3000000000000D86C366CD800000000000035
:100B0300114411441144114411441144114411443A
:100B130055AA55AA55AA55AA55AA55AA55AA55AADA
:100B2300DD77DD77DD77DD77DD77DD77DD77DD7722
:100B33001818181818181818181818181818181832
:100B430018181818181818F8181818181818181842
:100B53001818181818F818F8181818181818181852
:100B630036363636363636F6363636363636363662
:100B730000000000000000FE3636363636363636C4
:100B83000000000000F818F818181818181818189A
:100B93003636363636F606F63636363636363636A2
:100BA30036363636363636363636363636363636E2
:100BB3000000000000FE06F6363636363636363688
:100BC3003636363636F606FE00000000000000001A
:100BD30036363636363636FE00000000000000009A
:100BE3001818181818F818F8000000000000000082
:100BF30000000000000000F818181818181818183A
:100C0300181818181818181F00000000000000001A
:100C130018181818181818FF00000000000000002A
:100C230000000000000000FF181818181818181802
:100C3300181818181818181F18181818181818182A
:100C430000000000000000FF0000000000000000A2
:100C530018181818181818FF18181818181818182A
:100C630018181818181F181F1818181818181818F3
:100C73003636363636363637363636363636363610
:100C8300363636363637303F0000000000000000AD
:100C930000000000003F30373636363636363636FB
:100CA3003636363636F700FF00000000000000003D
:100CB3000000000000FF00F736363636363636368B
:100CC30036363636363730373636363636363636C5
:100CD3000000000000FF00FF000000000000000013
:100CE3003636363636F700F7363636363636363655
:100CF3001818181818FF00FF00000000000000007B
:100D030036363636363636FF000000000000000067
:100D13000000000000FF00FF181818181818181812
:100D230000000000000000FF363636363636363611
:100D3300363636363636363F0000000000000000F7
:100D430018181818181F181F0000000000000000D2
:100D530000000000001F181F18181818181818187A
:100D6300000000000000003F363636363636363691
:100D730036363636363636FF363636363636363647
:100D83001818181818FF18FF181818181818181812
:100D930018181818181818F80000000000000000B0
:100DA300000000000000001F181818181818181861
:100DB300FFFFFFFFFFFFFFFFFFFFFFFFFFFFFFFF40
:100DC30000000000000000FFFFFFFFFFFFFFFFFF29
:100DD300F0F0F0F0F0F0F0F0F0F0F0F0F0F0F0F010
:100DE3000F0F0F0F0F0F0F0F0F0F0F0F0F0F0F0F10
:100DF300FFFFFFFFFFFFFF000000000000000000F7
:100E0300000000000076DCD8D8D8DC7600000000B3
:100E1300000078CCCCCCD8CCC6C6C6CC0000000031
:100E23000000FEC6C6C0C0C0C0C0C0C000000000F5
:100E330000000000FE6C6C6C6C6C6C6C00000000BD
:100E4300000000FEC66030183060C6FE00000000DF
:100E530000000000007ED8D8D8D8D8700000000069
:100E63000000000066666666667C6060C000000085
:100E73000000000076DC181818181818000000008D
:100E83000000007E183C6666663C187E0000000089
:100E9300000000386CC6C6FEC6C66C3800000000F1
:100EA3000000386CC6C6C66C6C6C6CEE00000000AB
:100EB30000001E30180C3E666666663C00000000AB
:100EC30000000000007EDBDBDB7E00000000000092
:100ED30000000003067EDBDBF37E60C00000000041
:100EE30000001C3060607C606060301C000000000B
:100EF3000000007CC6C6C6C6C6C6C6C60000000043
:100F030000000000FE0000FE0000FE0000000000E4
:100F13000000000018187E18180000FF00000000F1
:100F230000000030180C060C1830007E0000000092
:100F33000000000C18306030180C007E0000000028
:100F430000000E1B1B181818181818181818181852
:100F53001818181818181818D8D8D87000000000D6
:100F6300000000001818007E0018180000000000A0
:100F7300000000000076DC0076DC000000000000CA
:100F830000386C6C38000000000000000000000016
:100F9300000000000000001818000000000000001E
:100FA3000000000000000000180000000000000026
:100FB300000F0C0C0C0C0CEC6C6C3C1C00000000C7
:100FC30000D86C6C6C6C6C0000000000000000002A
:100FD3000070D83060C8F800000000000000000076
:100FE300000000007C7C7C7C7C7C7C00000000009A
:100FF30000000000000000000000000000000000EE
:1035F2007F20123604C374F09DFFE49CFE1236C491
:023602007F2126
:10360400C2B4C2B58F8075A000C2B6D2B6D2B422FD
:0536BF00E0FEA3E0FFA6
:1036C400C2B4D2B58F80EEF5A0C2B6D2B6D2B422BF
:10368C007580FF75A0FFC2B4D2B5C2B77F00AD8004
:0A369C00EF2DFFE433FED2B7D2B4E5
:0136A6002201
:0836E800900032E0FCA3E0FDBC
:0A36F000123604AE04AF050236C422
:10361400E4FDFCC3ED9FEC9E5015E4FBFA0BBB00EC
:0F362400010AEB64C84A70F50DBD00010C80E48B
:013633002274
:102B11007FF47E011236147D007C017F011236F0B4
:102B21007C077F021236F07D287C107F031236F07D
:102B3100E4FDFC7F041236F07D077C027F0812362B
:102B4100F0E4FDFC7F091236F07F0A1236F07F0CAB
:102B51001236F07F0D1236F07F0F1236F07F101211
:102B610036F07D077F111236F0E4FD7F121236F048
:102B71007F131236F07D907C127F101236F07D2784
:102B81007C027F111236F07D1D7C007F121236F01F
:102B91007D007C157F131236F07D187C007F291291
:102BA10036F07D0D7F2B1236F07D047F301236F02A
:102BB1007D077C037F311236F07D027C007F32126B
:102BC10036F07D067C027F351236F07D087C047F6D
:102BD100361236F01D0C7F371236F07D047C027FF1
:102BE100381236F07407FDFC7F391236F07D057C12
:102BF100047F3C1236F07D027C0F7F3D1236F0E4FB
:102C0100FDFC7F501236F07DEF7F511236F0E4FD6E
:102C11007F521236F07D3F0C7F531236F07D007CDF
:102C2100A77F601236F00D7C007F611236F01D7FA8
:102C31006A1236F07F801236F07F811236F07F8281
:102C41001236F07F831236F07F841236F07F8512C0
:102C510036F07D107F901236F07D007C067F921257
:102C610036F07D037C007F931236F07D100C7F954A
:102C71001236F0E4FD1C7F971236F07F981236F081
:082C81007D330C7F070236F0E1
:10332E00900032EEF0A3EFF0A3ECF0A3EDF09000DE
:10333E0038E0FEA3E0FFC374F09FFDE49EFC7F50D7
:10334E001236F0C374F09BFDE49AFC7F511236F0F6
:10335E007F521236E8A3E0FCA3E0FD7F531236F055
:10336E00C374F09BFDE49AFC7F201236F07F21128D
:07337E0036E87F220236044D
:0834BA0090001AEEF0A3EFF000
:1034C200900038E4F0A374F0F0E4FBFA7D407C0154
:1034D200FFFE12332EE4FDFCE4FBFA90001A1236D2
:1034E200BF0BBB00010AEB64F14A70EF0DBD000196
:0734F2000CBC01E4BD42E146
:0134F90022B0
:10352A007594FFE4F5937596FFF595D2B4C2907F32
:10353A00C8FE123614D2907FFA123614122B117F5B
:0C354A002C7E01123614E4FF1E0234BA7D
:04338500AD07AC06DE
:10338900ED541FFF900095E4F0A3EFF0ED7805CE22
:10339900C313CE13D8F9543FFB7A00EC131313541B
:1033A9001FFD7C007E00EB7805C333CE33CED8F900
:1033B900FBAA06900096E033333354F8FEE42BFF62
:0933C900EE3AFEEF2DFFEE3CFE92
:0133D20022D8
:04366F00AB07AA06F5
:103673001235F2AE02AF031236C47F2212360412A1
:08368300368C12368C123385DF
:01368B00221C
:1031DD0090008BEEF0A3EFF0A3ECF0A3EDF0A3EADB
:0431ED00F0A3EBF070
:1031F10090008BE0FCA3E0FFAE04C006C0072401F1
:10320100FDE43CFCA3E0FAA3E0FB90008DE0FEA30B
:10321100E02401FFE43E900038F0A3EFF0D007D0A6
:103221000612332E90008DE0FEA3E0FDAC06900067
:103231008EE02401FF90008DE03400FED3ED9FEC81
:103241009E503390008BE0FEA3E0FBAA0690008C19
:10325100E02401FF90008BE03400FED3EB9FEA9E57
:10326100500D90008F1236BF0BBB00010A80DE0D9E
:06327100BD00010C80B855
:013277002234
:1034FA0090003CE0FEA3E0FFA3E0FCA3E0FD900007
:06350A003AE0FAA3E0FB29
:103510008F828E831235F2AE83AF821236C47F2241
:0A352000123604AE02AF030236C4F7
:102E0000900026EEF0A3EFF0A3ECF0A3EDF0A90301
:102E1000E490002FF0A3F090002FE0FCA3E0FDC3AE
:0A2E20009410EC94004003022EF71A
:102E2A00E9FF3395E0FEEFC4F8540FC868FFEEC41B
:102E3A0054F048FEED2FFFEC3EFE74032FF582742A
:102E4A00003EF583E493900033F0E4900031F0A360
:102E5A00F0900031E0FEA3E0FFC39408EE94005026
:102E6A007BA3E030E725900026E0FCA3E0FDEF2DF0
:102E7A00FFEE3CFEA3E0FCA3E0FD900030E02DFD58
:102E8A0090002FE03CFC90002B803690002DE070E3
:102E9A0003A3E0F4602E900026E0FEA3E0FF90007A
:102EAA0032E02FFF900031E03EFE900028E0FCA3C4
:102EBA00E0FD900030E02DFD90002FE03CFC9000FA
:102ECA002D12350B900033E025E0F0900032E0043B
:0C2EDA00F07006900031E004F0022E5B66
:102EE600900030E004F0700690002FE004F0022E0F
:012EF60017C4
:012EF70022B8
:10313C0090001AEEF0A3EFF0A3ECF0A3EDF0A3EBEC
:07314C00F0A3EAF0A3E9F093
:10315300E4900025F090001EE0FBA3E0FAA3E0F961
:10316300121512FF60733395E0FEC3EF9480EE6493
:1031730080948050E0900025E0FF3395E0FEEF78E7
:1031830003C333CE33CED8F9FF90001BE02FFF905B
:10319300001AE03EFEC00790001CE0FCA3E0FD1215
:1031A3001512FB900021E0FFA3E090002BCFF0A3CA
:1031B300EFF0900023E0FFA3E090002DCFF0A3EF0A
:1031C300F0D007122E00900025E004F090001FE4D9
:0931D30075F0011215D10231580A
:0131DC0022D0
:102FDB00900064EEF0A3EFF0A3ECF0A3EDF0A3EA06
:062FEB00F0FCA3EBF0FD79
:102FF100900064E0FAA3E0FFAE02C006C0072DFF17
:10300100EA3CCF24FFFDEF34FFFCA3E0FAA3E0FB91
:1030110090006AE0FEA3E0FF900066E0F8A3E02FD5
:10302100FFE83ECF24FFCF34FF900038F0A3EFF04C
:10303100D007D00612332EE490006FF0A3F0900079
:103041006AE0FCA3E0FD900068E0FEA3E0FF12153A
:103051006A90006FE0FCA3E0FDC39FEC9E502FED52
:1030610025E0FFEC33FE90006CE0FBA3E0FAA3E067
:10307100F98F828E831215E7FFAEF01236C49000ED
:0E30810070E004F070B890006FE004F080B0D2
:01308F00221E
:102EF800900071EEF0A3EFF0A3ECF0A3EDF0A3EADD
:062F0800F0FCA3EBF0FD5C
:102F0E00900071E0FAA3E0FFAE02C006C0072DFFED
:102F1E00EA3CCF24FFFDEF34FFFCA3E0FAA3E0FB75
:102F2E00900077E0FEA3E0FF900073E0F8A3E02F9F
:102F3E00FFE83ECF24FFCF34FF900038F0A3EFF030
:102F4E00D007D00612332EE490007CF0A3F0900050
:102F5E0077E0FCA3E0FD900075E0FEA3E0FF121504
:102F6E006AC390007DE09F90007CE09E505E9000D2
:102F7E0079E0FBA3E0FAA3E0F9A3E0FEA3E0F5827B
:102F8E008E8312152BFD543875F040A4FBED54E0E2
:102F9E0045F0FCEBFD900079E0FBA3A3A3E0FEA3BC
:102FAE00E0F5828E8312152B540375F008A4FFEC06
:102FBE0045F0FEED4FFDAC06FF1236C490007DE0ED
:0C2FCE0004F0708A90007CE004F0808227
:012FDA0022D4
:1017D600900032EEF0A3EFF0900036EAF0A3EBF0C3
:0817E600900034ECF0A3EDF0DB
:1017EE00900038E06C7003A3E06D7057900036E007
:1017FE00FEA3E0FF900032E0FCA3E0FDD39FEC9E41
:10180E0090003C50028008EEF0A3EFF0900036EC12
:10181E00F0A3EDF0900036E0FCA3E0FD90003CE07C
:10182E00FEA3E0FFD39DEE9C4003021CA690003465
:10183E0012350390003DE004F070D990003CE004B6
:10184E00F080D1900038E0FEA3E0FF900034E0FC81
:10185E00A3E0FDD39FEC9E4006ED9FFFEC8013901E
:10186E000034E0FEA3E0FFC3900039E09FFF90003C
:10187E0038E09E900042F0A3EFF0900036E0FEA319
:10188E00E0FF900032E06E7003A3E06F705C90009A
:10189E0038E0FEA3E0FF900034E0FCA3E0FDD39F10
:1018AE00EC9E90003E50028008EEF0A3EFF0900008
:1018BE0038ECF0A3EDF0900038E0FEA3E0FF9000CE
:1018CE003EE0FCA3E0FDD39FEC9E4003021CA690DD
:1018DE000032E0FEA3E0FF12350890003FE004F076
:1018EE0070D490003EE004F080CC900036E0FEA371
:1018FE00E0FF900032E0FCA3E0FDD39FEC9E403D64
:10190E00900036E0FAA3E0FBED9BFEEC9A900040CF
:10191E00F0A3CEF090003CEAF0A3EBF0900036EC92
:10192E00F0A3EDF0A3E0FFA3E090003ECFF0A3EF15
:10193E00F0900034E0FFA3E0900038802D9000324C
:10194E00E0FAA3E0FBC3900037E09BFE900036E088
:10195E009A900040F0A3CEF090003CEAF0A3EBF09A
:10196E00900034E0FFA3E090003ECFF0A3EFF090A4
:10197E000042E0FEA3E0FF900040E06E7003A3E0A3
:10198E006F705A900036E0FEA3E0FFD390003DE06A
:10199E009F90003CE09E4003021CA6A3E004F07062
:1019AE000690003CE004F0900038E0FEA3E0FFD388
:1019BE0090003FE09F90003EE09E400EA3E024FF8B
:1019CE00F090003EE034FFF0800E90003FE004F017
:1019DE00700690003EE004F01234FA80A61234FA3B
:1019EE00900038E0FEA3E0FFC390003FE09F900020
:1019FE003EE09E4003021B56900042E0FEA3E0FF35
:101A0E00900040E0FCA3E0FD9FEC9E5003021AB54F
:101A1E00EF25E0FBEE33FAC3EB9DFEEA9C9000440B
:101A2E00F0A3CEF0A3EAF0A3EBF0900040E0FEA30B
:101A3E00E0FFC3900043E09FFF900042E09EFEEF68
:101A4E0025E0FFEE33900048F0A3EFF0900036E073
:101A5E00FEA3E0FFC390003DE09F90003CE09E405F
:101A6E0003021CA6A3E004F0700690003CE004F014
:101A7E00C3900044E064809480500590004680112D
:101A8E0090003FE004F0700690003EE004F09000FD
:101A9E0048E0FEA3E0FF900045E02FF0900044E008
:071AAE003EF01234FA80A59E
:101AB500900041E025E0FB900040E033FA900042C1
:101AC500E0FEA3E0FFC3EB9FFFEA9EA3F0A3EFF0C8
:101AD500A3EAF0A3EBF0900042A3E0FFC39000411E
:101AE500E09FFF900040E09EFEEF25E0FFEE339083
:101AF5000048F0A3EFF0900038E0FEA3E0FFC390AC
:101B0500003FE09F90003EE09E4003021CA6A3E03C
:101B150004F0700690003EE004F0C3900044E064D9
:101B25008094805005900046801190003DE004F0BF
:101B3500700690003CE004F0900048E0FEA3E0FF52
:101B4500900045E02FF0900044E03EF01234FA801A
:011B5500A5EA
:101B5600900042E0FEA3E0FF900040E0FCA3E0FD21
:091B6600D39FEC9E5003021C0603
:101B6F00EF25E0FBEE33FAC3EB9DFEEA9C900044B9
:101B7F00F0A3CEF0A3EAF0A3EBF0900040E0FEA3B9
:101B8F00E0FFC3900043E09FFF900042E09EFEEF16
:101B9F0025E0FFEE33900048F0A3EFF0900036E021
:101BAF00FEA3E0FFC390003DE09F90003CE09E400D
:101BBF0003021CA6A3E004F0700690003CE004F0C2
:101BCF00C3900044E06480948050059000468011DB
:101BDF0090003FE024FFF090003EE034FFF09000D3
:101BEF0048E0FEA3E0FF900045E02FF0900044E0B6
:071BFF003EF01234FA80A54C
:101C0600900041E025E0FB900040E033FA9000426E
:101C1600E0FEA3E0FFC3EB9FFFEA9EA3F0A3EFF075
:101C2600A3EAF0A3EBF0900042A3E0FFC3900041CB
:101C3600E09FFF900040E09EFEEF25E0FFEE339030
:101C46000048F0A3EFF090003EE0FEA3E0FFC39053
:101C56000039E09F900038E09E504590003FE02418
:101C6600FFF090003EE034FFF0C3900044E0648053
:101C760094805005900046801190003DE004F0707D
:101C86000690003CE004F0900048E0FEA3E0FF90E0
:101C96000045E02FF0900044E03EF01234FA80A6B2
:011CA600221B
:10212A0090007EEEF0A3EFF0A3ECF0A3EDF0A3EAAB
:04213A00F0A3EBF033
:10213E00E4900087F0A3F0900082E0FEA3E0FFD3CE
:10214E00900088E09F900087E09E4003022544E0C7
:10215E00FCA3E0FDFFAE0412156AAA06AB079000C1
:10216E0082E0FCA3E0FDFFAE0412156AC3EF9BFDF7
:10217E00EE9AFCE41210A81230941210E19000892D
:10218E00EEF0A3EFF0900082E0FEA3E0FF90007F60
:10219E00E02FFF90007EE03EFE900088E02FFF9043
:1021AE000087E03EFE900082E0FCA3E0FD900081FF
:1021BE00E02DFD900080E03CFC90008AE02DFD902B
:1021CE000089E03CFC90008412350B900082E0FE0A
:1021DE00A3E0FF90007FE02FFF90007EE03EFE9098
:1021EE000087E0FCA3E0FDC3EF9DFFEE9CFE900098
:1021FE0082E0FCA3E0FD900081E02DFD900080E0E8
:10220E003CFC900089E0FAA3E0FBC3ED9BFDEC9A49
:10221E00FC90008412350B900082E0FEA3E0FF904C
:10222E00007FE02FFF90007EE03EFE900088E02FC2
:10223E00FF900087E03EFE900082E0FCA3E0FD9060
:10224E000081E02DFD900080E03CFC900089E0FADA
:10225E00A3E0FBC3ED9BFDEC9AFC90008412350BC2
:10226E00900082E0FEA3E0FF90007FE02FFF900041
:10227E007EE03EFE900087E0FCA3E0FDC3EF9DFFF5
:10228E00EE9CFE900082E0FCA3E0FD900081E02D2C
:10229E00FD900080E03CFC90008AE02DFD900089CE
:1022AE00E03CFC90008412350B900082E0FEA3E02F
:1022BE00FF90007FE02FFF90007EE03EFE90008AB0
:1022CE00E02FFF900089E03EFE900082E0FCA3E04C
:1022DE00FD900081E02DFD900080E03CFC90008898
:1022EE00E02DFD900087E03CFC90008412350B90B1
:1022FE000082E0FEA3E0FF90007FE02FFF90007EC3
:10230E00E03EFE900089E0FCA3E0FDC3EF9DFFEEF2
:10231E009CFE900082E0FCA3E0FD900081E02DFD8C
:10232E00900080E03CFC900087E0FAA3E0FBC3ED58
:10233E009BFDEC9AFC90008412350B900082E0FE1F
:10234E00A3E0FF90007FE02FFF90007EE03EFE9026
:10235E00008AE02FFF900089E03EFE900082E0FCB4
:10236E00A3E0FD900081E02DFD900080E03CFC900C
:10237E000087E0FAA3E0FBC3ED9BFDEC9AFC900016
:10238E008412350B900082E0FEA3E0FF90007FE008
:10239E002FFF90007EE03EFE900089E0FCA3E0FD62
:1023AE00C3EF9DFFEE9CFE900082E0FCA3E0FD904B
:1023BE000081E02DFD900080E03CFC900088E02D37
:1023CE00FD900087E03CFC90008412350B90008657
:1023DE00E07003022530900082E0FEA3E0FF900043
:1023EE007FE02FFF90007EE03EFE900087E0FCA392
:1023FE00E0FDC3EF9DFFEE9CFEC006C0079000827D
:10240E00E0FEA3E0FF900081E02FFF900080E03E11
:10241E00FE900089E0FCA3E0FDC3EF9DFDEE9CFC69
:10242E00900082E0FEA3E0FF90007EE0FAA3E02F92
:10243E00FFEA3EFE900087E0FAA3E0FBC3EF9BFBB2
:10244E00EE9AFA900082E0FEA3E0FF900080E0F8A2
:10245E00A3E02FFFE83EFE900089E0F8A3E02FFFF7
:10246E00E83E900038F0A3EFF0900084E0FFA3E088
:10247E0090003ACFF0A3EFF0D007D0061217D69007
:10248E000082E0FEA3E0FF90007FE02FFF90007E31
:10249E00E03EFE900088E02FFF900087E03EFEC0F9
:1024AE0006C007900082E0FEA3E0FF900081E02FBF
:1024BE00FF900080E03EFE900089E0FCA3E0FDC3AB
:1024CE00EF9DFDEE9CFC900082E0FEA3E0FF9000ED
:1024DE007EE0FAA3E02FFFEA3EFE900087E0FAA32B
:1024EE00E02FFBEA3EFA900082E0FEA3E0FF9000B0
:1024FE0080E0F8A3E02FFFE83EFE900089E0F8A30D
:10250E00E02FFFE83E900038F0A3EFF0900084E05B
:10251E00FFA3E090003ACFF0A3EFF0D007D0061261
:10252E0017D6900088E004F06003022145900087E2
:06253E00E004F00221455B
:012544002274
:10297E00900023EEF0A3EFF0A3ECF0A3EDF0A3EAAA
:0D298E00F0A3EBF090002DE07003022A365C
:10299B00900027E0FCA3E0FD900025E0FAA3E0FB0C
:1029AB00900029E0FFA3E0900038CFF0A3EFF09068
:1029BB000023E0FEA3E0FF12332E900025E0FFA3DF
:1029CB00E090002ECFF0A3EFF0900029E0FEA3E003
:1029DB00FFD390002FE09F90002EE09E4003022B30
:1029EB0010900023E0FFA3E0900030CFF0A3EFF0B6
:1029FB00900027E0FEA3E0FFD3900031E09F900012
:102A0B0030E09E501690002B1236BF900031E00440
:102A1B00F070DD900030E004F080D590002FE004E2
:0B2A2B00F070A690002EE004F0809EEA
:102A3600900023E0FAA3E0FBFFAE02C007A3E0FC90
:102A4600A3E0FD900029E0FFA3E0900038CFF0A3BB
:102A5600EFF090002BE0FFA3E090003ACFF0A3EF59
:102A6600F0D0071217D6900029E0FCA3E0FD9000F5
:102A760027E0FAA3E0FBA3E0FFA3E0900038CFF045
:102A8600A3EFF090002BE0FFA3E090003ACFF0A375
:102A9600EFF0900023E0FEA3E0FF1217D690002788
:102AA600E0FAA3E0FBFFAE02C007A3E0FCA3E0FD53
:102AB600900025E0FFA3E0900038CFF0A3EFF09060
:102AC600002BE0FFA3E090003ACFF0A3EFF0D00791
:102AD6001217D6900025E0FCA3E0FD900023E0FA53
:102AE600A3E0FBA3E0FFA3E0900038CFF0A3EFF054
:102AF60090002BE0FFA3E090003ACFF0A3EFF09018
:0B2B06000027E0FEA3E0FF1217D6221C
:1032780090001EEAF0A3EBF090001AEEF0A3EFF036
:10328800A3ECF0A3EDF0C006C007A3E0FEA3E0FFA7
:1032980090001AE0FAA3E02FFBEA3EFA90001CE047
:1032A800F8A3E02FFFE83E900029F0A3EFF090008C
:1032B80020E0FFA3E090002BCFF0A3EFF0900022D6
:0C32C800E090002DF0D007D00602297E17
:10279F0090004AEEF0A3EFF0A3ECF0A3EDF0A3EA64
:0627AF00F0FCA3EBF0FDBD
:1027B50090004AE0FAA3E0FFAE02C006C0072DFF75
:1027C500EA3CCF24FFFDEF34FFFCA3E0FAA3E0FBD6
:1027D500900050E0FEA3E0FF90004CE0F8A3E02F4E
:1027E500FFE83ECF24FFCF34FF900038F0A3EFF091
:1027F500D007D00612332EE4900056F0A3F09000D7
:1028050050E0FCA3E0FD90004EE0FEA3E0FF1215B2
:102815006AC3900057E09F900056E09E400302294E
:102825007DA3E025E0FF900056E033FE900052E0E6
:10283500FBA3E0FAA3E0F98F828E831215E7FBAACA
:10284500F0EA54F8FE7F00900055E0F9FD7C001297
:10285500156AE4FD900058121753EA5407FEEB542D
:10286500E0FFE9FD7C0012156AE4FD90005C12179B
:1028750053900057E025E0FF900056E033FE9000AE
:1028850052E0FBA3E0FAA3E0F98F828E831215E7ED
:102895007E00541FFF900055E0FD7C0012156AE490
:1028A500FD900060121753E47B20FAF9F890005868
:1028B500E0FCA3E0FDA3E0FEA3E0FF1216A7E4FF02
:1028C500EE54F8FEE4FDFC900058121753E47B200B
:1028D500FAF9F890005CE0FCA3E0FDA3E0FEA3E0BC
:1028E500FF1216A7EF54E0FFEE5407FEE4FDFC903F
:1028F500005C121753E47B20FAF9F8900060E0FCC5
:10290500A3E0FDA3E0FEA3E0FF1216A7EF541FFF0F
:10291500E4FEFDFC900060121753900060E0FCA3FC
:10292500E0FDA3E0FEA3E0FF900058E0F8A3E0F986
:10293500A3E0FAA3E04FFFEA4EFEE94DFDE84CFCAB
:10294500A3E0F8A3E0F9A3E0FAA3E04FFFEA4EFE07
:10295500E94DFDE84CFC900058121753900058A320
:10296500A31236BF900057E004F0600302280390DD
:082975000056E004F002280303
:01297D002237
:0E363400EB25E0FBEA33FAD297123642C2973A
:0F3642007F0F7E00EF1F70011EEF64014E70F5C9
:013651002256
:1033D3007D93C297C2CAE4FCED30E704D295800224
:1033E300C295D297123642C297ED25E0FD0CECB49C
:1033F30008E6123642E4FBFAFC123634309604EB4C
:103403004401FB0CECB40CF1E4FCD297123642C23B
:0C341300970CECB404F4D2CAAE02AF0374
:01341F00228A
:103420007DD3C297C2CAE4FCED30E704D295800296
:10343000C295D297123642C297ED25E0FD0CECB44E
:1034400008E6123642E4FBFAFC123634309604EBFE
:103450004401FB0CECB40CF1E4FCD297123642C2EE
:0C346000970CECB404F4D2CAAE02AF0327
:01346C00223D
:10346D007DB3C297C2CAE4FCED30E704D295800269
:10347D00C295D297123642C297ED25E0FD0CECB401
:10348D0008E6123642E4FBFAFC123634309604EBB1
:10349D004401FB0CECB40CF1E4FCD297123642C2A1
:0C34AD00970CECB404F4D2CAAE02AF03DA
:0134B90022F0
:0B2C890090001AEBF0A3EAF0A3E9F0C2
:102C9400A312175F0000000090002112175F0000CC
:102CA4000000E490002DF012346DD3EF9464EE94A0
:102CB400005003022D63123420EF7802C333CE3365
:102CC400CED8F9FF7C007D3B12157CE4FCFD90001E
:102CD400291217531233D3EF7802C333CE33CED82D
:102CE400F9FF7C007D2C12157CE4FCFD900025127C
:102CF400175312346DD3EF941EEE94005003022D3B
:102D04009690001DE0FCA3E0FDA3E0FEA3E0FF908D
:102D14000025E0F8A3E0F9A3E0FAA3E0FBEF2BFF22
:102D2400EE3AFEED39FDEC38FC90001D121753907D
:102D34000021E0FCA3E0FDA3E0FEA3E0FF90002956
:102D4400E0F8A3E0F9A3E0FAA3E0FBEF2BFFEE3AEF
:102D5400FEED39FDEC38FC900021121753802490CD
:102D6400001AE0FBA3E0FAA3E0F9E4F5F012161F61
:102D740090001AE0FBA3E0FAA3E0F9900002E4F566
:102D8400F0807590002DE004F0E0C3940650030237
:102D94002CAB90002DE0FBE4FAF9F890001DE0FC68
:102DA400A3E0FDA3E0FEA3E0FF1216A7EF24F3FFC8
:102DB400EE34FFF990001AE0FBA3E0FAA3E0C98F18
:102DC400F012161F90002DE0FBE4FAF9F8900021B0
:102DD400E0FCA3E0FDA3E0FEA3E0FF1216A7C3748A
:102DE400049FFF74019EFE90001AE0FBA3E0FAA387
:0B2DF400E0F9900002EE8FF012163E96
:012DFF0022B1
:0636A700C292D2937F01E4
:1036AD00E4FEE4FDEDC39F50030D80F80EEEB4284B
:0136BD00F11B
:0136BE0022E9
:0E370C004392085391F71236A9D2920236ADBD
:1036D400D2927F011236ADD2931236ADC292123617
:0436E400ADC29322BE
:1036FA00E490001EF01236A92092FDC2937F0102C7
:02370A0036ADDA
:08373A001236A7C2930236AD5E
:0B3726001236A7D2921236ADC29322D9
:10357E00AC07E4FBEC30E70BD2921236A9C293C231
:10358E009280051236A7C2931236ADEC25E0FC0BE5
:07359E00EBB408E00236FA6D
:1035CC00D292E4FBEC25E0FC1236A9EC209207F435
:1035DC004401F4FC80034401FCC2930BEBB408E4FB
:0535EC0012373AAF04A4
:0135F10022B7
:10100300021157EC5D046005E85904700302114DA9
:10101300121118580460F6EC4860F2EC7004FDFEFF
:10102300FF22C860DB2481C85009C39860025006C0
:101033000211549850CAF582E9294B4A7005AB82D4
:1010430002114375F0007C1A7880C3EF9BEE9AED92
:1010530099400DC3EF9BFFEE9AFEED99FDE842F038
:10106300DC23ACF0D0E0FFD0E0FED0E0FDAB82208B
:10107300E7101BEB60BAEC2CFCEF33FFEE33FEED15
:1010830033FD02112FE803F830E705C0F075F000D7
:10109300EF2FFFEE33FEED33FD40B830E7C280AAF9
:1010A30075F020800E75F010800575F0087D007EC8
:1010B300007F003392D530D503121739EC3340103B
:1010C300EF33FFEE33FEED33FDEC33FCD5F0ED22D1
:0E10D300E5F0247EA2D513CC92E7CDCEFF220D
:1010E100EDD2E7CD33EC3392D524814006E4FFFE07
:1010F100FDFC22FCE4CFCECDCC24E0501174FF8066
:10110100EDC3CC13CCCD13CDCE13CECF13CF047002
:07111100F030D5DE021739B2
:101CA700E508241DF582E43400F583E00508229059
:101CB700001A30070390001DE475F0011217900217
:101CC70015122000E97F2ED2008018EF540F2490C0
:101CD700D43440D4FF30040BEF24BFB41A005003B0
:101CE7002461FFE50960021509050CE50C70020582
:101CF7000B30070E90001AE475F001121790EF02EF
:101D070015580235A57403D2078003E4C207F50806
:101D170090001A1217A7E4F509F50BF50CE5096011
:101D2700077F20121CEA80F5750AFFC201C200C2B4
:101D370002C203C205C206C208121CB6FF700D30EC
:101D470007057F00121CFBAF0CAE0B22B4255FC248
:101D5700D5C204121CB6FF24D0B40A00501A75F07D
:101D67000A780930D50508B6FF0106C6A426F6206D
:101D7700D5047002D20380D924CFB41A00EF5004DF
:101D8700C2E5D204021FEDD20180C6D20080C0D2C4
:101D97000280BCD2D580BAD20580B47F20121CEA5B
:101DA7002002077401B5090040F1121CA7FF121C9D
:101DB700EA021D24D208D2068095121CA7FB121C2A
:101DC700A7FA121CA7F94A4B700679EB7A207BFF1A
:101DD70020022EE509602A7E008E82758300121587
:101DE7002B60060EEE650A70F0C2D5EBC0E0EAC0C4
:101DF700E0E9C0E0EE12204ED0E0F9D0E0FAD0E002
:101E0700FB121512FF60AAEBC0E0EAC0E0E9C0E0F0
:101E1700121CEAD0E02401F9D0E03400FAD0E0FB4C
:101E2700E50A0460DCD50AD98087D20280A2122095
:101E37003060F7E50A70010412125AA90A600DE52D
:101E47000A600914F50A1220D8EF60F3EA30E702B6
:101E5700F404C3995079EAF4250A0430E701E4044D
:101E6700F50A800D12203060C1EA050A250A121210
:101E77005AEA900049F030E701E4250A04D50A043C
:101E87002005011412204EE4C0E01220D89000492A
:101E9700E0601320E70714F0121CD2802204F0D070
:101EA700E014C0E07F00121CD2E50A6007121CC9CB
:101EB700150A800B300503121CC9D0E0021D24D07F
:101EC700E00480C4122030609EE50A0412125A9082
:101ED7000049EAF0E50A2005026001042404122003
:011EE7004EAC
:101EE80074FF04C0E01220D8121CD2E50A200502B3
:101EF8006003121CC9D0E0B50AE87F45121CDC90CB
:101F08000049E07F2B30E7047F2DF404C0E0121C69
:101F1800EAD0E075F00A84C0F0121CD3D0E0121C9D
:101F2800D3021D24791080027908C206C2088008ED
:101F3800D2D5790A8004790AC2D5E50A047002F577
:101F48000AE4FAFDFEFF121CA7FC7B08200113120D
:101F58001CA7FD7B1030000A121CA7FE121CA7FF4D
:101F68007B20EC3382D592D55013C3E43000069F12
:101F7800FFE49EFEE42001039DFDE49CFCE4CBF815
:101F8800C201EC700CCFCECDCCE824F8F870F38009
:101F980017C3EF33FFEE33FEED33FDEC33FCEB33C9
:101FA800FB994002FB0FD8E9EB300105F8D0E0C4FB
:101FB80048B201C0E00AEC4D4E4F78207B0070C259
:101FC800EAB50A0040BCC0E0122050D0F0D0E020B2
:101FD8000104C4C0E0C4B201C0F0121CD3D0F0D5D3
:101FE800F0EB021D241217B01DC1531F2C581D926F
:101FF8004C1D8E421F304F1F38441F38491DA743C0
:102008001F3E551E6B461ECB451E3547210B501DE6
:10201800962D1D9A2E1DBD2B1D9E231DBB2020F421
:102028002A1D564800001DB5E50AB4FF03750A06C7
:10203800121CA7FC121CA7FD121CA7FE121CA7FF4E
:10204800900042021297790AA2D52003143005099C
:10205800B910020404B9080104A2D52006025001EF
:10206800042002689202B509005034C0E07F203095
:1020780003197F30A20272067205500F1220A7C200
:1020880002C206C205C2087F30800F300503E9C0CE
:10209800E0121CEA300503D0E0F9D0E0B509CC30F5
:1020A80005177F30B9100C121CEA7F583004077FDF
:1020B800788003B90803121CEA3002057F2D021C40
:1020C800EA7F202008F87F2B2006F322920280CF97
:1020D8007F00B40700500B2442F582E43400F583F6
:1020E800E0FF22286E756C6C2900D201121CA73003
:1020F80001F8C201780930D50108F6021D562D50A5
:10210800434958121CA72403B405004001E4902158
:102118000693121CDB743A121CDBD2037509040205
:022128001F2C6A
:1030900002114D22EDA2E7D2E7F9EC3340F260F3E2
:1030A000B4FF08ED547F70E8021157F82481C2E0A4
:1030B000C0E0F40428FAC313FCED92E7FD90009100
:1030C000121753EEA2E7E9BA7F02C313340094004B
:1030D000FA75F091A4E5F013F494FE8AF0A433E5B8
:1030E000F033248CD313FDE492E7FE7F007C3F7520
:1030F0008302ECC0E0F8EDC0E0F9EEC0E0FAEFC00A
:10310000E0FB8583F090009112174785F083121041
:1031100006D0E0FBD0E0FAD0E0F9D0E0F812116977
:10312000ED6480FD30E7011CD583C7ED33CC33F867
:0C313000D0E0A2E71328C313CC13FD224B
:10111800E9D2E7C933E833F892D5EDD2E7CD33EC1D
:0711280033FC5002B2D52296
:10112F00EC30E7100FBF000C0EBE00080DBD000421
:10113F000BEB6014A2D5EB13FCED92E7FD2274FFCD
:10114F00FCFDFEFF22E480F8A2D574FF13FC7D8026
:03115F00E480EF3A
:1011620002114DE86480F8E933E83360110460F05D
:10117200ED33EC337009E8FCE9FDEAFEEBFF2204F3
:1011820060DED3EB9FEA9EE99DE8C2E78CF0C2F7EE
:1011920095F0400CE8CCF8E9CDF9EACEFAEBCFFBBA
:1011A20012111885D0F05804700320D5B3E80470EA
:1011B200075002B2D502115792D5EC0460F7E4CC85
:1011C200C0E0C398F8603B94186008400DD0E0FB83
:1011D20002112FE4FBFAC9FC8028E830E406E4C9D6
:1011E200FBE4CAFCE830E305E4C9CACBFCE85407D7
:1011F2006010F8C3E913F9EA13FAEB13FBEC13FCE2
:10120200D8F130F52FC3E49CFCEF9BFFEE9AFEED84
:1012120099FDD0E0FBEF4E4D4C701222DB03021120
:1012220054EC2CFCEF33FFEE33FEED33FDED30E7F3
:10123200EB02112FEF2BFFEE3AFEED39FDD0E0FB72
:1012420050130BBB0003021157ED13FDEE13FEEF1B
:0812520013FFEC13FC02112F45
:10125A00F920E73624F950037907E4F42402FBE580
:10126A0082158270021583DBF6E024FB501BE960CD
:10127A0014E4F0E582158270021583E004F0B40AE2
:0D128A0008E4F0D9EE7401F00A22C2D5226A
:10129700ED33EC3392D5FA602AB4FF33EDC2E77B26
:1012A700FF60067A1279BCE4227A1279C520D50448
:1012B7007A1279C0224E614E002B494E46002D49C5
:1012C7004E4600E47A08F0A3DAFC7B00740722C0DC
:1012D70083C082ECC0E0EDC0E0EEC0E0EFC0E0EA22
:1012E70075F010A4CAABF075F04DA42BFBE435F0F4
:1012F700FCEA2410FAEB34C5FBEC34D9FCEDC2E769
:10130700FF75F056A4F42411C5F0F434C58FF0A48A
:101317002AE5F03BE43CF020E7141214D2D0E0FFBA
:10132700D0E0FED0E0FDD0E0FC1210068014F404FB
:101337001214D2D0E0FFD0E0FED0E0FDD0E0FC12E6
:10134700139CD082D083E0FAEDD2E7CD33EC33247F
:1013570082FBE4C3CF33CFCE33CECD33CD33DBF3F4
:101367007B0775F00A846004F0A31B0AE5F0F0A37D
:101377008FF0740AA4FFACF08EF0740AA42CFEACB4
:10138700F050010C8DF0740AA42CFDE435F0F0A3A5
:05139700DBDE740722FB
:10139C00EC4D6011E8497017ED33EC3304600DE44B
:1013AC00FCFFFEFD22E933E8330470F802114D1204
:1013BC00111858046009E4CC248150062850090205
:1013CC001157284003021154C0E0EB4A7044B98015
:1013DC0006D0E0FB021143EF4E701CBD8008EBFF02
:1013EC00EAFEE9FD80EBE98DF0A4FEE5F002148540
:1013FC00E9CDF9EAFEEBFFEF89F0A4FCE5F0CE892C
:10140C00F0A42EFFE435F0CD89F0A42DFEE435F0E8
:10141C008067EF4E7005BD80D780C3EF8BF0A4AC16
:10142C00F0EE8BF0A42CFCE435F0F8EF8AF0A42C51
:10143C00E5F038FCE433CB8DF0A42CFCE5F03BF864
:10144C00EE8AF0A42CFCE5F038F8E433CF89F0A454
:10145C002CFCE5F038CF3400CE89F0A42FFFE5F05A
:10146C003EFEE433C98DF0A42EFEE5F039CD8AF0B2
:10147C00A42FFFE5F03EFEE43DFD33D0E0FB50072A
:10148C000BBB000F021157EC2CFCEF33FFEE33FEBD
:06149C00ED33FD02112FEB
:1014A2003F8000004120000042C80000447A000052
:1014B200461C400047C35000497424004B189680D4
:1014C2004CBEBC205A0E1BCA6753C21C749DC5AECB
:1014D200FB60065407601C2323121500EB5438608E
:1014E200091214EC1214FB12139CECF8EDF9EEFA4B
:1014F200EFCB22EB1214FB80F1543803241C90141E
:10150200A2FE93FC0EEE93FD0EEE930ECE93FF22FF
:0300000002371AAA
:0C371A00787FE4F6D8FD7581210225457A
:10151200BB010689828A83E0225002E722BBFE02D7
:09152200E32289828A83E493220A
:10152B00BB010CE58229F582E5833AF583E0225075
:10153B0006E92582F8E622BBFE06E92582F8E222BF
:0D154B00E58229F582E5833AF583E49322D9
:10155800BB010689828A83F0225002F722BBFE0172
:02156800F3226C
:10156A00EF8DF0A4A8F0CF8CF0A428CE8DF0A42E95
:02157A00FE224F
:10157C00BC000BBE0029EF8DF084FFADF022E4CC53
:10158C00F875F008EF2FFFEE33FEEC33FCEE9DEC1C
:10159C00984005FCEE9DFE0FD5F0E9E4CEFD22ED62
:1015AC00F8F5F0EE8420D21CFEADF075F008EF2FAC
:1015BC00FFED33FD4007985006D5F0F222C398FD9D
:0515CC000FD5F0EA223A
:1015D100C5F0F8A3E028F0C5F0F8E58215827002A5
:0615E1001583E038F02242
:1015E700BB0110E58229F582E5833AF583E0F5F042
:1015F700A3E0225009E92582F886F008E622BBFE1F
:101607000AE92582F8E2F5F008E222E5832AF58364
:08161700E993F5F0A3E9932229
:10161F00BB010A89828A83F0E5F0A3F0225006F716
:0F162F0009A7F01922BBFE06F3E5F009F3192213
:10163E00F8BB0111E58229F582E5833AF583E8F0DE
:10164E00E5F0A3F0225009E92582C8F608A6F0229B
:0D165E00BBFE09E92582C8F2E5F008F22282
:10166B0075F008758200EF2FFFEE33FECD33CDCC36
:10167B0033CCC58233C5829BED9AEC99E5829840B9
:10168B000CF582EE9BFEED9AFDEC99FC0FD5F0D696
:10169B00E4CEFBE4CDFAE4CCF9A88222B800C1B9C0
:1016AB000059BA002DEC8BF084CFCECDFCE5F0CBFE
:1016BB00F97818EF2FFFEE33FEED33FDEC33FCEB37
:1016CB0033FB10D703994004EB99FB0FD8E5E4F9F2
:1016DB00FA227818EF2FFFEE33FEED33FDEC33FCDF
:1016EB00C933C910D7059BE99A4007EC9BFCE99AD3
:1016FB00F90FD8E0E4C9FAE4CCFB2275F010EF2F18
:10170B00FFEE33FEED33FDCC33CCC833C810D70717
:10171B009BEC9AE899400AED9BFDEC9AFCE899F852
:0E172B000FD5F0DAE4CDFBE4CCFAE4C8F922E5
:0E173900C3E49FFFE49EFEE49DFDE49CFC22C1
:0C174700E0FCA3E0FDA3E0FEA3E0FF2215
:0C175300ECF0A3EDF0A3EEF0A3EFF02209
:10175F00A8828583F0D083D0821217761217761263
:10176F001776121776E473E493A3C583C5F0C58388
:10177F00C8C582C8F0A3C583C5F0C583C8C582C8D4
:01178F002237
:10179000F8E0FBA3A3E0F925F0F0E58215827002E2
:0717A0001583E0FA38F02286
:0917A700EBF0A3EAF0A3E9F02243
:1017B000D083D082F8E4937012740193700DA3A3C8
:1017C00093F8740193F5828883E4737402936860DC
:0617D000EFA3A3A380DFDC
:1035A500EFB40A07740D1235B0740A309811A89952
:1035B500B8130CC2983098FDA899C298B811F63086
:0735C50099FDC299F599225E
:00000001FF
