:10321D00546865206E756D62657220697320256432
:01322D0000A0
:05322E004200620000F7
:10318500E4FFFEE4FDFC0DBD00010CBC01F8BD90A3
:0C319500F50FBF00010EBE03EABFE8E723
:0131A100220B
:07323800D2AFD2AAC28A2224
:102F27001232381230A674FFFFFE122FC89000032A
:102F370074FFF0A37432F0A3741DF0900062E0FFF9
:102F4700A3E0900006CFF0A3EFF07B017A0079644D
:102F5700121C4D7B017A007964E4900007F0A3F01E
:102F670074FFA3F0A3F07D647C007F647E00122CC5
:032F7700AC80BA71
:03001300023008B0
:10300800C0E0C083C082C0D075D000C004C005C075
:1030180006C007C2AF900063E004F070069000623B
:10302800E004F0123185D2AFD007D006D005D00425
:09303800D0D0D082D083D0E03268
:043233004100C3048F
:1031BF009000C3E0FF1231D4439080E0FF1231D46E
:0531CF0053907FE0FFBA
:0731D400EF60031F80FA22E7
:01000F0022CE
:0C000300E49000C3F012000F53907F2225
:0230F900AE0720
:1030FB00E4FDEE30E70543902080035390DF12315F
:10310B00BFEE25E0FEE59030E6010E0DEDB407E2D3
:02311B00AF06FD
:01311D00228F
:02311E00AE07FA
:10312000E4FDEE30E70543902080035390DF123139
:10313000BFEE25E0FEE59030E6010E0DEDB408E2AD
:02314000AF06D8
:01314200226A
:10304100EF14601514601924FE601C24FC601F2419
:10305100087021E49000C3F0229000C37401F022B3
:103061009000C37402F0229000C37404F022900017
:05307100C37410F02201
:1000160000000000000000000000000000000000DA
:1000260000007E81A58181BD9981817E000000004E
:1000360000007EFFDBFFFFC3E7FFFF7E000000003E
:10004600000000006CFEFEFEFE7C38100000000082
:100056000000000010387CFE7C3810000000000014
:10006600000000183C3CE7E7E718183C00000000D9
:10007600000000183C7EFFFF7E18183C00000000C0
:10008600000000000000183C3C18000000000000C2
:10009600FFFFFFFFFFFFE7C3C3E7FFFFFFFFFFFF12
:1000A60000000000003C664242663C000000000082
:1000B600FFFFFFFFFFC399BDBD99C3FFFFFFFFFF12
:1000C60000001E0E1A3278CCCCCCCC780000000092
:1000D60000003C666666663C187E18180000000044
:1000E60000003F333F3030303070F0E00000000059
:1000F60000007F637F6363636367E7E6C000000019
:100106000000001818DB3CE73CDB18180000000074
:100116000080C0E0F0F8FEF8F0E0C08000000000CB
:100126000002060E1E3EFE3E1E0E060200000000E7
:100136000000183C7E1818187E3C180000000000CD
:100146000000666666666666660066660000000013
:1001560000007FDBDBDB7B1B1B1B1B1B0000000087
:10016600007CC660386CC6C66C380CC67C000000C5
:100176000000000000000000FEFEFEFE0000000081
:100186000000183C7E1818187E3C187E00000000FF
:100196000000183C7E1818181818181800000000DF
:1001A6000000181818181818187E3C1800000000CF
:1001B6000000000000180CFE0C18000000000000F3
:1001C60000000000003060FE60300000000000000B
:1001D600000000000000C0C0C0FE000000000000DB
:1001E6000000000000286CFE6C28000000000000E3
:1001F600000000001038387C7CFEFE000000000085
:1002060000000000FEFE7C7C383810000000000074
:1002160000000000000000000000000000000000D8
:100226000000183C3C3C1818180018180000000084
:100236000066666624000000000000000000000062
:100246000000006C6CFE6C6C6CFE6C6C00000000B8
:1002560018187CC6C2C07C060686C67C1818000024
:1002660000000000C2C60C183060C6860000000000
:100276000000386C6C3876DCCCCCCC760000000004
:100286000030303060000000000000000000000078
:1002960000000C18303030303030180C00000000F0
:1002A600000030180C0C0C0C0C0C18300000000070
:1002B6000000000000663CFF3C66000000000000F5
:1002C600000000000018187E18180000000000004A
:1002D60000000000000000000018181830000000A0
:1002E60000000000000000FE00000000000000000A
:1002F60000000000000000000000181800000000C8
:100306000000000002060C183060C08000000000EB
:100316000000386CC6C6D6D6C6C66C3800000000CB
:1003260000001838781818181818187E00000000F1
:1003360000007CC6060C183060C0C6FE0000000037
:1003460000007CC606063C060606C67C00000000C9
:1003560000000C1C3C6CCCFE0C0C0C1E00000000BB
:100366000000FEC0C0C0FC060606C67C00000000F9
:1003760000003860C0C0FCC6C6C6C67C00000000CF
:100386000000FEC606060C183030303000000000B3
:1003960000007CC6C6C67CC6C6C6C67C0000000079
:1003A60000007CC6C6C67E0606060C780000000065
:1003B60000000000181800000018180000000000D7
:1003C6000000000018180000001818300000000097
:1003D600000000060C18306030180C060000000003
:1003E60000000000007E00007E000000000000000B
:1003F6000000006030180C060C1830600000000089
:1004060000007CC6C60C181818001818000000005A
:100416000000007CC6C6DEDEDEDCC07C000000001C
:10042600000010386CC6C6FEC6C6C6C60000000070
:100436000000FC6666667C66666666FC0000000078
:1004460000003C66C2C0C0C0C0C2663C00000000DE
:100456000000F86C6666666666666CF8000000006A
:100466000000FE6662687868606266FE0000000052
:100476000000FE6662687868606060F00000000058
:1004860000003C66C2C0C0DEC6C6663A0000000078
:100496000000C6C6C6C6FEC6C6C6C6C60000000062
:1004A60000003C18181818181818183C000000000E
:1004B60000001E0C0C0C0C0CCCCCCC780000000000
:1004C6000000E666666C78786C6666E600000000FA
:1004D6000000F06060606060606266FE0000000020
:1004E6000000C6EEFEFED6C6C6C6C6C600000000A2
:1004F6000000C6E6F6FEDECEC6C6C6C60000000092
:1005060000007CC6C6C6C6C6C6C6C67C00000000BD
:100516000000FC6666667C60606060F000000000BB
:1005260000007CC6C6C6C6C6C6D6DE7C0C0E00005B
:100536000000FC6666667C6C666666E60000000087
:1005460000007CC6C660380C06C6C67C00000000EB
:1005560000007E7E5A1818181818183C0000000073
:100566000000C6C6C6C6C6C6C6C6C67C0000000013
:100576000000C6C6C6C6C6C6C66C38100000000057
:100586000000C6C6C6C6D6D6D6FEEE6C0000000073
:100596000000C6C66C7C38387C6CC6C600000000FD
:1005A6000000666666663C181818183C00000000D5
:1005B6000000FEC6860C183060C2C6FE00000000B1
:1005C60000003C30303030303030303C000000002D
:1005D60000000080C0E070381C0E0602000000001B
:1005E60000003C0C0C0C0C0C0C0C0C3C000000002D
:1005F60010386CC60000000000000000000000007B
:1006060000000000000000000000000000FF0000E5
:10061600303018000000000000000000000000005C
:100626000000000000780C7CCCCCCC7600000000EA
:100636000000E06060786C666666667C000000001C
:1006460000000000007CC6C0C0C0C67C00000000E0
:1006560000001C0C0C3C6CCCCCCCCC760000000012
:1006660000000000007CC6FEC0C0C67C0000000082
:100676000000386C6460F060606060F000000000AC
:10068600000000000076CCCCCCCCCC7C0CCC780026
:100696000000E060606C7666666666E60000000054
:1006A60000001818003818181818183C0000000028
:1006B60000000606000E06060606060666663C00EE
:1006C6000000E06060666C78786C66E6000000000A
:1006D60000003818181818181818183C00000000E0
:1006E6000000000000ECFED6D6D6D6C600000000FC
:1006F6000000000000DC66666666666600000000B4
:1007060000000000007CC6C6C6C6C67C000000000D
:100716000000000000DC66666666667C6060F000CD
:10072600000000000076CCCCCCCCCC7C0C0C1E009F
:100736000000000000DC7666606060F000000000EB
:1007460000000000007CC660380CC67C000000007B
:100756000000103030FC30303030361C0000000015
:100766000000000000CCCCCCCCCCCC760000000045
:10077600000000000066666666663C180000000021
:100786000000000000C6C6D6D6D6FE6C00000000EB
:100796000000000000C66C3838386CC60000000047
:1007A6000000000000C6C6C6C6C6C67E060CF80017
:1007B6000000000000FECC183060C6FE00000000FD
:1007C60000000E18181870181818180E00000000EF
:1007D600000018181818001818181818000000003B
:1007E6000000701818180E1818181870000000006D
:1007F600000076DC000000000000000000000000A1
:100806000000000010386CC6C6C6FE0000000000DE
:1008160000003C66C2C0C0C0C2663C0C067C00003C
:100826000000CC0000CCCCCCCCCCCC7600000000B8
:10083600000C1830007CC6FEC0C0C67C000000005C
:100846000010386C00780C7CCCCCCC760000000014
:100856000000CC0000780C7CCCCCCC7600000000EC
:100866000060301800780C7CCCCCCC760000000000
:1008760000386C3800780C7CCCCCCC7600000000BC
:10088600000000003C666060663C0C063C00000010
:100896000010386C007CC6FEC0C0C67C000000009C
:1008A6000000C600007CC6FEC0C0C67C000000007A
:1008B60000603018007CC6FEC0C0C67C0000000088
:1008C60000006600003818181818183C00000000D0
:1008D60000183C66003818181818183C000000006C
:1008E60000603018003818181818183C000000006E
:1008F60000C60010386CC6C6FEC6C6C6000000009C
:10090600386C3800386CC6C6FEC6C6C60000000085
:1009160018306000FE66607C606066FE00000000C5
:100926000000000000CC76367ED8D86E00000000AD
:1009360000003E6CCCCCFECCCCCCCCCE0000000073
:100946000010386C007CC6C6C6C6C67C0000000017
:100956000000C600007CC6C6C6C6C67C00000000F5
:1009660000603018007CC6C6C6C6C67C0000000003
:10097600003078CC00CCCCCCCCCCCC7600000000BF
:100986000060301800CCCCCCCCCCCC76000000007B
:100996000000C60000C6C6C6C6C6C67E060C7800DF
:1009A60000C6007CC6C6C6C6C6C6C67C0000000019
:1009B60000C600C6C6C6C6C6C6C6C67C00000000BF
:1009C6000018183C66606060663C1818000000005D
:1009D60000386C6460F060606060E6FC0000000057
:1009E600000066663C187E187E1818180000000085
:1009F60000F8CCCCF8C4CCDECCCCCCC600000000D1
:100A0600000E1B1818187E1818181818D870000031
:100A16000018306000780C7CCCCCCC76000000004E
:100A2600000C1830003818181818183C0000000080
:100A360000183060007CC6C6C6C6C67C0000000032
:100A46000018306000CCCCCCCCCCCC7600000000BA
:100A5600000076DC00DC66666666666600000000FE
:100A660076DC00C6E6F6FEDECEC6C6C60000000090
:100A7600003C6C6C3E007E000000000000000000A0
:100A860000386C6C38007C0000000000000000009C
:100A96000000303000303060C0C6C67C0000000068
:100AA600000000000000FEC0C0C0C0000000000042
:100AB600000000000000FE0606060600000000001A
:100AC60000C0C0C2C6CC183060DC860C183E0000E0
:100AD60000C0C0C2C6CC183066CE9E3E06060000D8
:100AE60000001818001818183C3C3C1800000000BC
:100AF6000000000000366CD86C36000000000000D4
:100B06000000000000D86C366CD800000000000021
:100B16001144114411441144114411441144114427
:100B260055AA55AA55AA55AA55AA55AA55AA55AAC7
:100B3600DD77DD77DD77DD77DD77DD77DD77DD770F
:100B4600181818181818181818181818181818181F
:100B560018181818181818F818181818181818182F
:100B66001818181818F818F818181818181818183F
:100B760036363636363636F636363636363636364F
:100B860000000000000000FE3636363636363636B1
:100B96000000000000F818F8181818181818181887
:100BA6003636363636F606F636363636363636368F
:100BB60036363636363636363636363636363636CF
:100BC6000000000000FE06F6363636363636363675
:100BD6003636363636F606FE000000000000000007
:100BE60036363636363636FE000000000000000087
:100BF6001818181818F818F800000000000000006F
:100C060000000000000000F8181818181818181826
:100C1600181818181818181F000000000000000007
:100C260018181818181818FF000000000000000017
:100C360000000000000000FF1818181818181818EF
:100C4600181818181818181F181818181818181817
:100C560000000000000000FF00000000000000008F
:100C660018181818181818FF181818181818181817
:100C760018181818181F181F1818181818181818E0
:100C860036363636363636373636363636363636FD
:100C9600363636363637303F00000000000000009A
:100CA60000000000003F30373636363636363636E8
:100CB6003636363636F700FF00000000000000002A
:100CC6000000000000FF00F7363636363636363678
:100CD60036363636363730373636363636363636B2
:100CE6000000000000FF00FF000000000000000000
:100CF6003636363636F700F7363636363636363642
:100D06001818181818FF00FF000000000000000067
:100D160036363636363636FF000000000000000054
:100D26000000000000FF00FF1818181818181818FF
:100D360000000000000000FF3636363636363636FE
:100D4600363636363636363F0000000000000000E4
:100D560018181818181F181F0000000000000000BF
:100D660000000000001F181F181818181818181867
:100D7600000000000000003F36363636363636367E
:100D860036363636363636FF363636363636363634
:100D96001818181818FF18FF1818181818181818FF
:100DA60018181818181818F800000000000000009D
:100DB600000000000000001F18181818181818184E
:100DC600FFFFFFFFFFFFFFFFFFFFFFFFFFFFFFFF2D
:100DD60000000000000000FFFFFFFFFFFFFFFFFF16
:100DE600F0F0F0F0F0F0F0F0F0F0F0F0F0F0F0F0FD
:100DF6000F0F0F0F0F0F0F0F0F0F0F0F0F0F0F0FFD
:100E0600FFFFFFFFFFFFFF000000000000000000E3
:100E1600000000000076DCD8D8D8DC7600000000A0
:100E2600000078CCCCCCD8CCC6C6C6CC000000001E
:100E36000000FEC6C6C0C0C0C0C0C0C000000000E2
:100E460000000000FE6C6C6C6C6C6C6C00000000AA
:100E5600000000FEC66030183060C6FE00000000CC
:100E660000000000007ED8D8D8D8D8700000000056
:100E76000000000066666666667C6060C000000072
:100E86000000000076DC181818181818000000007A
:100E96000000007E183C6666663C187E0000000076
:100EA600000000386CC6C6FEC6C66C3800000000DE
:100EB6000000386CC6C6C66C6C6C6CEE0000000098
:100EC60000001E30180C3E666666663C0000000098
:100ED60000000000007EDBDBDB7E0000000000007F
:100EE60000000003067EDBDBF37E60C0000000002E
:100EF60000001C3060607C606060301C00000000F8
:100F06000000007CC6C6C6C6C6C6C6C6000000002F
:100F160000000000FE0000FE0000FE0000000000D1
:100F26000000000018187E18180000FF00000000DE
:100F360000000030180C060C1830007E000000007F
:100F46000000000C18306030180C007E0000000015
:100F560000000E1B1B18181818181818181818183F
:100F66001818181818181818D8D8D87000000000C3
:100F7600000000001818007E00181800000000008D
:100F8600000000000076DC0076DC000000000000B7
:100F960000386C6C38000000000000000000000003
:100FA600000000000000001818000000000000000B
:100FB6000000000000000000180000000000000013
:100FC600000F0C0C0C0C0CEC6C6C3C1C00000000B4
:100FD60000D86C6C6C6C6C00000000000000000017
:100FE6000070D83060C8F800000000000000000063
:100FF600000000007C7C7C7C7C7C7C000000000087
:1010060000000000000000000000000000000000DA
:103143007F20123155C374F09DFFE49CFE1231FBC6
:023153007F21DA
:10315500C2B4C2B58F8075A000C2B6D2B6D2B422B1
:0531F600E0FEA3E0FF74
:1031FB00C2B4D2B58F80EEF5A0C2B6D2B6D2B4228D
:1031DB007580FF75A0FFC2B4D2B5C2B77F00AD80BA
:0A31EB00EF2DFFE433FED2B7D2B49B
:0131F50022B7
:08320B00900002E0FCA3E0FDCD
:0A321300123155AE04AF050231FB85
:10316500E4FDFCC3ED9FEC9E5015E4FBFA0BBB00A0
:0F317500010AEB64C84A70F50DBD00010C80E43F
:013184002228
:1027F8007FF47E011231657D007C017F0112321366
:102808007C077F021232137D287C107F031232135B
:10281800E4FDFC7F041232137D077C027F0812322C
:1028280013E4FDFC7F091232137F0A1232137F0C66
:102838001232137F0D1232137F0F1232137F1012D0
:1028480032137D077F11123213E4FD7F1212321307
:102858007F131232137D907C127F101232137D2762
:102868007C027F111232137D1D7C007F12123213FD
:102878007D007C157F131232137D187C007F29128E
:1028880032137D0D7F2B1232137D047F30123213E9
:102898007D077C037F311232137D027C007F321268
:1028A80032137D067C027F351232137D087C047F4B
:1028B800361232131D0C7F371232137D047C027FCF
:1028C800381232137407FDFC7F391232137D057CF0
:1028D800047F3C1232137D027C0F7F3D123213E4D9
:1028E800FDFC7F501232137DEF7F51123213E4FD4D
:1028F8007F521232137D3F0C7F531232137D007CBE
:10290800A77F601232130D7C007F611232131D7F86
:102918006A1232137F801232137F811232137F8240
:102928001232137F831232137F841232137F85127F
:1029380032137D107F901232137D007C067F921235
:1029480032137D037C007F931232137D100C7F9528
:10295800123213E4FD1C7F971232137F9812321340
:082968007D330C7F07023213DE
:102ED000900002EEF0A3EFF0A3ECF0A3EDF0900071
:102EE00008E0FEA3E0FFC374F09FFDE49EFC7F506A
:102EF000123213C374F09BFDE49AFC7F511232131B
:102F00007F5212320BA3E0FCA3E0FD7F5312321379
:102F1000C374F09BFDE49AFC7F201232137F2112D0
:072F2000320B7F2202315544
:082FC800900000EEF0A3EFF011
:102FD000900008E4F0A374F0F0E4FBFA7D407C017B
:102FE000FFFE122ED0E4FDFCE4FBFA90000012314B
:102FF000F60BBB00010AEB64F14A70EF0DBD000156
:073000000CBC01E4BD42E13C
:0130070022A6
:1030A6007594FFE4F5937596FFF595D2B4C2907FBB
:1030B600C8FE123165D2907FFA1231651227F87F69
:0C30C6002C7E01123165E4FF1E022FC8B1
:042F7A00AD07AC06ED
:102F7E00ED541FFF9000C1E4F0A3EFF0ED7805CE05
:102F8E00C313CE13D8F9543FFB7A00EC131313542A
:102F9E001FFD7C007E00EB7805C333CE33CED8F90F
:102FAE00FBAA069000C2E033333354F8FEE42BFF45
:092FBE00EE3AFEEF2DFFEE3CFEA1
:012FC70022E7
:0431A200AB07AA06C7
:1031A600123143AE02AF031231FB7F2212315512A8
:0831B60031DB1231DB122F7A2C
:0131BE0022EE
:102D4D009000B7EEF0A3EFF0A3ECF0A3EDF0A3EA43
:042D5D00F0A3EBF004
:102D61009000B7E0FCA3E0FFAE04C006C007240159
:102D7100FDE43CFCA3E0FAA3E0FB9000B9E0FEA374
:102D8100E02401FFE43E900008F0A3EFF0D007D06B
:102D910006122ED09000B9E0FEA3E0FDAC06900033
:102DA100BAE02401FF9000B9E03400FED3ED9FECBE
:102DB1009E50339000B7E0FEA3E0FBAA069000B856
:102DC100E02401FF9000B7E03400FED3EB9FEA9EC0
:102DD100500D9000BB1231F60BBB00010A80DE0DD5
:062DE100BD00010C80B8EA
:012DE70022C9
:10307600900054E0FEA3E0FFA3E0FCA3E0FD900077
:0630860052E0FAA3E0FB9A
:10308C008F828E83123143AE83AF821231FB7F224B
:0A309C00123155AE02AF030231FB02
:1029700090000CEEF0A3EFF0A3ECF0A3EDF0A903B0
:10298000E4900015F0A3F0900015E0FCA3E0FDC377
:0A2990009410EC94004003022A6743
:10299A00E9FF3395E0FEEFC4F8540FC868FFEEC4B0
:1029AA0054F048FEED2FFFEC3EFE74162FF58274AC
:1029BA00003EF583E493900019F0E4900017F0A329
:1029CA00F0900017E0FEA3E0FFC39408EE940050D5
:1029DA007BA3E030E72590000CE0FCA3E0FDEF2D9F
:1029EA00FFEE3CFEA3E0FCA3E0FD900016E02DFD07
:1029FA00900015E03CFC9000118036900013E070C6
:102A0A0003A3E0F4602E90000CE0FEA3E0FF900028
:102A1A0018E02FFF900017E03EFE90000EE0FCA3A6
:102A2A00E0FD900016E02DFD900015E03CFC9000C2
:102A3A0013123087900019E025E0F0900018E004A6
:0C2A4A00F07006900017E004F00229CBA9
:102A5600900016E004F07006900015E004F00229DC
:012A660087E8
:012A6700224C
:102CAC00900000EEF0A3EFF0A3ECF0A3EDF0A3EB9B
:072CBC00F0A3EAF0A3E9F028
:102CC300E490000BF0900004E0FBA3E0FAA3E0F92A
:102CD300121525FF60733395E0FEC3EF9480EE6415
:102CE30080948050E090000BE0FF3395E0FEEF7896
:102CF30003C333CE33CED8F9FF900001E02FFF900A
:102D03000000E03EFEC007900002E0FCA3E0FD12DD
:102D13001525FB900007E0FFA3E0900011CFF0A37F
:102D2300EFF0900009E0FFA3E0900013CFF0A3EFD2
:102D3300F0D00712297090000BE004F0900005E436
:092D430075F00112158F022CC875
:012D4C002264
:102B4B00900087EEF0A3EFF0A3ECF0A3EDF0A3EA77
:062B5B00F0FCA3EBF0FD0D
:102B6100900087E0FAA3E0FFAE02C006C0072DFF88
:102B7100EA3CCF24FFFDEF34FFFCA3E0FAA3E0FB26
:102B810090008DE0FEA3E0FF900089E0F8A3E02F24
:102B9100FFE83ECF24FFCF34FF900008F0A3EFF011
:102BA100D007D006122ED0E4900092F0A3F090004E
:102BB1008DE0FCA3E0FD90008BE0FEA3E0FF121589
:102BC1007D900092E0FCA3E0FDC39FEC9E502FEDB1
:102BD10025E0FFEC33FE90008FE0FBA3E0FAA3E0D9
:102BE100F98F828E831215A5FFAEF01231FB900092
:0E2BF10093E004F070B8900092E004F080B021
:012BFF0022B3
:102A6800900094EEF0A3EFF0A3ECF0A3EDF0A3EA4E
:062A7800F0FCA3EBF0FDF1
:102A7E00900094E0FAA3E0FFAE02C006C0072DFF5F
:102A8E00EA3CCF24FFFDEF34FFFCA3E0FAA3E0FB0A
:102A9E0090009AE0FEA3E0FF900096E0F8A3E02FEE
:102AAE00FFE83ECF24FFCF34FF900008F0A3EFF0F5
:102ABE00D007D006122ED0E490009FF0A3F0900025
:102ACE009AE0FCA3E0FD900098E0FEA3E0FF121553
:102ADE007DC39000A0E09F90009FE09E505E90000E
:102AEE009CE0FBA3E0FAA3E0F9A3E0FEA3E0F582ED
:102AFE008E8312153EFD543875F040A4FBED54E064
:102B0E0045F0FCEBFD90009CE0FBA3A3A3E0FEA32D
:102B1E00E0F5828E8312153E540375F008A4FFEC87
:102B2E0045F0FEED4FFDAC06FF1231FB9000A0E02C
:0C2B3E0004F0708A90009FE004F0808298
:012B4A002268
:1017170090004AEEF0A3EFF090004EEAF0A3EBF052
:0817270090004CECF0A3EDF082
:10172F00900050E06C7003A3E06D705790004EE096
:10173F00FEA3E0FF90004AE0FCA3E0FDD39FEC9EE8
:10174F0090005450028008EEF0A3EFF090004EECA2
:10175F00F0A3EDF090004EE0FCA3E0FD900054E00C
:10176F00FEA3E0FFD39DEE9C4003021BE790004CCD
:10177F0012307F900055E004F070D9900054E004CF
:10178F00F080D1900050E0FEA3E0FF90004CE0FC11
:10179F00A3E0FDD39FEC9E4006ED9FFFEC801390DE
:1017AF00004CE0FEA3E0FFC3900051E09FFF9000CC
:1017BF0050E09E90005AF0A3EFF090004EE0FEA391
:1017CF00E0FF90004AE06E7003A3E06F705C900042
:1017DF0050E0FEA3E0FF90004CE0FCA3E0FDD39FA0
:1017EF00EC9E90005650028008EEF0A3EFF09000B0
:1017FF0050ECF0A3EDF0900050E0FEA3E0FF90005E
:10180F0056E0FCA3E0FDD39FEC9E4003021BE79044
:10181F00004AE0FEA3E0FF123084900057E004F08E
:10182F0070D4900056E004F080CC90004EE0FEA300
:10183F00E0FF90004AE0FCA3E0FDD39FEC9E403D0B
:10184F0090004EE0FAA3E0FBED9BFEEC9A9000585F
:10185F00F0A3CEF0900054EAF0A3EBF090004EEC22
:10186F00F0A3EDF0A3E0FFA3E0900056CFF0A3EFBD
:10187F00F090004CE0FFA3E0900050802D90004AC4
:10188F00E0FAA3E0FBC390004FE09BFE90004EE018
:10189F009A900058F0A3CEF0900054EAF0A3EBF02A
:1018AF0090004CE0FFA3E0900056CFF0A3EFF09034
:1018BF00005AE0FEA3E0FF900058E06E7003A3E033
:1018CF006F705A90004EE0FEA3E0FFD3900055E0FA
:1018DF009F900054E09E4003021BE7A3E004F070CA
:1018EF0006900054E004F0900050E0FEA3E0FFD318
:1018FF00900057E09F900056E09E400EA3E024FF1B
:10190F00F0900056E034FFF0800E900057E004F0A6
:10191F007006900056E004F012307680A6123076F2
:10192F00900050E0FEA3E0FFC3900057E09F9000AF
:10193F0056E09E4003021A9790005AE0FEA3E0FF84
:10194F00900058E0FCA3E0FD9FEC9E50030219F6B7
:10195F00EF25E0FBEE33FAC3EB9DFEEA9C90005CB3
:10196F00F0A3CEF0A3EAF0A3EBF0900058E0FEA3B3
:10197F00E0FFC390005BE09FFF90005AE09EFEEFF8
:10198F0025E0FFEE33900060F0A3EFF090004EE003
:10199F00FEA3E0FFC3900055E09F900054E09E40EF
:1019AF0003021BE7A3E004F07006900054E004F07C
:1019BF00C390005CE064809480500590005E8011BD
:1019CF00900057E004F07006900056E004F090008D
:1019DF0060E0FEA3E0FF90005DE02FF090005CE080
:0719EF003EF012307680A5E6
:1019F600900059E025E0FB900058E033FA90005A39
:101A0600E0FEA3E0FFC3EB9FFFEA9EA3F0A3EFF087
:101A1600A3EAF0A3EBF090005AA3E0FFC3900059AD
:101A2600E09FFF900058E09EFEEF25E0FFEE33902A
:101A36000060F0A3EFF0900050E0FEA3E0FFC3903B
:101A46000057E09F900056E09E4003021BE7A3E08C
:101A560004F07006900056E004F0C390005CE06469
:101A6600809480500590005E8011900055E004F04F
:101A76007006900054E004F0900060E0FEA3E0FFE2
:101A860090005DE02FF090005CE03EF01230768032
:011A9600A5AA
:101A970090005AE0FEA3E0FF900058E0FCA3E0FDB1
:091AA700D39FEC9E5003021B4783
:101AB000EF25E0FBEE33FAC3EB9DFEEA9C90005C61
:101AC000F0A3CEF0A3EAF0A3EBF0900058E0FEA361
:101AD000E0FFC390005BE09FFF90005AE09EFEEFA6
:101AE00025E0FFEE33900060F0A3EFF090004EE0B1
:101AF000FEA3E0FFC3900055E09F900054E09E409D
:101B000003021BE7A3E004F07006900054E004F029
:101B1000C390005CE064809480500590005E80116A
:101B2000900057E024FFF0900056E034FFF0900062
:101B300060E0FEA3E0FF90005DE02FF090005CE02D
:071B40003EF012307680A593
:101B4700900059E025E0FB900058E033FA90005AE6
:101B5700E0FEA3E0FFC3EB9FFFEA9EA3F0A3EFF035
:101B6700A3EAF0A3EBF090005AA3E0FFC39000595B
:101B7700E09FFF900058E09EFEEF25E0FFEE3390D8
:101B87000060F0A3EFF0900056E0FEA3E0FFC390E3
:101B97000051E09F900050E09E5045900057E02490
:101BA700FFF0900056E034FFF0C390005CE06480E3
:101BB7009480500590005E8011900055E004F0700D
:101BC70006900054E004F0900060E0FEA3E0FF9070
:101BD700005DE02FF090005CE03EF012307680A6CA
:011BE70022DB
:10206B009000A1EEF0A3EFF0A3ECF0A3EDF0A3EA48
:04207B00F0A3EBF0F3
:10207F00E49000AAF0A3F09000A5E0FEA3E0FFD348
:10208F009000ABE09F9000AAE09E4003022485E001
:10209F00FCA3E0FDFFAE0412157DAA06AB0790006E
:1020AF00A5E0FCA3E0FDFFAE0412157DC3EF9BFD81
:1020BF00EE9AFCE412101B122C041210549000AC78
:1020CF00EEF0A3EFF09000A5E0FEA3E0FF9000A2DA
:1020DF00E02FFF9000A1E03EFE9000ABE02FFF90BD
:1020EF0000AAE03EFE9000A5E0FCA3E0FD9000A456
:1020FF00E02DFD9000A3E03CFC9000ADE02DFD90A5
:10210F0000ACE03CFC9000A71230879000A5E0FEE9
:10211F00A3E0FF9000A2E02FFF9000A1E03EFE9011
:10212F0000AAE0FCA3E0FDC3EF9DFFEE9CFE900034
:10213F00A5E0FCA3E0FD9000A4E02DFD9000A3E03E
:10214F003CFC9000ACE0FAA3E0FBC3ED9BFDEC9AE6
:10215F00FC9000A71230879000A5E0FEA3E0FF904F
:10216F0000A2E02FFF9000A1E03EFE9000ABE02F19
:10217F00FF9000AAE03EFE9000A5E0FCA3E0FD90DA
:10218F0000A4E02DFD9000A3E03CFC9000ACE0FA31
:10219F00A3E0FBC3ED9BFDEC9AFC9000A7123087E8
:1021AF009000A5E0FEA3E0FF9000A2E02FFF9000BB
:1021BF00A1E03EFE9000AAE0FCA3E0FDC3EF9DFF6F
:1021CF00EE9CFE9000A5E0FCA3E0FD9000A4E02DA6
:1021DF00FD9000A3E03CFC9000ADE02DFD9000AC25
:1021EF00E03CFC9000A71230879000A5E0FEA3E032
:1021FF00FF9000A2E02FFF9000A1E03EFE9000AD07
:10220F00E02FFF9000ACE03EFE9000A5E0FCA3E0C5
:10221F00FD9000A4E02DFD9000A3E03CFC9000ABEE
:10222F00E02DFD9000AAE03CFC9000A712308790B3
:10223F0000A5E0FEA3E0FF9000A2E02FFF9000A119
:10224F00E03EFE9000ACE0FCA3E0FDC3EF9DFFEE8F
:10225F009CFE9000A5E0FCA3E0FD9000A4E02DFD06
:10226F009000A3E03CFC9000AAE0FAA3E0FBC3EDD2
:10227F009BFDEC9AFC9000A71230879000A5E0FE22
:10228F00A3E0FF9000A2E02FFF9000A1E03EFE90A0
:10229F0000ADE02FFF9000ACE03EFE9000A5E0FC0B
:1022AF00A3E0FD9000A4E02DFD9000A3E03CFC9086
:1022BF0000AAE0FAA3E0FBC3ED9BFDEC9AFC9000B3
:1022CF00A71230879000A5E0FEA3E0FF9000A2E0E8
:1022DF002FFF9000A1E03EFE9000ACE0FCA3E0FDDC
:1022EF00C3EF9DFFEE9CFE9000A5E0FCA3E0FD90E8
:1022FF0000A4E02DFD9000A3E03CFC9000ABE02D8E
:10230F00FD9000AAE03CFC9000A71230879000A936
:10231F00E070030224719000A5E0FEA3E0FF90009F
:10232F00A2E02FFF9000A1E03EFE9000AAE0FCA3E8
:10233F00E0FDC3EF9DFFEE9CFEC006C0079000A519
:10234F00E0FEA3E0FF9000A4E02FFF9000A3E03E8B
:10235F00FE9000ACE0FCA3E0FDC3EF9DFDEE9CFC06
:10236F009000A5E0FEA3E0FF9000A1E0FAA3E02F0C
:10237F00FFEA3EFE9000AAE0FAA3E0FBC3EF9BFB4F
:10238F00EE9AFA9000A5E0FEA3E0FF9000A3E0F81C
:10239F00A3E02FFFE83EFE9000ACE0F8A3E02FFF94
:1023AF00E83E900050F0A3EFF09000A7E0FFA3E00D
:1023BF00900052CFF0A3EFF0D007D006121717906E
:1023CF0000A5E0FEA3E0FF9000A2E02FFF9000A188
:1023DF00E03EFE9000ABE02FFF9000AAE03EFEC073
:1023EF0006C0079000A5E0FEA3E0FF9000A4E02F39
:1023FF00FF9000A3E03EFE9000ACE0FCA3E0FDC325
:10240F00EF9DFDEE9CFC9000A5E0FEA3E0FF900089
:10241F00A1E0FAA3E02FFFEA3EFE9000AAE0FAA3A4
:10242F00E02FFBEA3EFA9000A5E0FEA3E0FF90004C
:10243F00A3E0F8A3E02FFFE83EFE9000ACE0F8A386
:10244F00E02FFFE83E900050F0A3EFF09000A7E0E0
:10245F00FFA3E0900052CFF0A3EFF0D007D0061209
:10246F0017179000ABE004F060030220869000AADB
:06247F00E004F0022086DB
:012485002234
:10266500900078EEF0A3EFF0A3ECF0A3EDF0A3EA71
:0D267500F0A3EBF0900082E0700302271D3F
:1026820090007CE0FCA3E0FD90007AE0FAA3E0FB7E
:1026920090007EE0FFA3E0900008CFF0A3EFF0905F
:1026A2000078E0FEA3E0FF122ED090007AE0FFA3B4
:1026B200E0900083CFF0A3EFF090007EE0FEA3E075
:1026C200FFD3900084E09F900083E09E40030227A6
:1026D200F7900078E0FFA3E0900085CFF0A3EFF041
:1026E20090007CE0FEA3E0FFD3900086E09F900084
:1026F20085E09E50169000801231F6900086E0042C
:10270200F070DD900085E004F080D5900084E00454
:0B271200F070A6900083E004F0809EB1
:10271D00900078E0FAA3E0FBFFAE02C007A3E0FC57
:10272D00A3E0FD90007EE0FFA3E0900050CFF0A36A
:10273D00EFF0900080E0FFA3E0900052CFF0A3EF08
:10274D00F0D00712171790007EE0FCA3E0FD90007B
:10275D007CE0FAA3E0FBA3E0FFA3E0900050CFF0F4
:10276D00A3EFF0900080E0FFA3E0900052CFF0A324
:10277D00EFF0900078E0FEA3E0FF12171790007CB9
:10278D00E0FAA3E0FBFFAE02C007A3E0FCA3E0FD6F
:10279D0090007AE0FFA3E0900050CFF0A3EFF0900F
:1027AD000080E0FFA3E0900052CFF0A3EFF0D00740
:1027BD0012171790007AE0FCA3E0FD900078E0FA84
:1027CD00A3E0FBA3E0FFA3E0900050CFF0A3EFF058
:1027DD00900080E0FFA3E0900052CFF0A3EFF090C7
:0B27ED00007CE0FEA3E0FF12171722A3
:102E74009000B2EAF0A3EBF09000AEEEF0A3EFF016
:102E8400A3ECF0A3EDF0C006C007A3E0FEA3E0FFAF
:102E94009000AEE0FAA3E02FFBEA3EFA9000B0E027
:102EA400F8A3E02FFFE83E90007EF0A3EFF090003F
:102EB400B4E0FFA3E0900080CFF0A3EFF09000B661
:0C2EC400E0900082F0D007D006022665E6
:10248600900030EEF0A3EFF0A3ECF0A3EDF0A3EA9A
:06249600F0FCA3EBF0FDD9
:10249C00900030E0FAA3E0FFAE02C006C0072DFFAB
:1024AC00EA3CCF24FFFDEF34FFFCA3E0FAA3E0FBF2
:1024BC00900036E0FEA3E0FF900032E0F8A3E02F9E
:1024CC00FFE83ECF24FFCF34FF900008F0A3EFF0DD
:1024DC00D007D006122ED0E490003CF0A3F0900070
:1024EC0036E0FCA3E0FD900034E0FEA3E0FF121503
:1024FC007DC390003DE09F90003CE09E400302268F
:10250C0064A3E025E0FF90003CE033FE900038E04F
:10251C00FBA3E0FAA3E0F98F828E831215A5FBAA28
:10252C00F0EA54F8FE7F0090003BE0F9FD7C0012CD
:10253C00157DE4FD90003E1216C5EA5407FEEB54DF
:10254C00E0FFE9FD7C0012157DE4FD9000421216BF
:10255C00C590003DE025E0FF90003CE033FE90008C
:10256C0038E0FBA3E0FAA3E0F98F828E831215A565
:10257C007E00541FFF90003BE0FD7C0012157DE4B3
:10258C00FD9000461216C5E47B20FAF9F890003E47
:10259C00E0FCA3E0FDA3E0FEA3E0FF121619E4FFAC
:1025AC00EE54F8FEE4FDFC90003E1216C5E47B20D0
:1025BC00FAF9F8900042E0FCA3E0FDA3E0FEA3E0F2
:1025CC00FF121619EF54E0FFEE5407FEE4FDFC90E9
:1025DC0000421216C5E47B20FAF9F8900046E0FCA4
:1025EC00A3E0FDA3E0FEA3E0FF121619EF541FFFBA
:1025FC00E4FEFDFC9000461216C5900046E0FCA3DC
:10260C00E0FDA3E0FEA3E0FF90003EE0F8A3E0F9BC
:10261C00A3E0FAA3E04FFFEA4EFEE94DFDE84CFCC7
:10262C00A3E0F8A3E0F9A3E0FAA3E04FFFEA4EFE23
:10263C00E94DFDE84CFC90003E1216C590003EA3FF
:10264C00A31231F690003DE004F060030224EA90FE
:08265C00003CE004F00224EA56
:012664002253
:1010160075F020800E75F010800575F0087D007E55
:10102600007F003392D530D5031216ABEC33401057
:10103600EF33FFEE33FEED33FDEC33FCD5F0ED225E
:0E104600E5F0247EA2D513CC92E7CDCEFF229A
:10105400EDD2E7CD33EC3392D524814006E4FFFE94
:10106400FDFC22FCE4CFCECDCC24E0501174FF80F3
:10107400EDC3CC13CCCD13CDCE13CECF13CF047090
:07108400F030D5DE0216ABCF
:101BE800E5082403F582E43400F583E00508229033
:101BF8000000300703900003E475F0011216D102CB
:101C080015252000E97F2ED2008018EF540F24906C
:101C1800D43440D4FF30040BEF24BFB41A0050036F
:101C28002461FFE50960021509050CE50C70020541
:101C38000B30070E900000E475F0011216D1EF0288
:101C4800156B0230D27403D2078003E4C207F5088B
:101C58009000001216E8E4F509F50BF50CE50960AB
:101C6800077F20121C2B80F5750AFFC201C200C233
:101C780002C203C205C206C208121BF7FF700D306C
:101C880007057F00121C3CAF0CAE0B22B4255FC2C7
:101C9800D5C204121BF7FF24D0B40A00501A75F0FD
:101CA8000A780930D50508B6FF0106C6A426F6202D
:101CB800D5047002D20380D924CFB41A00EF50049F
:101CC800C2E5D204021F2ED20180C6D20080C0D243
:101CD8000280BCD2D580BAD20580B47F20121C2BDA
:101CE8002002077401B5090040F1121BE8FF121C1D
:101CF8002B021C65D208D2068095121BE8FB121B2A
:101D0800E8FA121BE8F94A4B7006792C7A207BFF17
:101D180020022EE509602A7E008E82758300121546
:101D28003E60060EEE650A70F0C2D5EBC0E0EAC070
:101D3800E0E9C0E0EE121F8FD0E0F9D0E0FAD0E081
:101D4800FB121525FF60AAEBC0E0EAC0E0E9C0E09D
:101D5800121C2BD0E02401F9D0E03400FAD0E0FBCB
:101D6800E50A0460DCD50AD98087D20280A2121F56
:101D78007160F7E50A70010412126DA90A600DE599
:101D88000A600914F50A122019EF60F3EA30E70235
:101D9800F404C3995079EAF4250A0430E701E4040D
:101DA800F50A800D121F7160C1EA050A250A121290
:101DB8006DEA90002FF030E701E4250A04D50A0403
:101DC80020050114121F8FE4C0E012201990002F83
:101DD800E0601320E70714F0121C13802204F0D0EF
:101DE800E014C0E07F00121C13E50A6007121C0A09
:101DF800150A800B300503121C0AD0E0021C65D0BE
:101E0800E00480C4121F71609EE50A0412126D90EE
:101E1800002FEAF0E50A2005026001042404121FDD
:011E28008F2A
:101E290074FF04C0E0122019121C13E50A200502F0
:101E39006003121C0AD0E0B50AE87F45121C1D9008
:101E4900002FE07F2B30E7047F2DF404C0E0121C43
:101E59002BD0E075F00A84C0F0121C14D0E0121CDB
:101E690014021C65791080027908C206C20880082C
:101E7900D2D5790A8004790AC2D5E50A047002F537
:101E89000AE4FAFDFEFF121BE8FC7B08200113128D
:101E99001BE8FD7B1030000A121BE8FE121BE8FF4D
:101EA9007B20EC3382D592D55013C3E43000069FD2
:101EB900FFE49EFEE42001039DFDE49CFCE4CBF8D5
:101EC900C201EC700CCFCECDCCE824F8F870F380C9
:101ED90017C3EF33FFEE33FEED33FDEC33FCEB3389
:101EE900FB994002FB0FD8E9EB300105F8D0E0C4BB
:101EF90048B201C0E00AEC4D4E4F78207B0070C219
:101F0900EAB50A0040BCC0E0121F91D0F0D0E02031
:101F19000104C4C0E0C4B201C0F0121C14D0F0D551
:101F2900F0EB021C651216F11D02531E6D581CD3ED
:101F39004C1CCF421E714F1E79441E79491CE8433F
:101F49001E7F551DAC461E0C451D7647204C501C66
:101F5900D72D1CDB2E1CFE2B1CDF231CFC2020355F
:101F69002A1C974800001CF6E50AB4FF03750A0607
:101F7900121BE8FC121BE8FD121BE8FE121BE8FF0E
:101F89009000280212AA790AA2D520031430050963
:101F9900B910020404B9080104A2D52006025001AF
:101FA900042002689202B509005034C0E07F203055
:101FB90003197F30A20272067205500F121FE8C280
:101FC90002C206C205C2087F30800F300503E9C08E
:101FD900E0121C2B300503D0E0F9D0E0B509CC3074
:101FE90005177F30B9100C121C2B7F583004077F5E
:101FF900788003B90803121C2B3002057F2D021CBF
:102009002B7F202008F87F2B2006F322920280CF15
:102019007F00B40700500B2428F582E43400F583CF
:10202900E0FF22286E756C6C2900D201121BE83082
:1020390001F8C201780930D50108F6021C972D5024
:10204900434958121BE82403B405004001E49020D9
:102059004793121C1C743A121C1CD2037509040202
:022069001E6DEA
:102C00000210C022EDA2E7D2E7F9EC3340F260F304
:102C1000B4FF08ED547F70E80210CAF82481C2E0C6
:102C2000C0E0F40428FAC313FCED92E7FD9000BD68
:102C30001216C5EEA2E7E9BA7F02C313340094006E
:102C4000FA75F091A4E5F013F494FE8AF0A433E54C
:102C5000F033248CD313FDE492E7FE7F007C3F75B4
:102C60008302ECC0E0F8EDC0E0F9EEC0E0FAEFC09E
:102C7000E0FB8583F09000BD1216B985F083121138
:102C8000D0D0E0FBD0E0FAD0E0F9D0E0F81210DCD0
:102C9000ED6480FD30E7011CD583C7ED33CC33F8FC
:0C2CA000D0E0A2E71328C313CC13FD22E0
:10108B00E9D2E7C933E833F892D5EDD2E7CD33ECAB
:07109B0033FC5002B2D52224
:1010A200EC30E7100FBF000C0EBE00080DBD0004AF
:1010B2000BEB6014A2D5EB13FCED92E7FD2274FF5B
:1010C200FCFDFEFF22E480F8A2D574FF13FC7D80B4
:0310D200E480EFC8
:1010D5000210C0E86480F8E933E83360110460F079
:1010E500ED33EC337009E8FCE9FDEAFEEBFF220481
:1010F50060DED3EB9FEA9EE99DE8C2E78CF0C2F77C
:1011050095F0400CE8CCF8E9CDF9EACEFAEBCFFB47
:1011150012108B85D0F05804700320D5B3E8047005
:10112500075002B2D50210CA92D5EC0460F7E4CCA0
:10113500C0E0C398F8603B94186008400DD0E0FB10
:101145000210A2E4FBFAC9FC8028E830E406E4C9F1
:10115500FBE4CAFCE830E305E4C9CACBFCE8540764
:101165006010F8C3E913F9EA13FAEB13FBEC13FC6F
:10117500D8F130F52FC3E49CFCEF9BFFEE9AFEED12
:1011850099FDD0E0FBEF4E4D4C701222DB030210AF
:10119500C7EC2CFCEF33FFEE33FEED33FDED30E70E
:1011A500EB0210A2EF2BFFEE3AFEED39FDD0E0FB8E
:1011B50050130BBB00030210CAED13FDEE13FEEF37
:0811C50013FFEC13FC0210A261
:1011CD000210CAEC5D046005E8590470030210C0FA
:1011DD0012108B580460F6EC4860F2EC7004FDFEC2
:1011ED00FF22C860DB2481C85009C39860025006F5
:1011FD000210C79850CAF582E9294B4A7005AB8297
:10120D000210B675F0007C1A7880C3EF9BEE9AED54
:10121D0099400DC3EF9BFFEE9AFEED99FDE842F06C
:10122D00DC23ACF0D0E0FFD0E0FED0E0FDAB8220BF
:10123D00E7101BEB60BAEC2CFCEF33FFEE33FEED49
:10124D0033FD0210A2E803F830E705C0F075F00099
:10125D00EF2FFFEE33FEED33FD40B830E7C280AA2D
:10126D00F920E73624F950037907E4F42402FBE56D
:10127D0082158270021583DBF6E024FB501BE960BA
:10128D0014E4F0E582158270021583E004F0B40ACF
:0D129D0008E4F0D9EE7401F00A22C2D52257
:1012AA00ED33EC3392D5FA602AB4FF33EDC2E77B13
:1012BA00FF60067A1279CFE4227A1279D820D5040F
:1012CA007A1279D3224E614E002B494E46002D499F
:1012DA004E4600E47A08F0A3DAFC7B00740722C0C9
:1012EA0083C082ECC0E0EDC0E0EEC0E0EFC0E0EA0F
:1012FA0075F010A4CAABF075F04DA42BFBE435F0E1
:10130A00FCEA2410FAEB34C5FBEC34D9FCEDC2E755
:10131A00FF75F056A4F42411C5F0F434C58FF0A477
:10132A002AE5F03BE43CF020E7141214E5D0E0FF94
:10133A00D0E0FED0E0FDD0E0FC1211D08014F4041D
:10134A001214E5D0E0FFD0E0FED0E0FDD0E0FC12C0
:10135A0013AFD082D083E0FAEDD2E7CD33EC332459
:10136A0082FBE4C3CF33CFCE33CECD33CD33DBF3E1
:10137A007B0775F00A846004F0A31B0AE5F0F0A36A
:10138A008FF0740AA4FFACF08EF0740AA42CFEACA1
:10139A00F050010C8DF0740AA42CFDE435F0F0A392
:0513AA00DBDE740722E8
:1013AF00EC4D6011E8497017ED33EC3304600DE438
:1013BF00FCFFFEFD22E933E8330470F80210C0127F
:1013CF00108B58046009E4CC248150062850090280
:1013DF0010CA2840030210C7C0E0EB4A7044B9801E
:1013EF0006D0E0FB0210B6EF4E701CBD8008EBFF7D
:1013FF00EAFEE9FD80EBE98DF0A4FEE5F00214981A
:10140F00E9CDF9EAFEEBFFEF89F0A4FCE5F0CE8918
:10141F00F0A42EFFE435F0CD89F0A42DFEE435F0D5
:10142F008067EF4E7005BD80D780C3EF8BF0A4AC03
:10143F00F0EE8BF0A42CFCE435F0F8EF8AF0A42C3E
:10144F00E5F038FCE433CB8DF0A42CFCE5F03BF851
:10145F00EE8AF0A42CFCE5F038F8E433CF89F0A441
:10146F002CFCE5F038CF3400CE89F0A42FFFE5F047
:10147F003EFEE433C98DF0A42EFEE5F039CD8AF09F
:10148F00A42FFFE5F03EFEE43DFD33D0E0FB500717
:10149F000BBB000F0210CAEC2CFCEF33FFEE33FE38
:0614AF00ED33FD0210A266
:1014B5003F8000004120000042C80000447A00003F
:1014C500461C400047C35000497424004B189680C1
:1014D5004CBEBC205A0E1BCA6753C21C749DC5AEB8
:1014E500FB60065407601C2323121513EB54386068
:1014F500091214FF12150E1213AFECF8EDF9EEFAFE
:10150500EFCB22EB12150E80F1543803241C9014F6
:10151500B5FE93FC0EEE93FD0EEE930ECE93FF22D9
:03000000022DE8E6
:0C2DE800787FE4F6D8FD758121022E2FC3
:10152500BB010689828A83E0225002E722BBFE02C4
:09153500E32289828A83E49322F7
:10153E00BB010CE58229F582E5833AF583E0225062
:10154E0006E92582F8E622BBFE06E92582F8E222AC
:0D155E00E58229F582E5833AF583E49322C6
:10156B00BB010689828A83F0225002F722BBFE015F
:02157B00F32259
:10157D00EF8DF0A4A8F0CF8CF0A428CE8DF0A42E82
:02158D00FE223C
:10158F00C5F0F8A3E028F0C5F0F8E58215827002E7
:06159F001583E038F02284
:1015A500BB0110E58229F582E5833AF583E0F5F084
:1015B500A3E0225009E92582F886F008E622BBFE61
:1015C5000AE92582F8E2F5F008E222E5832AF583A7
:0815D500E993F5F0A3E993226C
:1015DD0075F008758200EF2FFFEE33FECD33CDCCC5
:1015ED0033CCC58233C5829BED9AEC99E582984048
:1015FD000CF582EE9BFEED9AFDEC99FC0FD5F0D625
:10160D00E4CEFBE4CDFAE4CCF9A88222B800C1B94E
:10161D000059BA002DEC8BF084CFCECDFCE5F0CB8C
:10162D00F97818EF2FFFEE33FEED33FDEC33FCEBC5
:10163D0033FB10D703994004EB99FB0FD8E5E4F980
:10164D00FA227818EF2FFFEE33FEED33FDEC33FC6D
:10165D00C933C910D7059BE99A4007EC9BFCE99A61
:10166D00F90FD8E0E4C9FAE4CCFB2275F010EF2FA6
:10167D00FFEE33FEED33FDCC33CCC833C810D707A6
:10168D009BEC9AE899400AED9BFDEC9AFCE899F8E1
:0E169D000FD5F0DAE4CDFBE4CCFAE4C8F92274
:0E16AB00C3E49FFFE49EFEE49DFDE49CFC2250
:0C16B900E0FCA3E0FDA3E0FEA3E0FF22A4
:0C16C500ECF0A3EDF0A3EEF0A3EFF02298
:1016D100F8E0FBA3A3E0F925F0F0E58215827002A2
:0716E1001583E0FA38F02246
:0916E800EBF0A3EAF0A3E9F02203
:1016F100D083D082F8E4937012740193700DA3A388
:1017010093F8740193F5828883E47374029368609B
:06171100EFA3A3A380DF9B
:1030D200EFB40A07740D1230DD740A309811A89902
:1030E200B8130CC2983098FDA899C298B811F6305E
:0730F20099FDC299F5992236
:102DF400022F27E493A3F8E493A34003F68001F29F
:102E040008DFF48029E493A3F85407240CC8C333DF
:102E1400C4540F4420C8834004F456800146F6DFAE
:102E2400E4800B010204081020408090322EE47EDE
:102E3400019360BCA3FF543F30E509541FFEE493A3
:102E4400A360010ECF54C025E060A840B8E493A36A
:102E5400FAE493A3F8E493A3C8C582C8CAC583CA95
:102E6400F0A3C8C582C8CAC583CADFE9DEE780BE4D
:013237000096
:00000001FF
